:040000008AEF50F043
:0800080077EF00F0000000009A
:100010000000000000000000046ED8CF05F0E0CF23
:1000200006F00001E9CF0CF0EACF07F0E1CF08F0CD
:10003000E2CF09F0D9CF0AF0DACF0BF0F3CF12F00C
:10004000F4CF13F0FACF14F0F5CF15F0F6CF16F089
:10005000F7CF17F000C00EF001C00FF002C010F093
:1000600003C011F0A0AC38EF00F0A1BC4BEF0DF0D5
:10007000F0A83EEF00F0F0B2E9EF0BF07AA244EF07
:1000800000F07BB242EF17F0A0A64AEF00F0A1B655
:100090006EEF04F0F2A650EF00F0F2B0F6EF03F0CE
:1000A0000EC000F00FC001F010C002F011C003F04C
:1000B0000CC0E9FF07C0EAFF078E08C0E1FF09C0D6
:1000C000E2FF0AC0D9FF0BC0DAFF12C0F3FF13C072
:1000D000F4FF14C0FAFF15C0F5FF16C0F6FF17C0F5
:1000E000F7FF045006C0E0FF05C0D8FF10001A6EED
:1000F000D8CF1BF0E0CF1CF00001E9CF22F0EACF0F
:100100001DF0E1CF1EF0E2CF1FF0D9CF20F0DACF03
:1001100021F0F3CF28F0F4CF29F0FACF2AF0F5CF71
:100120002BF0F6CF2CF0F7CF2DF000C024F001C05B
:1001300025F002C026F003C027F07AA4A3EF00F058
:100140007BB4F6EF18F07AA0A9EF00F07BB047EF90
:1001500010F0F2A8AFEF00F0F2B211EF04F024C0FB
:1001600000F025C001F026C002F027C003F022C035
:10017000E9FF1DC0EAFF1D8E1EC0E1FF1FC0E2FFA8
:1001800020C0D9FF21C0DAFF28C0F3FF29C0F4FF47
:100190002AC0FAFF2BC0F5FF2CC0F6FF2DC0F7FFD9
:1001A0001A501CC0E0FF1BC0D8FF1000BA0FF66E3B
:1001B000010EF7220900F5501200000089111223E8
:1001C0009B322446AD573665BF74488CC19D5AAFEB
:1001D000D3BE6CCAE5DB7EE9F7F8811008019333E2
:1001E0001A22A5562C47B7753E64C99C408DDBBFCB
:1001F00052AEEDDA64CBFFF976E802218B301002C3
:1002000099132667AF763444BD554AADC3BC588EAA
:10021000D19F6EEBE7FA7CC8F5D983310A209112A1
:100220001803A7772E66B5543C45CBBD42ACD99E8A
:10023000508FEFFB66EAFDD874C904428D531661F6
:100240009F702004A9153227BB364CCEC5DF5EED6A
:10025000D7FC6888E1997AABF3BA85520C43977161
:100260001E60A1142805B3373A26CDDE44CFDFFD4A
:1002700056ECE9986089FBBB72AA06638F72144042
:100280009D512225AB343006B9174EEFC7FE5CCC2A
:10029000D5DD6AA9E3B8788AF19B87730E62955021
:1002A0001C41A3352A24B1163807CFFF46EEDDDC0A
:1002B00054CDEBB962A8F99A708B088481951AA77E
:1002C00093B62CC2A5D33EE1B7F04008C919522B12
:1002D000DB3A644EED5F766DFF7C899400859BB7B9
:1002E00012A6ADD224C3BFF136E0C1184809D33BF2
:1002F0005A2AE55E6C4FF77D7E6C0AA583B418869A
:1003000091972EE3A7F23CC0B5D14229CB38500AD1
:10031000D91B666FEF7E744CFD5D8BB502A4999678
:100320001087AFF326E2BDD034C1C3394A28D11AB1
:10033000580BE77F6E6EF55C7C4D0CC685D71EE5CD
:1003400097F42880A1913AA3B3B2444ACD5B566991
:10035000DF78600CE91D722FFB3E8DD604C79FF538
:1003600016E4A9902081BBB332A2C55A4C4BD77971
:100370005E68E11C680DF33F7A2E0EE787F61CC419
:1003800095D52AA1A3B03882B193466BCF7A544851
:10039000DD59622DEB3C700EF91F8FF706E69DD4F8
:1003A00014C5ABB122A0B9923083C77B4E6AD55831
:1003B0005C49E33D6A2CF11E780FF76ACA0FF66EAE
:1003C000030EF7220900F5501200456E7465722085
:1003D0004465657020536C6565700000F76AEC0F2A
:1003E000F66E030EF7220900F55012005265617394
:1003F0006F6E3A2020202020202020200000F76A65
:100400000E0FF66E040EF7220900F550120020536D
:100410006561726368696E67203F3F3F3F2000005F
:10042000F76A300FF66E040EF7220900F55012003D
:100430006E6E6E6E206969692073737320646464E4
:100440000000F76A520FF66E040EF7220900F5500D
:10045000120053573120746F204A6F696E2020209C
:1004600020200000F76A740FF66E040EF7220900D0
:10047000F55012005374726F6E676573743A2020E2
:10048000202020200000F76A960FF66E040EF72257
:100490000900F5501200205365617263682053759E
:1004A0006363657373200000F76AB80FF66E040E7D
:1004B000F7220900F55012004E657874206A6F69C2
:1004C0006E3A2020202020200000F76ADA0FF66E16
:1004D000040EF7220900F5501200202020202020D1
:1004E000202020202020202020200000F76AFC0F60
:1004F000F66E040EF7220900F55012005662617480
:1005000074203D2020202020205620200000F76A63
:100510001E0FF66E050EF7220900F5501200536803
:100520007464776E2043617573653A202020000063
:10053000F76A400FF66E050EF7220900F55012001B
:1005400076202020202020722020202074202020AF
:100550000000F76A620FF66E050EF7220900F550EB
:1005600012006320202020202071202020206120E4
:1005700020200000F76A840FF66E050EF7220900AE
:10058000F55012006D202020202020206E202020F9
:1005900020202A200000F76AA60FF66E050EF7222B
:1005A0000900F550120070202020202020202E204D
:1005B0002020202020200000F76AC80FF66E050ECC
:1005C000F7220900F55012002A2A2A00F76ADC0FE8
:1005D000F66E050EF7220900F55012006272202017
:1005E00020206368202020206D7020200000F76A02
:1005F000FE0FF66E050EF7220900F550120072206C
:1006000020202F20202020766720202E2020000070
:10061000F76A200FF66E060EF7220900F550120059
:1006200073797374656D2073746174652020202064
:100630000000F76A420FF66E060EF7220900F55029
:1006400012005365747570204D616E616765722E7E
:100650002E2E0000F76A640FF66E060EF7220900D0
:10066000F5501200202052656C6561736520535768
:10067000312020200000F76A860FF66E060EF72262
:100680000900F55012004465616C205769746820B8
:100690005061636B65740000F76AA80FF66E060E72
:1006A000F7220900F5501200564C5620496E697425
:1006B00020402073746172740000F76ACA0FF66EEE
:1006C000060EF7220900F5501200564C56204361E1
:1006D0006C6962726174696F6E200000F76AEC0FDA
:1006E000F66E060EF7220900F550120042656769A2
:1006F0006E696E672E2E2E2E2E2E2E2E0000F76A7D
:100700000E0FF66E070EF7220900F5501200436C2B
:100710006F7365204343503D20202020202000009F
:10072000F76A300FF66E070EF7220900F550120037
:100730004F70656E20434350203D20202020202014
:100740000000F76A520FF66E070EF7220900F55007
:100750001200526573657474696E67204D6F74651D
:1007600021210000F76A740FF66E070EF7220900C8
:10077000F55012004D6F7465206973204465616403
:10078000202020200000F76A960FF66E070EF72251
:100790000900F5501200536561726368205374724A
:1007A0006F6E672031200000F76AB80FF66E070EF3
:1007B000F7220900F55012005365617263682053F7
:1007C00074726F6E672032200000F76ADA0FF66EDF
:1007D000070EF7220900F55012002020496E6974B7
:1007E000204A6F696E2020202020000081B809D0A7
:1007F00088C094F087C093F086C092F085C091F0D5
:100800000DD0946B936B926B916B8451040803E150
:10081000010E846F01D0842B010E836FF29050EF94
:1008200000F0FF00F292AFEF00F0030182511308D5
:1008300001E152D0822B036A82516E0FE96E030EE2
:100840000320EA6E2CC6EFFF82C32DF606012D535E
:1008500042E0036A2D516E0FE96E030E0320EA6E2B
:10086000EFCF2EF6010E2D5D036A6E0FE96E030EBB
:100870000320EA6EEF502E5D2CE02BE3036A2D512E
:100880006E0FE96E030E0320EA6EEFCF2CF6036ABB
:100890002D516E0F016E030E032203C02FF6010EC1
:1008A0002D5D036A6E0FE96E030E0320EA6EEFCF33
:1008B00030F62FC6EAFF01C0E9FF30C6EFFF010E98
:1008C0002D5D036A6E0FE96E030E0320EA6E2CC6DF
:1008D000EFFF2D07BCD7030100011200F29CF29E2E
:1008E000F2BEFDD7A196196AF2BE198EF29EC00E15
:1008F00006012C6F000199DF19BEF28EA7A106D068
:100900008C94150E006E002EFED78C84010EFC6EAA
:10091000A19650EF00F0F250C00B0501FC6FF29C65
:10092000F29EF2BEFDD7D36A070ED56E720EBA6E76
:100930000F01516F630EBB6E0501FC51F2120001F5
:10094000F3EF0BF00F015195536B19C652FF7E90D8
:100950005185000112000601146BAB8EAB88AC8A86
:10096000010E196F0001EEDF7EA0FED70601146BA9
:100970001451C9082BE3899AD90E196F0001E2DFDF
:100980009EBA02D07EA0FCD7898A7EA006D0AB9EFC
:10099000AB98AC9AFC0E016E51D0036A060114515B
:1009A000280FE96E020E0320EA6EAECFEFFF036A56
:1009B0001451280FE96E020E0320EA6EEF507E08F4
:1009C00003E1145301E002D0142BD2D7AB9EAB98B5
:1009D000AC9A1451CA0810E1036A1451280FE96E49
:1009E000020E0320EA6EEF507E0806E0FF0E016E55
:1009F000000124D023D006011451040805E3FF0EA2
:100A0000016E00011BD01AD0020128517E080CE1B2
:100A1000036A06011451280FE96E020E0320EA6EE4
:100A2000EF507E0807E00201FE0E016E000106D0C5
:100A300005D00601010E1425016E00013AEF09F000
:100A400026C628F60601296B255127192A6F2B6B1C
:100A5000D8902A35026E2B35036E025003C0F7FF83
:100A60000001D6EC00F00900F5CF03F006012819CB
:100A7000006E03502919036E00C001F0026E0001E0
:100A80005BEF05F00601236B226B2369226920517D
:100A900021111BE01FC603F01E511E2BD8B41F2BC3
:100AA000E96E03C0EAFFEFCF27F623C626F622C67B
:100AB00025F60001C5D702C023F601C022F60601C3
:100AC0002051D8B421072007E2D723C603F0031E24
:100AD0002251FF0A016E03C002F00001FDEF05F094
:100AE0000601166B156B1D6B020128517E080DE186
:100AF000010E0601145D036A280FE96E020E032041
:100B0000EA6EEF507E0805E00201FE0E016E88D00D
:100B100006011C6BD90E1B6F010E145D036A280FB2
:100B2000016E020E032201C019F603C01AF6020E6E
:100B3000186F290E176F18511A5D38E303E1195128
:100B4000175D34E218C603F017C6E9FF18C6EAFFBE
:100B5000EF507D0816E1172BD8B4182B1CC61FF6D2
:100B60001B511B2BD8B41C2B1E6F17C6E9FF18C6D0
:100B7000EAFFEF50200A1FC6EAFF1EC6E9FFEF6E2C
:100B800011D01CC61FF61B511B2BD8B41C2B17C62B
:100B9000E9FF18C6EAFFEFCF20F61FC6EAFFE96EAD
:100BA00020C6EFFF172BD8B4182BC5D71B51D8B4CC
:100BB0001C071B071CC603F01B51D8B41C071B07DE
:100BC000E96E03C0EAFFEFCF16F6156B1BC6E9FF0F
:100BD0001CC6EAFFEF501527000E1623D90E1B5D29
:100BE000006E000E1C5900C01DF61F6BD90E1E6F43
:100BF000216B1DC620F6000145D702C01FF601C0BB
:100C00001EF606011551015C03E116511F5D05E05A
:100C1000FB0E016E020104D006011DC601F00201A7
:100C200000013FEF09F00401F751090801E137D154
:100C300006011451A0084DE1F7C415F6155349E01B
:100C4000153D01D046D01551080DF3501F6B1E6F96
:100C5000040E1E25016E000E1F21036E0150A70F0A
:100C6000E96E040E0320EA6EEF50A00830E1155142
:100C7000080DF3501F6B1E6F050E1E25016E000E32
:100C80001F21036E0150A70FE96E040E0320EA6EC8
:100C90000301652BD8B4662B66C3ECFFED5265C328
:100CA000EFFF06011551080DF3501F6B1E6F070E65
:100CB0001E25016E000E1F21036E0150A70FE96E65
:100CC000040E0320EA6EEF6A0401E9D0060115075D
:100CD000B5D70401F72B0301652BD8B4662B0401AB
:100CE000F751080DF35006011F6B1E6FA70E1E254E
:100CF000E96E040E1F21EA6E85C0EFFF86C0ECFF8F
:100D000087C0ECFF88C0ECFF0401F751080DF350D9
:100D100006011F6B1E6F040E1E25016E000E1F21A3
:100D2000036E0150A70FE96E040E0320EA6E14C68D
:100D3000EFFF0401F751080DF35006011F6B1E6F02
:100D4000050E1E25016E000E1F21036E0150A70F18
:100D5000E96E040E0320EA6E66C3ECFFED5265C334
:100D6000EFFF0401F751080DF35006011F6B1E6FD2
:100D7000070E1E25016E000E1F21036E0150A70FE6
:100D8000E96E040E0320EA6EEF6AF7C415F61553F8
:100D9000D8B484D01551080DF3501F6B1E6FA70EE9
:100DA0001E25E96E040E1F21EA6EEFCF20F6ECCF70
:100DB00021F6ECCF22F6ECCF23F6010E155D080DDF
:100DC000F350256B246FA70E2425E96E040E252110
:100DD000EA6EEFCF00F0ECCF01F0ECCF02F0ECCFF9
:100DE00003F00350235D55E30BE10250225D51E314
:100DF00007E10150215D4DE303E12051005C49E230
:100E00001551080DF350036AA70F016E040E03225B
:100E100003C0E2FF01C0E1FFE6CF16F6E6CF17F60A
:100E20001551080DF350036AA70F016E040E03223B
:100E300001C01EF603C01FF6010E155D080DF3502C
:100E4000036AA70F016E040E032201C020F603C03F
:100E500021F61FC6EAFF1EC6E9FF03C0E2FF01C07C
:100E6000E1FF020E016EE6CFEEFF012EFCD7010E70
:100E7000155D080DF350036AA70F016E040E0322DF
:100E800003C0EAFF01C0E9FF16C6EEFF17C6EEFF7A
:100E900003D0040104D00601150779D7040100012D
:100EA000120021C623F60601246B20512219256F5A
:100EB000266BD8902535026E2635036E025003C08E
:100EC000F7FF0001D6EC00F00900F5CF03F00601B2
:100ED0002319006E03502419036E00C001F0026E46
:100EE0000001120006011B6B1A6B1C6B1D6B1E6B45
:100EF0001B691A691D6B16511D5D15E21D511425E4
:100F0000E96E000E1521EA6EEFCF22F61BC621F620
:100F10001AC620F60001C5DF02C01BF601C01AF692
:100F200006011D2BE8D71D6B19511D5D15E21D51E2
:100F30001725E96E000E1821EA6EEFCF22F61BC6C8
:100F400021F61AC620F60001ACDF02C01BF601C074
:100F50001AF606011D2BE8D71A1F1B1F1E6B1E5108
:100F60001E2B036A100FE96E020E0320EA6E7E0E3E
:100F7000EF6E1D6B16511D5D4DE21D511425E96E7E
:100F8000000E1521EA6EEF507D0809E01D51142571
:100F9000E96E000E1521EA6EEF507E0824E11E5125
:100FA0001E2B036A100FE96E020E0320EA6E7D0EFF
:100FB000EF6E1E511E2B036A100F016E020E0322EC
:100FC00001C01FF603C020F61D511425E96E000E66
:100FD0001521EA6EEF50200A216F03C0EAFF01C01D
:100FE000E9FFEF6E15D01E511E2B036A100F016E24
:100FF000020E03221D511425E96E000E1521EA6E22
:10100000EFCF21F603C0EAFF01C0E9FF21C6EFFFE1
:101010001D2BB0D71D6B19511D5D4DE21D511725BC
:10102000E96E000E1821EA6EEF507D0809E01D51AF
:101030001725E96E000E1821EA6EEF507E0824E1B4
:101040001E511E2B036A100FE96E020E0320EA6E7A
:101050007D0EEF6E1E511E2B036A100F016E020EE5
:10106000032201C01FF603C020F61D511725E96EAB
:10107000000E1821EA6EEF50200A216F03C0EAFF2C
:1010800001C0E9FFEF6E15D01E511E2B036A100F31
:10109000016E020E03221D511725E96E000E182164
:1010A000EA6EEFCF21F603C0EAFF01C0E9FF21C6D7
:1010B000EFFF1D2BB0D71AC61CF61C517D0803E0AC
:1010C0001C517E0816E11E511E2B036A100FE96E9B
:1010D000020E0320EA6E7D0EEF6E1E511E2B036A78
:1010E000100FE96E020E0320EA6E1C51200AEF6E0B
:1010F0000AD01E511E2B036A100FE96E020E032048
:10110000EA6E1CC6EFFF1BC61CF61C517D0803E0EF
:101110001C517E0816E11E511E2B036A100FE96E4A
:10112000020E0320EA6E7D0EEF6E1E511E2B036A27
:10113000100FE96E020E0320EA6E1C51200AEF6EBA
:101140000AD01E511E2B036A100FE96E020E0320F7
:10115000EA6E1CC6EFFF1E511E2B036A100FE96ECC
:10116000020E0320EA6E7E0EEF6E1EC652F30001E1
:101170001200F250C00B0601196FF29CF29EF2BEF3
:10118000FDD7D36A070ED56E720EBA6E0F01516F7E
:10119000630EBB6E06011951F212000112009EA8E7
:1011A000FED7AD6E1200D3CF15F6BACF16F6BBCF71
:1011B00017F6D5CF18F6DDDF8C9AAB8EAB88AC8AEC
:1011C000010E0601196F0001A2EC04F07EA0FED70B
:1011D0000601146B030152510601145D23E2270E30
:1011E000196F0001A2EC04F0ACB202D07EA0FCD7D3
:1011F0007EA008D08C8AAB9EAB98AC9AFC0E016E98
:1012000022D00DD0036A06011451100FE96E020EB0
:101210000320EA6EEFCF19F619510001C0DF060175
:10122000142BD8D7ACA2FED78C8AAB9EAB98AC9AC5
:1012300015C6D3FF16C6BAFF18C6D5FF17C6BBFF23
:10124000000E016E000112000501FF6B0601009106
:10125000016B026B066B056B046B036B0A6B096B0E
:10126000086B076B0E6B0D6B0C6B0B6B0F6B000140
:10127000ABEF04F001C00FF60FC614F631D4D9C09D
:10128000FFF5DBC062F30601016B0501FF2D01D004
:1012900024D0FF51020821E0FF5103081EE0FF5156
:1012A00004081BE0FF51050818E0FF51060815E08F
:1012B000FF51070812E0FF5108080FE0FF5109082D
:1012C0000CE0FF510B0809E0FF510C0806E0FF514C
:1012D000100803E0FF51110802E1DCC05FF3FF2DAD
:1012E00001D009D0FF51020806E0FF51030803E0D6
:1012F000FF51040807E1DDC063F303015F5301E11F
:1013000060850501FF51010A000133E0030A3AE05C
:10131000010AD8B407D1070AD8B40DD1010AD8B44C
:1013200040D1020AD8B43DD10F0AD8B43AD1010A4B
:10133000D8B437D1020AD8B434D1070AD8B431D1DD
:101340001C0AD8B42ED1010AD8B42CD1170AD8B4AB
:1013500032D10B0AD8B439D1030AD8B46AD1010A00
:10136000D8B46DD11D0AD8B4A9D1930AD8B4BCD1D0
:10137000F8D103016351060A000103E00E0A02E0FE
:1013800001D000D003016351080A00010DE0040AF6
:101390000EE0010A31E0030A60E0010AD8B48DD002
:1013A0001F0AD8B4BDD0BED0DEC064F3BBD00501E7
:1013B000FC6BFC5107081EE3036AFC51970F016E9A
:1013C000000E032201C014F6060103C015F6036ADD
:1013D0000501FC51DF0FE96E000E0320EA6EEFCF2E
:1013E00016F615C6EAFF01C0E9FF16C6EFFF0501B4
:1013F000FC2BDFD7000196D00501FC6BFC510708E0
:101400001EE3036AFC519F0F016E000E032201C010
:1014100014F6060103C015F6036A0501FC51DE0F40
:10142000E96E000E0320EA6EEFCF16F615C6EAFF4E
:1014300001C0E9FF16C6EFFF0501FC2BDFD7E7C0AF
:101440006AF3E6C069F3E9C0FEF5E8C0FDF5FDC545
:1014500068F3FEC567F3000165D0DEC004F5A78D13
:1014600005010451050804E00001A79F25D00501EE
:101470000001A7BF21D0A78F7A92940E0601146FA6
:10148000000113EC06F07A82196AF2BE198EF29E00
:10149000A30E06012C6F000115EC04F019BEF28EAC
:1014A000196AF2BE198EF29EA20E06012C6F00017F
:1014B00015EC04F019BEF28E35D0E1C006F6E0C09E
:1014C00005F6DFC004F6DEC003F689530EE18A5349
:1014D0000CE18B530AE18C5308E103C690F004C67B
:1014E0008FF005C68EF006C68DF003C68CF004C6DC
:1014F0008BF005C68AF006C689F0E5C00AF6E4C09E
:1015000009F6E3C008F6E2C007F60301655306E1F9
:10151000665304E109C666F30AC665F3000102D00A
:10152000E6C06DF303016351020A000103E0010A02
:1015300002E001D000D003016351010A000103E081
:10154000020A25E02ED00501FC6BFC5107081EE3C2
:10155000036AFC519F0F016E000E032201C014F6B6
:10156000060103C015F6036A0501FC51DE0FE96EA2
:10157000000E0320EA6EEFCF16F615C6EAFF01C093
:10158000E9FF16C6EFFF0501FC2BDFD709D0DFC04E
:10159000FEF5DEC0FDF5FDC568F3FEC567F3050188
:1015A0000001DFD003015F5304E1020E0501046F67
:1015B00003010001D6D003015F5304E1030E0501CE
:1015C000046F030161870001CCD0DFC006F6DEC0E6
:1015D00005F6DDC004F6DCC003F689530EE18A533C
:1015E0000CE18B530AE18C5308E103C690F004C66A
:1015F0008FF005C68EF006C68DF003C68CF004C6CB
:101600008BF005C68AF006C689F0E3C00AF6E2C090
:1016100009F6E1C008F6E0C007F60301655166115E
:1016200004E109C666F30AC665F3060100810001FC
:1016300098D0DEC064F306010081000192D0A78D2E
:10164000DFC00EF6DEC00DF6DDC00CF6DCC00BF61A
:10165000E0C004F505010451050804E00001A79F5E
:1016600025D005010001A7BF21D0A78F7A92940E43
:101670000601146F000113EC06F07A82196AF2BEBB
:10168000198EF29EA30E06012C6F000115EC04F0DA
:1016900019BEF28E196AF2BE198EF29EA20E0601D2
:1016A0002C6F000115EC04F019BEF28E06010E51EC
:1016B0000001D81306010081000153D0DDC0FEF502
:1016C000DCC0FDF5FDC568F3FEC567F3DFC06AF356
:1016D000DEC069F3E0C06BF3E1C06CF30301608727
:1016E0000601008100013DD0DFC002F60601025173
:1016F0005E0827E30501FC6B060102510501FC5D54
:101700001EE2036AFC51F30F016E020E032201C0B8
:1017100014F6060103C015F6036A0501FC51E00F3B
:10172000E96E000E0320EA6EEFCF16F615C6EAFF4B
:1017300001C0E9FF16C6EFFF0501FC2BDDD704D081
:101740000601040E016F050106010081196AF2BE4F
:10175000198EF29E200E2C6F000115EC04F019BEBC
:10176000F28E060100A132D0010E030162250601AE
:10177000106F01C611F6FFC512F6136B060E156F3A
:10178000120E146F020E166F060E186F100E176FE2
:10179000020E196F000172EC07F00501FC6BFC51A1
:1017A000020813E30001FFDC015204E105010DD042
:1017B0000AD00001C70E0601196F0001A2EC04F067
:1017C0007EA0FED70501FC2BEAD706010001F5EF4C
:1017D0000BF0D3CFF8F5BACFF9F5BBCFFAF5D5CFEB
:1017E000FBF58BEF04F07A922FD57A82F8C5D3FF00
:1017F000F9C5BAFFFBC5D5FFFAC5BBFFF09250EFA4
:1018000000F003019C51040801E116D19C2B9C516E
:10181000050DF3500601376B366F040E3625016E49
:10182000000E3721036E0150830FE96E030E032073
:10183000EA6E34C6EFFF03019C51050DF35006011B
:10184000376B366F830E3625E96E030E3721EA6E4D
:1018500030C6EFFF31C6ECFF32C6ECFF33C6ECFFFB
:101860009CC335F63553D8B4E6D03551050DF35049
:10187000376B366F830E3625E96E030E3721EA6E1D
:10188000EFCF38F6ECCF39F6ECCF3AF6ECCF3BF6AB
:10189000010E355D050DF3503D6B3C6F830E3C250D
:1018A000E96E030E3D21EA6EEFCF00F0ECCF01F0C0
:1018B000ECCF02F0ECCF03F003503B5DD8A0B9D0E1
:1018C0000EE102503A5DD8A0B4D009E10150395D73
:1018D000D8A0AFD004E13851005CD8B0AAD03551BF
:1018E000050DF350376B366F040E3625016E000E72
:1018F0003721036E0150830FE96E030E0320EA6E59
:10190000EFCF34F63551050DF350376B366F040EBB
:101910003625016E000E3721036E0150830F016ED4
:10192000030E032201C036F603C037F6010E355D03
:10193000050DF350396B386F040E3825016E000E1B
:101940003921036E0150830FE96E030E0320EA6E06
:10195000EFCF38F637C6EAFF36C6E9FF38C6EFFFE5
:10196000010E355D050DF350376B366F040E3625CD
:10197000016E000E3721036E0150830FE96E030ED6
:101980000320EA6E34C6EFFF3551050DF350376B77
:10199000366F830E3625E96E030E3721EA6EEFCFE0
:1019A00030F6ECCF31F6ECCF32F6ECCF33F63551E2
:1019B000050DF350376B366F830E3625016E030E1F
:1019C0003721036E01C038F6396F010E355D050D04
:1019D000F3503B6B3A6F830E3A25E96E030E3B21C1
:1019E000EA6EEFCF00F0ECCF01F0ECCF02F0ECCFDD
:1019F00003F039C6EAFF38C6E9FF00C0EFFF01C0B7
:101A0000ECFF02C0ECFF03C0ECFF010E355D050DDD
:101A1000F350376B366F830E3625E96E030E372190
:101A2000EA6E30C6EFFF31C6ECFF32C6ECFF33C6BC
:101A3000ECFF350717D703010001120006010A6BFE
:101A40000B6B010E0C6FDA6AD96A060E0F6F020E6D
:101A50000E6F060EEA6EE96E0FC6E2FF0EC6E1FFDC
:101A60000CC60DF6D890E550EE02F3500A23F45060
:101A70000B230D2FF7D70AC6DEFF0BC60AF60B6B3A
:101A8000D8B00B2B0E2BD8B40F2B0C2B0C510508F8
:101A9000E0E10001120079AC55D2CE500501F86F9B
:101AA000CFCFF9F5055110082CE1800E0001C26F6F
:101AB000C16B030E85250501FA6F000E000186211A
:101AC0000501FB6F000E000187210501FC6F000E70
:101AD000000188210501FD6F196AF2BE198EF29E80
:101AE000E8CF33F6FCC532F6FBC531F6FAC530F661
:101AF000320E0601346F000184DE19BEF28E16D25A
:101B00000501055111082BE10001C26BC16B030EE9
:101B100085250501FA6F000E000186210501FB6F86
:101B2000000E000187210501FC6F000E00018821D5
:101B30000501FD6F196AF2BE198EF29EE8CF33F6E9
:101B4000FCC532F6FBC531F6FAC530F6330E060198
:101B5000346F000156DE19BEF28EE8D10501055141
:101B6000120871E1800E0001C26FC16B0501FD6BAF
:101B7000FC6BCAC0FBF5C9C0FAF5C7C000F0C8C00D
:101B800001F0026A036A03C001F602C000F6C8C091
:101B9000FFF5C7C0FEF5FDC505F6FCC504F6CAC0D5
:101BA00003F6C9C002F603C009F602C008F6C8C0B1
:101BB00007F6C7C006F6000141DF03C0FDF502C00D
:101BC000FCF501C0FBF500C0FAF50501F851FA2754
:101BD000F951FB23000EFC23FD23FD31026EFC3185
:101BE000016EFB31006E02320132003200C0C7F0DC
:101BF000000101C0C8F0030E85250501FA6F000E33
:101C0000000186210501FB6F000E000187210501FF
:101C1000FC6F000E000188210501FD6F196AF2BEFC
:101C2000198EF29EE8CF33F6FCC532F6FBC531F6CD
:101C3000FAC530F6350E0601346F0001E2DD19BE3B
:101C4000F28E74D105010551140870E10001C26BD8
:101C5000C16B0501FD6BFC6BCAC0FBF5C9C0FAF591
:101C6000C5C000F0C6C001F0026A036A03C001F6F5
:101C700002C000F6C6C0FFF5C5C0FEF5FDC505F6FD
:101C8000FCC504F6CAC003F6C9C002F603C009F6D3
:101C900002C008F6C6C007F6C5C006F60001CEDED3
:101CA00003C0FDF502C0FCF501C0FBF500C0FAF56C
:101CB0000501F851FA27F951FB23000EFC23FD23FF
:101CC000FD31026EFC31016EFB31006E02320132D9
:101CD000003200C0C5F0000101C0C6F0030E85252A
:101CE0000501FA6F000E000186210501FB6F000E51
:101CF000000187210501FC6F000E0001882105010C
:101D0000FD6F196AF2BE198EF29EE8CF33F6FCC55C
:101D100032F6FBC531F6FAC530F6360E0601346FE1
:101D200000016FDD19BEF28E01D1050105511608C3
:101D30002AE1030E000185250501FA6F000E00015E
:101D400086210501FB6F000E000187210501FC6F54
:101D5000000E000188210501FD6F196AF2BE198E7F
:101D6000F29EE8CF33F6FCC532F6FBC531F6FAC574
:101D700030F6400E0601346F000143DD19BEF28ECD
:101D8000020E0501056F8D2C4FD005534DE0075114
:101D90000001C25D39E308E1C1510501065DD8A02B
:101DA00002D0000131D00001020E0501056F0001D3
:101DB000C269C1690401F985010E0001852505018B
:101DC000FA6F000E000186210501FB6F000E000175
:101DD00087210501FC6F000E000188210501FD6FC0
:101DE000196AF2BE198EF29EE8CF33F6FCC532F6C0
:101DF000FBC531F6FAC530F6A00E0601346F0001BE
:101E000000DD19BEF28E0ED0C26BC16B196AF2BE34
:101E1000198EF29EA50E06012C6F000115EC04F040
:101E200019BEF28E83D005018D2C2FD005532DE1E4
:101E3000020E056F0001C26BC16B030E8525050103
:101E4000FA6F000E000186210501FB6F000E0001F4
:101E500087210501FC6F000E000188210501FD6F3F
:101E6000196AF2BE198EF29EE8CF33F6FCC532F63F
:101E7000FBC531F6FAC530F6410E0601346F00019C
:101E8000C0DC19BEF28E52D005018D5002084FE120
:101E90000001C2510501095D39E308E10851000163
:101EA000C15DD8A002D0050131D00501020E056F39
:101EB0000001C269C1690401F985010E000185258F
:101EC0000501FA6F000E000186210501FB6F000E6F
:101ED000000187210501FC6F000E0001882105012A
:101EE000FD6F196AF2BE198EF29EE8CF33F6FCC57B
:101EF00032F6FBC531F6FAC530F6A00E0601346F96
:101F000000017FDC19BEF28E11D00501800E0001A8
:101F1000C26FC16B196AF2BE198EF29EA50E060140
:101F20002C6F000115EC04F019BEF28E05010F01B3
:101F3000416B776A040E786E796E7A900001CF6BF0
:101F40008D6AA19CA19C50EF00F0050105C501F030
:101F500000011200CA510501175D24E305E10001EB
:101F6000C9510501165D1EE30001C2510501075D5F
:101F700009E318E106510001C15DD8B002D00501A6
:101F800011D0050109510001C25D09E3D8B402D0A6
:101F9000050108D0C1510501085D04E3000114C525
:101FA00040FF71D00001D1DF0150100803E112C5DC
:101FB00040FF69D0CADF0150110814E10501095141
:101FC0000001C25D0CE308E1C1510501085DD8A024
:101FD00002D0000104D000010EC540FF02D010C5A0
:101FE00040FF51D08D2C25D0C2510501075D0CE377
:101FF00008E106510001C15DD8A002D0050104D05E
:10200000050110C540FF13D009510001C25D0CE36A
:1020100008E1C1510501085DD8A002D0000104D03B
:1020200000010EC540FF02D012C540FF05012CD0B3
:1020300000018D50020825E1C2510501075D0CE346
:1020400008E106510001C15DD8A002D0050104D00D
:1020500005010CC540FF13D009510001C25D0CE31E
:1020600008E1C1510501085DD8A002D0000104D0EB
:1020700000010AC540FF02D012C540FF050104D08F
:10208000000112C540FF0501000105EF11F08D2C84
:1020900001D004D08D500208D8A4BAD0C92BD8B42E
:1020A000CA2BCA51040830E2FF0A03E1C951DC0817
:1020B0002BE2A09C8D6A020E0501056F0001C2692A
:1020C000C1690401F985010E0001852506012C6F07
:1020D000000E0001862106012D6F000E00018721F0
:1020E00006012E6F000E0001882106012F6F336F4D
:1020F0002EC632F62DC631F62CC630F6A00E346F41
:10210000000101EC0CF07ED08D2C28D0C25303E1ED
:10211000C1511F0805E2200EC15F000EC25B02D054
:10212000C26BC16B05010551160801E115D0000114
:10213000C251C45D10E303E1C151C35D0CE3C3535D
:1021400002E1C45308E0A09C8D6AA50E06012C6F25
:10215000000115EC04F0050156D000018D50020875
:1021600051E1200EC127000EC223C2517F0808E2B0
:10217000FF0A03E1C151000803E2800EC26FC16B88
:1021800005010551160801E13ED00001C451C25DB0
:1021900039E303E1C351C15D35E3C35303E1C451E6
:1021A000800830E0A09C8D6A05010551100807E009
:1021B000A50E06012C6F000115EC04F00501055178
:1021C000100821E1030E0001852506012C6F000E89
:1021D0000001862106012D6F000E000187210601F6
:1021E0002E6F000E0001882106012F6F336F2EC65F
:1021F00032F62DC631F62CC630F6320E346F0001A1
:1022000001EC0CF005010001A5D68D5201E17A9098
:102210007B90AFEF00F003019C3D02D04DD04CD03D
:102220009C51050DF3500501FA6BF96F040EF92569
:10223000016E000EFA21036E0150830FE96E030E4A
:102240000320EA6EEFCFF8F503019C51050DF35022
:102250000501FA6BF96F040EF925016E000EFA21E3
:10226000036E0150830FE96E030E0320EA6EEF6ADE
:1022700003019C51050DF3500501FA6BF96F830EB4
:10228000F925E96E030EFA21EA6EEE52EE52EC6A7F
:10229000ED52EF6AED52EF6AED52EF6A03019C07CF
:1022A000196AF2BE198EF29EF8C52CF6000115ECE3
:1022B00004F019BEF28E0301000193EF17F00166DE
:1022C00003D0026602D007D0022A00C0EEFF012E22
:1022D000FCD7022EFAD712000401F73D01D08BD0B3
:1022E0000601036B03510401F75DD8A084D00601F9
:1022F0000351080DF350066B056F050E0525016EA1
:10230000000E0621036E0150A70FE96E040E032094
:10231000EA6EECCF06F6ED52EFCF05F60151055D02
:1023200067E10251065D64E103C604F60451080842
:1023300043E30351080DF350036AA70F016E040E27
:10234000032201C005F603C006F6010E0325080DA1
:10235000F350036AA70FE96E040E0320EA6EEE52F3
:10236000EE52EE52EE52EE52EE52ECCF0EF6ED522F
:10237000EFCF0DF6ED52EFCF0CF6ED52EFCF0BF69F
:10238000ED52EFCF0AF6ED52EFCF09F6ED52EFCF57
:1023900008F6ED52EFCF07F606C6EAFF01C0E9FFE7
:1023A00008C6E2FF07C6E1FF020E016EE6CFEEFFB0
:1023B000012EFCD7042BBAD70401F751080DF350B6
:1023C000036AA70F016E040E032201C005F6060181
:1023D00003C006F603C0EAFF01C0E9FF006A026A13
:1023E000020E016E00016BDF0401F70704D0060145
:1023F000032B78D70401000178EF14F0050E0301D8
:10240000536F090E060108250301546F040E556F22
:10241000F90E566F810E576F64C358F3020E596F51
:102420005A6F5B6B5C6B5D6908C65EF30201F36B10
:10243000F46BFC0EF56F120EF66F00011200060130
:102440000B6B0A6B66CF0DF60C918AB60C81C280BD
:10245000000E016EC250830B0110C26E082D03D016
:10246000F00E66168A96096B0951030809E3C282C9
:10247000C2B2FED7C3500A27C4500B23092BF4D78E
:102480008A960CB18A860DC666FFC2900AC601F014
:102490000BC602F000011200030E0601156F530E69
:1024A000146F0C0E166F020E186FF30E176F5EC3CB
:1024B00019F6000172EC07F00601086B08510208DA
:1024C00017E30001D3EC08F001C009F6C70E0601BE
:1024D000196F0001A2EC04F00601095302E0F2A416
:1024E000FCD77EA002D002D001D002D0082BE6D7C4
:1024F00000011200120E0601086F00017FDF04C602
:10250000F7F2020105C6F8F2020103C6F9F2910ED4
:10251000FA6F95C0FBF2020196C0FCF20201A7C05F
:10252000FDF205C5FEF20601086B000188DF02C05E
:1025300007F601C006F606C6FFF2020107C600F361
:102540000301010E0601086F000179DF02C007F6E2
:1025500001C006F606C601F3030107C602F3030134
:10256000CFC003F36DC304F3000196DF4DEF15F008
:10257000D8B204D0060EEA6E1E0EE96E006A016A39
:10258000026A036A06011E6B1F6B206B216B1D51D3
:102590001C111B111A112CE0200E226FD890163737
:1025A0001737183719371E371F37203721371D5176
:1025B000215D08E11C51205D05E11B511F5D02E119
:1025C0001A511E5D0FE31A511E5F1B51D8A01B3D0F
:1025D0001F5F1C51D8A01C3D205F1D51D8A01D3D80
:1025E000215FD8800036013602360336222FD6D737
:1025F0001EC6EFFF1FC6ECFF20C6ECFF21C6ECFF96
:102600000001120009C610F608C611F60601156B86
:10261000146B09C613F608C612F6D892990E196FF4
:10262000186F176F9A0E166F15C61DF614C61CF696
:1026300009C61BF608C61AF600019ADF03C00DF69C
:1026400002C00CF601C00BF600C00AF60DC60FF66C
:102650000CC60EF606010BAF03D00E2BD8B40F2B11
:102660000EC601F00FC602F00001B6EF13F01C0E0B
:102670000601086F0001C2DE04C6F7F2020105C6BA
:10268000F8F2020103C6F9F2920EFA6F95C0FBF25E
:10269000020196C0FCF20201C1C0FDF20201C2C0FB
:1026A000FEF202010001C7350601086F0001C835BE
:1026B0000601096F0837093708370937083709371E
:1026C000F00E081708C6FFF202010001C735060127
:1026D000086F0001C8350601096F08370937083748
:1026E000093708370937F00E081709C600F3030148
:1026F0000001C5350601086F0001C6350601096FE6
:10270000083709370837093708370937F00E08172F
:1027100008C601F303010001C5350601086F000179
:10272000C6350601096F08370937083709370837F2
:102730000937F00E081709C602F30301CBC003F3F3
:102740000301CCC004F30301CDC005F30301CEC0E7
:1027500006F30301D0C007F30301D1C008F303015E
:10276000D3C009F6D2C008F600014CD702C007F664
:1027700001C006F606C609F3030107C60AF3030102
:10278000D4C00BF30301D5C00CF30301D6C00DF385
:102790000301D7C00EF3030100017EDE4DEF15F0FB
:1027A000120E0601086F000129DE04C6F7F20201CD
:1027B00005C6F8F2020103C6F9F2940EFA6F95C04D
:1027C000FBF2020196C0FCF20201A7C0FDF285C037
:1027D000FEF2020186C0FFF2020187C000F303018E
:1027E00088C001F303014EC002F3130E036FE30E22
:1027F000046F000151DE4DEF15F0170E0601086F52
:102800000001FCDD04C6F7F2020105C6F8F2020180
:1028100003C6F9F2960EFA6F95C0FBF2020196C05C
:10282000FCF20201000138DE4DEF15F00C0E06013E
:10283000086F0001E3DD04C6F7F2020105C6F8F2F5
:10284000020103C6F9F2980EFA6F95C0FBF202017D
:1028500096C0FCF202014BC0FDF24CC0FEF200013A
:102860001BDE4DEF15F00E0E0601086F0001C6DDF0
:1028700004C6F7F2020105C6F8F2020103C6F9F236
:10288000A00EFA6F95C0FBF2020196C0FCF20201A5
:10289000F8C4FDF20201F9C4FEF20201FAC4FFF22B
:1028A0000201FBC400F303010001F6DD4DEF15F05A
:1028B0000401F73D02D0BED1BDD1F751080DF35050
:1028C0000601026B016F070E0125016E000E022149
:1028D000036E0150A70FE96E040E0320EA6EEF505D
:1028E000020810E266C302F665C301F60001F4D4E3
:1028F0000401F881A00E0601146F000113EC06F02C
:1029000098D106010401F751080DF3500601026B3E
:10291000016F040E0125016E000E0221036E0150AD
:10292000A70FE96E040E0320EA6EEF50910A000132
:102930000DE0030A27E0060A41E0020A5BE00E0A06
:10294000D8B474D0380AD8B48DD0A7D00401F751C8
:10295000080DF3500601026B016F050E0125016E93
:10296000000E0221036E0150A70FE96E040E032032
:10297000EA6EECCF05F6ED52EFCF04F6036B0001E3
:10298000B9D58BD00401F751080DF3500601026B45
:10299000016F050E0125016E000E0221036E01502C
:1029A000A70FE96E040E0320EA6EECCF05F6ED5298
:1029B000EFCF04F6036B00015AD66FD00401F75134
:1029C000080DF3500601026B016F050E0125016E23
:1029D000000E0221036E0150A70FE96E040E0320C2
:1029E000EA6EECCF05F6ED52EFCF04F6036B000173
:1029F000D7D653D00401F751080DF3500601026BEE
:102A0000016F050E0125016E000E0221036E0150BB
:102A1000A70FE96E040E0320EA6EECCF05F6ED5227
:102A2000EFCF04F6036B0001E8D637D00401F7516D
:102A3000080DF3500601026B016F050E0125016EB2
:102A4000000E0221036E0150A70FE96E040E032051
:102A5000EA6EECCF05F6ED52EFCF04F6036B000102
:102A6000E5D61BD00401F751080DF3500601026BA7
:102A7000016F050E0125016E000E0221036E01504B
:102A8000A70FE96E040E0320EA6EECCF05F6ED52B7
:102A9000EFCF04F6036B0001E6D60401F751080DF1
:102AA000F3500601026B016F070E0125016E000E47
:102AB0000221036E0150A70FE96E040E0320EA6E97
:102AC000EF2A0401F751080DF3500601026B016F64
:102AD000A70E0125E96E040E0221EA6E3C0EEF24DA
:102AE000006E000EEC20016E000EEC20026E000E57
:102AF000EC20ED52ED52ED5200C0EFFF01C0ECFFB3
:102B000002C0ECFFEC6EF7C4F8F50501F853D8B439
:102B10008FD0F851080DF3500601026B016FA70E1C
:102B20000125E96E040E0221EA6EEFCF03F6ECCF29
:102B300004F6ECCF05F6ECCF06F6010E0501F85DC4
:102B4000080DF3500601086B076FA70E0725E96E05
:102B5000040E0821EA6EEFCF00F0ECCF01F0ECCFCD
:102B600002F0ECCF03F00350065D5CE30BE1025092
:102B7000055D58E307E10150045D54E303E10351AF
:102B8000005C50E20501F851080DF350036AA70FED
:102B9000016E040E0322060103C0E2FF01C0E1FF43
:102BA000E6CFF9F5E6CFFAF50501F851080DF35037
:102BB000036AA70F016E040E032201C001F603C0D1
:102BC00002F6010E0501F85D080DF350036AA70F28
:102BD000016E040E032201C003F6060103C004F6D1
:102BE00002C6EAFF01C6E9FF03C0E2FF01C0E1FF40
:102BF000020E016EE6CFEEFF012EFCD7010E05019D
:102C0000F85D080DF350036AA70F016E040E03224E
:102C1000060103C0EAFF01C0E9FFF9C5EEFFFAC5EE
:102C2000EEFF03D0040106D006010501F8076ED7B8
:102C3000000104010001D1EF17F00401293D02D089
:102C400000D1FFD029510E0DF3500501F96BF86F3B
:102C50009D0EF825E96E030EF921EA6E0068016801
:102C60000268036800C0EFFF01C0ECFF02C0ECFF88
:102C700003C0ECFF040129510E0DF3500501F96B5F
:102C8000F86F040EF825016E000EF921036E015055
:102C90009D0FE96E030E0320EA6EEFCF2AF4ECCF0E
:102CA0002BF4ECCF2CF4ECCF2DF4040129510E0DB4
:102CB000F3500501F96BF86F040EF825016E000E54
:102CC000F921036E01509D0FE96E030E0320EA6E99
:102CD000EE52EE52EC6AED52EF6AED52EF6AED52AF
:102CE000EF6A040129510E0DF3500501F96BF86FDD
:102CF000080EF825016E000EF921036E01509D0F9C
:102D0000E96E030E0320EA6EECCFC4F0ED52EFCF74
:102D1000C3F0040129510E0DF3500501F96BF86F52
:102D2000080EF825016E000EF921036E01509D0F6B
:102D3000E96E030E0320EA6EEC6AED52EF6A030EB1
:102D4000000185250501F86F000E000186210501AF
:102D5000F96F000E000187210501FA6F000E0001D6
:102D600088210501FB6F196AF2BE198EF29EE8CF29
:102D700033F6FAC532F6F9C531F6F8C530F6400E2D
:102D80000601346F000101EC0CF019BEF28E040153
:102D900029510E0DF3500501F96BF86F0A0EF82555
:102DA000016E000EF921036E01509D0FE96E030EB6
:102DB0000320EA6EECCFADF0ED52EFCFACF00401A2
:102DC00029510E0DF3500501F96BF86F0A0EF82525
:102DD000016E000EF921036E01509D0FE96E030E86
:102DE0000320EA6EEC6AED52EF6A040129510E0DE0
:102DF000F3500501F96BF86F0D0EF825016E000E0A
:102E0000F921036E01509D0FE96E030E0320EA6E57
:102E1000EFCFC0F0040129510E0DF3500501F96BFD
:102E2000F86F0D0EF825016E000EF921036E0150AA
:102E30009D0FE96E030E0320EA6E060EEF6E04018D
:102E40002907000146EF18F000680168026803686E
:102E500003C02DF402C02CF401C02BF400C02AF4EE
:102E6000196AF2BE198EF29E3E0E06012C6F000109
:102E700015EC04F019BEF28EAD6BAC6B050EC06F95
:102E800095EF18F0010E8527D8B0862BD8B4872B84
:102E9000D8B4882BA7AD08D0010E8927D8B08A2BCB
:102EA000D8B48B2BD8B48C2B03019C3D01D03DD0E2
:102EB000825113083AE09C51050DF3500501F96B5E
:102EC000F86F830EF825E96E030EF921EA6EEFCF55
:102ED000FAF5ECCFFBF5ECCFFCF5ECCFFDF5FD51B1
:102EE0000001885DD8B002D003011FD01AE10501AE
:102EF000FC510001875DD8B002D0030116D011E16A
:102F00000501FB510001865DD8B002D003010DD050
:102F100008E10501FA510001855DD8B002D0030136
:102F200004D00BEF11F0C0D703010401F73D01D02D
:102F30003DD0F751080DF3500501F96BF86FA70E5E
:102F4000F825E96E040EF921EA6EEFCFFAF5ECCF21
:102F5000FBF5ECCFFCF5ECCFFDF5FD510001885DF4
:102F6000D8B002D0040122D01AE10501FC510001C1
:102F7000875DD8B002D0040119D011E10501FB51E1
:102F80000001865DD8B002D0040110D008E105012F
:102F9000FA510001855DD8B002D0040107D0F09845
:102FA00087D4F088F1980301C0D70401293D01D0EE
:102FB0006FD029510E0DF3500501F96BF86F9D0E7E
:102FC000F825E96E030EF921EA6EEFCFFAF5ECCFA2
:102FD000FBF5ECCFFCF5ECCFFDF5FD5100018C5D70
:102FE000D8B002D0040154D01AE10501FC5100010F
:102FF0008B5DD8B002D004014BD011E10501FB512B
:1030000000018A5DD8B002D0040142D008E1050178
:10301000FA510001895DD8B002D0040139D0050110
:103020000551030802E1020E056F055102082CE06C
:103030000401F98D010E000185250501F86F000ED0
:10304000000186210501F96F000E000187210501AD
:10305000FA6F000E000188210501FB6F196AF2BEAC
:10306000198EF29EE8CF33F6FAC532F6F9C531F67D
:10307000F8C530F6A00E0601346F000101EC0CF02B
:1030800019BEF28E03D005010001D7D504018ED7F9
:103090002D5100018C5D49E311E104012C51000127
:1030A0008B5D43E30BE104012B5100018A5D3DE39D
:1030B00005E104012A510001895D37E3050105514D
:1030C000030802E1020E056F055102082CE004011D
:1030D000F98D010E000185250501F86F000E000134
:1030E00086210501F96F000E000187210501FA6FA5
:1030F000000E000188210501FB6F196AF2BE198ECE
:10310000F29EE8CF33F6FAC532F6F9C531F6F8C5C6
:1031100030F6A00E0601346F000101EC0CF019BE70
:10312000F28E03D0050100018FD6C15309E1C253CD
:1031300007E105010551020802E1030E056F06D003
:1031400005010551030802E1020E056F196AF2BE7E
:10315000198EF29ED40E06012C6F000115EC04F0BE
:1031600019BEF28E85511F0B0501F86FF96BFA6BD2
:10317000FB6BF85337E1F95335E1FA5333E1FB5375
:1031800031E1196AF2BE198EF29EB40E06012C6F5F
:10319000000115EC04F019BEF28E196AF2BE198E08
:1031A000F29EA10E06012C6F000115EC04F019BE71
:1031B000F28E196AF2BE198EF29EA20E06012C6FD3
:1031C000000115EC04F019BEF28E196AF2BE198ED8
:1031D000F29EA30E06012C6F000115EC04F019BE3F
:1031E000F28E05017B92000150EF00F045C547F5D6
:1031F00044C546F556CF45F555CF44F57A92AE51C4
:10320000855D06012C6F0001AF51865906012D6FB7
:103210000001B051875906012E6F0001B151885944
:1032200006012F6F2F5310E12E530EE1050122519D
:1032300006012D5D12E308E12C510501215DD8A0A6
:1032400002D006010AD0060188C0B1F087C0B0F0F4
:1032500086C0AFF085C0AEF00BD005014651445D8D
:103260000001A86F0501475145590001A96F0601EA
:1032700088C0B1F087C0B0F086C0AFF085C0AEF0B6
:103280007A827B94110005010551030804E14B513A
:10329000020801E10DD00551020804E14B51030879
:1032A00001E106D00551030803E14B51030800E09A
:1032B0004BC505F500011200F250C00B05014B6F24
:1032C000F29CF29EF2BEFDD7120ED36E030ED56EA7
:1032D000020EBA6E0F01516F630EBB6E05014B51AA
:1032E000F212000178EF19F0FC6AD286D288E4D796
:1032F000ECEF51F00501643B0F0E641764510908AF
:1033000003E3300E642702D0370E642764C501F052
:10331000000112000F0E050164176451090803E350
:10332000300E642702D0370E642764C501F0000117
:103330001200010E05015425566F000E5521576FDE
:10334000F2CF58F5F29E57C5AAFF56C5A9FFA69C15
:10335000A69EA680A85058BFF28E566FF2CF57F5A2
:10336000F29E55C5AAFF54C5A9FFA69CA69EA6809D
:10337000A85057BFF28E596F56C503F05951016ED0
:103380000350026E0001120005015751036E5651A1
:10339000562BD8B4572B5A6F03C05BF558C55CF554
:1033A000F250006EF29E5BC5AAFF5AC5A9FF5CC52C
:1033B000A8FFA69CA69EA6840F01550EA76EAA0E76
:1033C000A76EA682A6B2FED7A6940050F21259C5E7
:1033D0005AF5F2CF00F0F29E57C5AAFF56C5A9FFD5
:1033E00059C5A8FFA69CA69EA684550EA76EAA0E38
:1033F000A76EA682A6B2FED7A6940050F2120001D4
:103400001200F2CF56F5F29E55C5AAFF54C5A9FF8A
:10341000A69CA69EA680A850050156BFF28E016EFE
:1034200000011200F250006EF29E55C5AAFF54C56D
:10343000A9FF56C5A8FFA69CA69EA6840F01550EFF
:10344000A76EAA0EA76EA682A6B2FED7A6940050BB
:10345000F21200011200030E05015425566F000EF2
:103460005521576FF2CF58F5F29E57C5AAFF56C5A2
:10347000A9FFA69CA69EA680A85058BFF28E566FA4
:10348000020E5425596F000E55215A6FF2CF57F591
:10349000F29E5AC5AAFF59C5A9FFA69CA69EA68062
:1034A000A85057BFF28E596F010E54255A6F000E67
:1034B00055215B6FF2CF5CF5F29E5BC5AAFF5AC542
:1034C000A9FFA69CA69EA680A8505CBFF28E5A6F4C
:1034D000F2CF5BF5F29E55C5AAFF54C5A9FFA69C85
:1034E000A69EA680A8505BBFF28E5D6F56C503F006
:1034F00059C502F05AC501F05DC500F00001120087
:103500000501556B546B000114DF02C04CF501C07E
:103510004BF50501013C09D04C3D07D0576B566B6C
:10352000596B586B000130DF0501556B546B00017E
:1035300000DF02C096F001C095F00501556B020E48
:10354000546F00015EDF01C04EF00501556B020EA5
:10355000546F566B000166DF0501556B040E546F06
:103560000001E7DE02C0C8F001C0C7F00501556BDD
:10357000060E546F0001DDDE02C0C6F001C0C5F0CA
:10358000C851020804E30BE1C751ED0808E2C85135
:10359000080811E2FF0A03E1C751C4080CE2050E56
:1035A000C86FC76B0501576B040E566F050E596F38
:1035B000586B0001E9DEC651020804E30BE1C55176
:1035C000ED0808E2C651080811E2FF0A03E1C551FF
:1035D000C4080CE2050EC66FC56B0501576B040EDF
:1035E000566F050E596F586B0001CEDE0501556B05
:1035F000080E546F00012FDF010E0024CB6F000E68
:103600000120CC6F000E0220CD6F000E0320CE6F84
:103610000501556B0C0E546F00018BDE02C0C2F029
:1036200001C0C1F00501576B0C0E566F59695869FE
:103630000001AADE0EEF52F00501556B0E0E546F1D
:10364000000177DE02C04CF501C04BF505014B3D92
:1036500003D04C3D01D004D04CC507F54BC506F551
:10366000556B100E546F000164DE02C04CF501C0B2
:103670004BF505014B3D03D04C3D01D004D04CC56A
:1036800009F54BC508F5556B120E546F000151DE5C
:1036900002C04CF501C04BF505014B3D03D04C3D3C
:1036A00001D004D04CC50BF54BC50AF5556B140E73
:1036B000546F00013EDE02C04CF501C04BF5050120
:1036C0004B3D03D04C3D01D004D04CC50DF54BC54E
:1036D0000CF5556B160E546F00012BDE02C04CF535
:1036E00001C04BF505014B3D03D04C3D01D004D04A
:1036F0004CC50FF54BC50EF5556B180E546F0001F8
:1037000018DE02C04CF501C04BF505014B3D03D05E
:103710004C3D01D004D04CC511F54BC510F5556B8F
:103720001A0E546F000105DE02C04CF501C04BF5C6
:1037300005014B3D03D04C3D01D004D04CC513F5E1
:103740004BC512F5556B1C0E546F0001F2DD02C023
:103750004CF501C04BF505014B3D03D04C3D01D06C
:1037600004D04CC515F54BC514F5556B1E0E546FA2
:103770000001DFDD02C04CF501C04BF505014B3DFA
:1037800003D04C3D01D004D04CC517F54BC516F500
:10379000556B200E546F0001CCDD02C04CF501C00A
:1037A0004BF505014B3D03D04C3D01D004D04CC539
:1037B00019F54BC518F5556B220E546F0001B9DD94
:1037C00002C04CF501C04BF505014B3D03D04C3D0B
:1037D00001D004D04CC51BF54BC51AF5556B240E12
:1037E000546F0001A6DD02C04CF501C04BF5050188
:1037F0004B3D03D04C3D01D002D04BC51CF5556B61
:10380000260E546F000195DD02C04CF501C04BF54A
:1038100005014B3D03D04C3D01D004D04CC51EF5F5
:103820004BC51DF5556B280E546F000182DD02C09B
:103830004CF501C04BF505014B3D03D04C3D01D08B
:1038400004D04CC520F54BC51FF5556B2A0E546F9F
:1038500000016FDD02C04CF501C04BF505014B3D89
:1038600003D04C3D01D004D04CC522F54BC521F509
:10387000556B2C0E546F00015CDD02C04CF501C08D
:103880004BF505014B3D03D04C3D01D004D04CC558
:1038900024F54BC523F5556B2E0E546F000149DD01
:1038A00002C04CF501C04BF505014B3D03D04C3D2A
:1038B00001D004D04CC526F54BC525F5000110EF0D
:1038C00052F0F29CF29EF2BEFDD7D59E69C5D7FF9D
:1038D00068C5D6FFF294D58EC00EF2121200050113
:1038E0004D6B4C6B320E616E8B8AFE0E696F7A0ED9
:1038F000686F0001E6DFF2A4FED7C280340E016ECD
:10390000C250830B0110C26E05014B6B4B5107086F
:1039100009E3C282C2B2FED7C3504C27C4504D2324
:103920004B2BF4D78B9AC2904D51130807E303E158
:103930004C51870803E30001A7850501120E616E53
:103940000001CDEF20F0050EEA6E640EE96EEF5037
:1039500007E0130E006E002EFED70000EF2EF9D701
:103960001200C69E9E967CC5C9FF020EC6BE05D03B
:103970009EA6FED7000EC5BC010E016E1200A7A1C7
:1039800016D0C580C5B0FED77C0E05017C6F000146
:10399000E8DF05017C6B0001E4DF800E05017A257C
:1039A0007B6F7C6F0001DDDFC584C5B4FED71200DC
:1039B000A7A12AD005017A6B0001E1DFC580C5B05F
:1039C000FED77C0E05017C6F0001CBDF400E0501A8
:1039D0007C6F0001C6DF0501656B65510F0810E3C0
:1039E00064C503F063C5E9FF64C5EAFFEFCF7CF56A
:1039F0000001B7DF0501632BD8B4642B652BEDD72D
:103A0000C584C5B4FED700011200A7A12BD0400E7B
:103A100005017A6F0001B3DFC580C5B0FED77C0E0B
:103A200005017C6F00019DDF400E05017C6F0001E8
:103A300098DF0501656B65510F0810E364C503F05D
:103A400063C5E9FF64C5EAFFEFCF7CF5000189DFBC
:103A50000501632BD8B4642B652BEDD7C584C5B4A1
:103A6000FED7000112008C94140E006E002EFED7BB
:103A700000008C84640E0501646F000164DFC58260
:103A8000C5B2FED7A7917C0E05017C6F000169DFEE
:103A9000015001E1A781A7B104D0C584C5B4FED708
:103AA000FBD105017C6B00015CDF380E05017C6FEA
:103AB000000157DFC584C5B4FED7540E006E002E3A
:103AC000FED700D0C580C5B0FED77C0E05017C6F47
:103AD000000147DF05017C6B000143DF400E05015B
:103AE0007C6F00013EDFC584C5B4FED7540E006E66
:103AF000002EFED700D0C580C5B0FED77C0E0501D4
:103B00007C6F00012EDF400E05017C6F000129DF74
:103B100005017C6B000125DF05017C6B000121DFC5
:103B200005017C6B00011DDF05017C6B000119DFC5
:103B300005017C6B000115DF05017C6B000111DFC5
:103B400005017C6B00010DDF1F0E05017C6F00017C
:103B500008DF05017C6B000104DF05017C6B0001BF
:103B600000DF05017C6B0001FCDE05017C6B0001C0
:103B7000F8DE05017C6B0001F4DE05017C6B0001C1
:103B8000F0DE1F0E05017C6F0001EBDE1F0E05014C
:103B90007C6F0001E6DE05017C6B0001E2DE0501C1
:103BA0007C6B0001DEDE05017C6B0001DADE0501C5
:103BB0007C6B0001D6DE05017C6B0001D2DE1F0E9E
:103BC00005017C6F0001CDDE05017C6B0001C9DEC3
:103BD00005017C6B0001C5DE05017C6B0001C1DEC7
:103BE00005017C6B0001BDDE05017C6B0001B9DEC7
:103BF00005017C6B0001B5DE1F0E05017C6F000125
:103C0000B0DE05017C6B0001ACDE05017C6B0001C0
:103C1000A8DE05017C6B0001A4DE05017C6B0001C0
:103C2000A0DE05017C6B00019CDE1F0E05017C6F90
:103C3000000197DE05017C6B000193DE05017C6BC2
:103C400000018FDE05017C6B00018BDE05017C6BC2
:103C5000000187DE05017C6B000183DE05017C6BC2
:103C600000017FDE1F0E05017C6F00017ADE050179
:103C70007C6B000176DE05017C6B000172DE0501C4
:103C80007C6B00016EDE05017C6B00016ADE0501C4
:103C90007C6B000166DE05017C6B000162DE1F0E9D
:103CA00005017C6F00015DDE1F0E05017C6F0001C8
:103CB00058DE05017C6B000154DE05017C6B0001C0
:103CC00050DE05017C6B00014CDE05017C6B0001C0
:103CD00048DE05017C6B000144DE05017C6B0001C0
:103CE00040DE1F0E05017C6F00013BDE1F0E05014B
:103CF0007C6F000136DE1F0E05017C6F000131DE96
:103D00001F0E05017C6F00012CDE1F0E05017C6F6C
:103D1000000127DE1F0E05017C6F000122DE1F0E51
:103D200005017C6F00011DDE05017C6B000119DEC1
:103D3000C584C5B4FED7C580C5B0FED705017C6B70
:103D400000010FDE380E05017C6F00010ADEC5841C
:103D5000C5B4FED7C584C5B4FED7540E006E002E80
:103D6000FED700D0C580C5B0FED77C0E05017C6FA4
:103D70000001F7DD05017C6B0001F3DD380E050164
:103D80007C6F0001EEDD540E006E002EFED700D0D9
:103D9000390E05017C6F0001E4DD540E006E002E2B
:103DA000FED700D0140E05017C6F0001DADD740E21
:103DB00005017C6F0001D5DD5E0E05017C6F000101
:103DC000D0DD6D0E05017C6F0001CBDD540E006E61
:103DD000002EFED700D00C0E05017C6F0001C1DD66
:103DE000010E05017C6F0001BCDD280E0501646F2A
:103DF0000001A9DD060E05017C6F0001B2DD540E45
:103E0000006E002EFED700D0380E05017C6F000139
:103E1000A8DD540E006E002EFED700D0C584C5B4B8
:103E2000FED7C580C5B0FED77C0E05017C6F0001B2
:103E300098DD05017C6B000194DD380E05017C6F77
:103E400000018FDD180E05017C6F00018ADD200E58
:103E500005017C6F000185DD380E05017C6F0001D6
:103E600080DDC584C5B4FED7EA6A700EE96E000E27
:103E700065EC02F00A000900F550EE6E0009FBE166
:103E80000501646B700E636F000192DD0501646BC8
:103E9000700E636F0001B9DD120005016969D90E6A
:103EA000686F00010EDDC7A002D0F2A4FCD7C7B036
:103EB00004D0C580C5B0FED70ED0A196C69ECB90CB
:103EC000CB92CB96060EC86E280EC66EC78EC79CC8
:103ED000C582C5B2FED7120055C57CF542DD015042
:103EE0000501569101B0568100011200D6DF580E2F
:103EF0000501556F0001F0DF0501556B0001ECDF96
:103F000054C555F5E9DF100E0501556F0001E4DFDA
:103F100054C555F5E1DF600E0501556F0001DCDF8A
:103F200054C555F5D9DF700E0501556F0001D4DF7A
:103F300054C555F5D1DFC584C5B4FED7AEDF580EE4
:103F40000501556F0001C8DF400E0501556F0001E6
:103F5000C3DF050155690001BFDFA00E0501556FE4
:103F60000001BADF050155690001B6DFC584C5B49B
:103F7000FED754C5BAF012000501565306E1575357
:103F800004E1F00E66168A9628D05651900806E194
:103F9000572D04D0F00E66168A861FD08A960C0E16
:103FA000666E656A646A010E636EE70E0F0149175B
:103FB000100E491305015651030B006E003AF00E26
:103FC0000016005066125731596F5631586F5933E9
:103FD00058333F0E591758C567FF57C5B5F056C53A
:103FE000B4F00001120059DF400E0501556F0001C9
:103FF00073DF300E0501556F00016EDF05014C3790
:104000004D374C374D374C374D374C374D37F00E19
:104010004C174DC54EF54DC555F500015DDF4CC53E
:104020004EF54CC555F558DFC584C5B4FED74DC512
:10403000BFF04CC5BEF048EF20F005014B6B00010E
:104040002CDF400E05017C6F00018BDC0150050167
:104050004B27600E7C6F000184DC015005014B276B
:104060007C6B00017EDC015005014B277C6B00015D
:1040700078DC015005014B274B5303E00001A78971
:104080000501C584C5B4FED74D6B4C6B0001ABD7A1
:10409000D7EF20F0F29CF29EF2BEFDD70F01426BEB
:1040A000416BC290436B446B456B476B466B776AC1
:1040B000040E786E796E496B486BC150F00BC16E7F
:1040C000030E386F000E3C6F010E396F000E3A6F11
:1040D0003B6FC068C190C192C194C196040E616EDD
:1040E000F19EAB9EAB98AC9A740E896E180E8A6ED8
:1040F000450E8B6E760E8C6E8D6A8B0E926EF70E61
:10410000936E9A0E946E800E956E9690969296840B
:104110009686D56A8F0ECD6ECC6ACD90CF6ACE6A68
:10412000BA94BC6AB46AB16EB190B36AB26A000E56
:10413000516F000E526F4D6B8F0E4E6F4E91506B44
:104140004F6B4A954C6B030ED56E2C0EBA6E4A6FB0
:10415000630EBB6E4B6FF00EBD1666165D175717DC
:104160005417F26AF16AF06AD08E9E6AA16AA46A54
:104170007B6A7E6A9D6AA06AA36A7A6A7D6A100E6B
:10418000626ECB90CB92CB96060EC86E280EC66E92
:10419000C78EC79C00016FEF1CF065DCBAC054F5F8
:1041A000A5DEB5C057F5B4C056F5E6DE46D78C8619
:1041B0007D0E0501646F0001A3EC1CF012EF52F0BC
:1041C00005014B6B4B5113080AE3036A4B516E0F09
:1041D000E96E030E0320EA6EEF6A4B2BF3D7000162
:1041E00014EF52F005014B6B4B51040828E34B517F
:1041F000050DF3504D6B4C6F040E4C25016E000EF7
:104200004D21036E0150830FE96E030E0320EA6E09
:10421000EF6A4B51050DF3504D6B4C6F830E4C25DF
:10422000E96E030E4D21EA6EEE52EE52EC6AED524B
:10423000EF6AED52EF6AED52EF6A4B2BD5D70001D2
:1042400016EF52F07A92040EEA6EA70EE96E006A3B
:10425000026A500E016E5FEC11F07A9218EF52F084
:10426000886B876B866B856B800E0F01596F586B5F
:104270000B0E576FFC0E4817010E48137B92B46A61
:104280008B0EB16EB36AB26A7B927A8200011AEF2A
:1042900052F00F014D6B8B0E4E6F546B050E546F29
:1042A000F30E4817080E48137B947D927A84000120
:1042B0001CEF52F005016D6B6C6B66CF6FF56E9164
:1042C0008AB66E81C280000E016EC250830B01104F
:1042D000C26E6A2D03D0F00E66168A966B6B6B5118
:1042E000030809E3C282C2B2FED7C3506C27C45090
:1042F0006D236B2BF4D78A966EB18A866FC566FFE5
:10430000C2906CC501F06DC502F0000112000501FC
:104310005A6B596B66CF5CF55B918AB65B81C28044
:10432000300E016EC250830B0110C26E572D03D0A8
:10433000F00E66168A96586B5851020809E3C2823D
:10434000C2B2FED7C3505927C4505A23582BF4D7B2
:104350008A965BB18A865CC566FFC2905AC5BDF07D
:1043600059C5BCF059C501F05AC502F00001120050
:104370004FC534F04EC533F04DC532F04CC531F069
:1043800043EF22F0016A026A006A036A050178516C
:1043900002E1775118E0100E796FD89075377637B3
:1043A000003603367851035C02E17751005C07E385
:1043B0007751005ED8A003067851035ED88001369D
:1043C0000236792FEAD700011200196AF2BE198E5F
:1043D000F29E34C005F633C004F632C003F631C095
:1043E00002F6410E0601096FC60E086F4E0E076FEA
:1043F0006D0E066F00011EEC0DF019BEF28E390E27
:1044000005010024316E300E0120326E000E0220B4
:10441000336E000E0320346E33C000F034C001F060
:10442000026A036A34C04DF533C04CF534C076F5EA
:1044300033C075F57F0E786F77690001A3DF00C088
:1044400001F003C002F044EF22F005016A6B0001A5
:1044500031DF02C04CF501C04BF5000E036A0310BA
:1044600009E10501576B000152DF0150021002E122
:10447000000E01D0010E05014B6F4F6B4E6B4D6B63
:104480004C6F000175D7A1D702C066F301C065F378
:104490004BEF22F0DAD7F092F088F1981EEF52F04D
:1044A00003019C51040803E1000E016E1ED19C2BF8
:1044B0009C51050DF35005015D6B5C6F040E5C258E
:1044C000016E000E5D21036E0150830FE96E030E35
:1044D0000320EA6E5AC5EFFF03019C51050DF3500E
:1044E00005015D6B5C6F830E5C25E96E030E5D213B
:1044F000EA6E56C5EFFF57C5ECFF58C5ECFF59C52E
:10450000ECFF9CC35BF55B53D8B4ECD05B51050D5D
:10451000F3505D6B5C6F830E5C25E96E030E5D21CD
:10452000EA6EEFCF5EF5ECCF5FF5ECCF60F5ECCF48
:1045300061F5010E5B5D050DF350636B626F830ED9
:104540006225E96E030E6321EA6EEFCF00F0ECCF37
:1045500001F0ECCF02F0ECCF03F00350615DD8A086
:10456000BAD00EE10250605DD8A0B5D009E101508B
:104570005F5DD8A0B0D004E15E51005CD8B0ABD094
:104580005B51050DF3505D6B5C6F040E5C25016E95
:10459000000E5D21036E0150830FE96E030E0320B0
:1045A000EA6EEFCF5AF55B51050DF3505D6B5C6F12
:1045B000040E5C25016E000E5D21036E0150830F19
:1045C000016E030E032201C05CF503C05DF5010E10
:1045D0005B5D050DF3505F6B5E6F040E5E25016E33
:1045E000000E5F21036E0150830FE96E030E03205E
:1045F000EA6EEFCF5EF55DC5EAFF5CC5E9FF5EC51B
:10460000EFFF010E5B5D050DF3505D6B5C6F040EFB
:104610005C25016E000E5D21036E0150830FE96E73
:10462000030E0320EA6E5AC5EFFF5B51050DF350F0
:104630005D6B5C6F830E5C25E96E030E5D21EA6E97
:10464000EFCF56F5ECCF57F5ECCF58F5ECCF59F549
:104650005B51050DF3505D6B5C6F830E5C25016E45
:10466000030E5D21036E01C05EF55F6F010E5B5DA1
:10467000050DF350616B606F830E6025E96E030ECC
:104680006121EA6EEFCF00F0ECCF01F0ECCF02F049
:10469000ECCF03F05FC5EAFF5EC5E9FF00C0EFFFA6
:1046A00001C0ECFF02C0ECFF03C0ECFF010E5B5D3C
:1046B000050DF3505D6B5C6F830E5C25E96E030E98
:1046C0005D21EA6E56C5EFFF57C5ECFF58C5ECFFFC
:1046D00059C5ECFF05D0010E016E030106D005019E
:1046E0005B0711D7010E016E0301000112008C98C7
:1046F000FC0E0501696F300E686F000161EC1CF063
:10470000F2A4FED78C887A92060E852505014B6FA0
:10471000000E0001862105014C6F000E000187216B
:1047200005014D6F000E0001882105014E6F596F84
:104730004DC558F54CC557F54BC556F5100E5A6F7B
:104740000001AEDE7A82120003018251130803E1F8
:10475000000E016E5AD0822B036A82516E0FE96EF1
:10476000030E0320EA6E52C5EFFF82C353F5050125
:10477000535348E0036A53516E0FE96E030E032052
:10478000EA6EEFCF54F5010E535D036A6E0FE96ECA
:10479000030E0320EA6EEF50545D2DE02CE3036A14
:1047A00053516E0FE96E030E0320EA6EEFCF52F500
:1047B000036A53516E0F016E030E032203C055F5B9
:1047C000010E535D036A6E0FE96E030E0320EA6E5D
:1047D000EFCF56F555C5EAFF01C0E9FF56C5EFFF1B
:1047E000010E535D036A6E0FE96E030E0320EA6E3D
:1047F00052C5EFFF05D0010E016E030106D0050181
:104800005307B6D7010E016E030100011200F290AA
:10481000F286628862EF52F08E0E006E6EC501F075
:104820006DC502F0036A015209E102C001F0026A9B
:10483000080E005E015202E1006A08D0D89001BE65
:1048400004D0023601360006F9D7019E1200050198
:104850006D51D8B4A5D0796F7151D8B4A1D0795F1A
:1048600005E37F0E7927D8B09BD006D0810E795F03
:10487000D8A096D0D8B494D079C500F0016A026A65
:10488000036A786B6EC577F5778F6FC576F570C55F
:1048900075F5190E796F7451755F0DE2010E765F33
:1048A0000AE2775F08E2785F06E2782B772B762BB7
:1048B0007451752728D07351765F12E2010E775F2D
:1048C0000FE2785F0DE2782B772B735176277451C6
:1048D000752719E3762B17E1772B15E1782B13D089
:1048E00072518009775F0EE2010E785F0BE2782B40
:1048F00072518009772773517627E9E3772BE7E137
:10490000782BE5D70380792F01D00BD0D89075375D
:10491000763777377837D8900336023601367A37CC
:10492000BAD77AA106D0D8900132023203327A3354
:1049300002D0000635E07ABF1ED0D89075377637A2
:10494000773778377451755F07E2010E765F04E2BE
:10495000775F02E2785F1AE37351765F05E2010E3A
:10496000775F02E2785F12E372518009775F03E2BA
:10497000010E785F0BE3032A09E1022A07E1012A0D
:1049800005E1002A0DE00132023203326EC579F5ED
:104990007251791B79AF02D0018E06D0019E04D0EE
:1049A000006A016A026A036A0001120005016D5182
:1049B000B6086D6F036A6EC571F56E8FD8906E3351
:1049C0006F33703303320232013200326D2FF6D76B
:1049D00071AF0BD0001E011E021E031E002AD8B4A8
:1049E000012AD8B4022AD8B4032A0001120053C500
:1049F0006EF552C56DF510DF9A0E0501706F990EB8
:104A00006F6F190E6E6F950E6D6F03C074F502C057
:104A100073F501C072F500C071F5000118DF03C025
:104A200070F502C06FF501C06EF500C06DF5BEDF18
:104A300003C057F502C056F501C055F500C054F546
:104A4000196AF2BE198EF29E57C505F656C504F6D0
:104A500055C503F654C502F60601096B086B030E33
:104A6000076F066900011EEC0DF019BEF28E03C03F
:104A700057F502C056F501C055F500C054F556C5AE
:104A80005DF555C55CF505015D39026E0F0E021628
:104A900002C060F55D510F0B5CC558F5596F5A6B3C
:104AA0005B6B196AF2BE198EF29E5BC505F65AC59C
:104AB00004F659C503F658C502F60601096B086BE2
:104AC000270E076F100E066F00011EEC0DF019BEC9
:104AD000F28E03C057F502C056F501C055F500C06F
:104AE00054F5050155C554F556C555F557C556F548
:104AF000576B573356335533543357335633553337
:104B00005433573356335533543357335633553361
:104B100054330F0E571755C55FF554C55EF5626BDC
:104B200062C503F0616B626B61515E11006E625190
:104B30005F11016E60C502F00001BDEF27F00501B5
:104B40006F517103F3CF01F0F4CF00F07203F35013
:104B5000002670517103F3500020026E0001120014
:104B60005CC56EF55BC56DF557DE9A0E0501706F7D
:104B7000990E6F6F190E6E6F950E6D6F03C074F501
:104B800002C073F501C072F500C071F500015FDE6F
:104B900003C070F502C06FF501C06EF500C06DF581
:104BA00005DF03C064F502C063F501C062F500C013
:104BB00061F5196AF2BE198EF29E64C505F663C5E9
:104BC00004F662C503F661C502F60601096B086BBF
:104BD000030E076F066900011EEC0DF019BEF28E80
:104BE00003C064F502C063F501C062F500C061F561
:104BF00063C56AF562C569F505016A39026E0F0E73
:104C0000021602C05DF56A510F0B69C565F5666F46
:104C1000676B686B196AF2BE198EF29E68C505F65D
:104C200067C504F666C503F665C502F60601096B9D
:104C3000086B030E076FE80E066F00011EEC0DF007
:104C400019BEF28E03C064F502C063F501C062F5BF
:104C500000C061F5050162C561F563C562F564C513
:104C600063F5646B6433633362336133643363339A
:104C70006233613364336333623361336433633388
:104C8000623361330F0E641762C56AF561C569F559
:104C90006AC576F569C575F5786B640E776F0001A6
:104CA000C2EC21F001C05EF505016E6B5EC56DF5CD
:104CB0006EC570F55EC56FF5726B640E716F0001A5
:104CC0003EDF01500501695F02506A5B6AC576F5F7
:104CD00069C575F5786B0A0E776F0001C2EC21F09B
:104CE00001C05FF56AC576F569C575F50501786B94
:104CF0000A0E776F0001C2EC21F000C060F50501DB
:104D00006E6B5D396E6F6D6BF00E6E17706B5EC5FE
:104D100003F0000E6D275E516E23706B5F35026EDF
:104D20007035036E0236033602360336023603361A
:104D3000F00E021602506D2703506E23036A605175
:104D40006D25016E6E51032203C002F000010FEFCA
:104D500027F0A7A116D0C580C5B0FED77C0E0501EF
:104D60007C6F0001B1EC1CF0400E05017C6F00016E
:104D7000B1EC1CF05DC57CF5B1EC1CF0C584C5B48C
:104D8000FED7DCEF26F0A7A117D005015C510F0874
:104D900014E35B5307E15CC57AF50001BFEC1CF03E
:104DA00008D00501400E5C255D6F7A6F0001BFECF5
:104DB0001CF05AC55DF5CDD7050100011200A7A171
:104DC000C8D0050151510F0803E20001C2D005010E
:104DD0005251030802E2030E526F5251030804E1DC
:104DE00051510B0801E252075251020804E151519E
:104DF0000C0801E25207522D04D051510D0801E276
:104E00005207010E6A6F00015AEC21F002C05AF5F8
:104E100001C059F502C05CF501C05BF5A1D602C026
:104E200054F501C053F505015439026E036A0F0EA3
:104E300002160250300F556F596B54510F0B5A6FB9
:104E4000036A300F566F5351F00B596F5A6B5A313A
:104E5000036E5931026E03320232033202320332E0
:104E600002320F0E03160250300F576F53510F0BC3
:104E7000006E0050300F586F5251000A000105E0DB
:104E8000010A0AE0030A15E026D00501565135084B
:104E900001E2552B00011FD005015751350801E2F1
:104EA000562B5651390803E2552B300E566F000130
:104EB00012D005015851350801E2572B57513908D6
:104EC00003E2562B300E576F5651390803E2552B2B
:104ED000300E566F000105015151512B596F55C5C8
:104EE0005AF550C55BF55C6F00014DDF050152536B
:104EF00031E05151512B596F2E0E5A6F50C55BF551
:104F000059C55CF500013FDF05015151512B596F27
:104F100056C55AF550C55BF55C6F000134DF0501DD
:104F2000525101080BE25151512B596F57C55AF597
:104F300050C55BF55C6F000126DF05015251020888
:104F400009E258C55AF550C55BF551C55CF500013D
:104F50001ADF050100011200A7A13DD0010E0501D5
:104F60006A6F00015AEC21F002C051F501C050F502
:104F700002C053F501C052F53AD503C04FF502C047
:104F80004EF501C04DF500C04CF5EA6A700EE96EB1
:104F9000000E76EC02F00A000900F550EE6E0009F2
:104FA000FBE105014B5308E1646B700E636F000178
:104FB000D8EC1CF007D00501646B700E636F000124
:104FC00005EC1DF04BC550F5080E0501516F020EA2
:104FD000526F0001F4DE67EF52F0A7A129D0EA6A10
:104FE000700EE96E000E87EC02F00A000900F55021
:104FF000EE6E0009FBE14EC064F57AEC19F001C0D9
:105000007EF04EC064F58AEC19F001C07FF0050116
:105010004B5308E1646B700E636F0001D8EC1CF019
:1050200007D00501646B700E636F000105EC1DF085
:105030006DEF52F00501636B6351030820E3629842
:10504000E70E936E8A98FC0E696F300E686F000150
:1050500061EC1CF0F2A4FED7F70E936EF286628824
:105060008994FC0E0501696F300E686F000161ECD8
:105070001CF0F2A4FED789840501632BDDD7000163
:105080001200BA94BC6A4BC5BBFF9E92BA84120050
:105090000501576B000187EC21F002C057F501C0F4
:1050A00056F5640E0501565F000E575B57C570F547
:1050B00056C56FF5726B140E716F000140DD02C0B2
:1050C00057F501C056F502C076F501C075F505012A
:1050D000786B640E776F0001C2EC21F002C055F5C9
:1050E000050101C054F555BF05D0555307E1545192
:1050F000060804E3556B070E546F07D055BF05D063
:105100005551000802E2556B546954C501F0000185
:10511000F1EF2AF07A94B1C059F5B0C058F5AFC09C
:1051200057F5AEC056F57A84050156510001855DEC
:1051300005015A6F57510001865905015B6F58519F
:105140000001875905015C6F59510001885905011B
:105150005D6F5D5309E15C5307E122515B5D09E33B
:1051600003E15A51215D05E2000E016E026E40D04E
:105170003CD07A94A9C05AF5A8C05BF55F6B5E6B12
:10518000A9C05DF5A8C05CF5D892196AF2BE198E67
:10519000F29E990E0601196F186F176F9A0E166F0F
:1051A0005FC51DF65EC51CF6A9C01BF6A8C01AF6A1
:1051B0000001B8EC12F019BEF28E03C059F502C01E
:1051C00058F501C057F500C056F57A8459C555F514
:1051D00058C554F5050157AF03D0542BD8B4552BFF
:1051E00054C501F055C502F003D0000E016E026EE9
:1051F000000101EF2BF00401F751090801E183D10F
:1052000005015451A008D8A498D00401FC51F85DC0
:1052100036E1FD51F95D33E1FE51FA5D30E1FF51B8
:10522000FB5D2DE1050100510001855D05015E6F0B
:1052300001510001865905015F6F02510001875934
:105240000501606F0351000188590501616F6153C9
:10525000D8B402D0040113D06053D8B402D00401F2
:105260000ED05F53D8B402D0040109D05E513B0880
:10527000D8B002D0040103D0040145D110D0FBC442
:10528000FFF4FAC4FEF4F9C4FDF4F8C4FCF488C0D9
:1052900003F587C002F586C001F585C000F5F7C4A7
:1052A00055F50501555349E0553D01D046D05551BE
:1052B000080DF3505F6B5E6F040E5E25016E000EED
:1052C0005F21036E0150A70FE96E040E0320EA6E02
:1052D000EF50A00830E15551080DF3505F6B5E6F41
:1052E000050E5E25016E000E5F21036E0150A70FB3
:1052F000E96E040E0320EA6E0301652BD8B4662B19
:1053000066C3ECFFED5265C3EFFF05015551080D73
:10531000F3505F6B5E6F070E5E25016E000E5F211E
:10532000036E0150A70FE96E040E0320EA6EEF6AC8
:105330000401E9D005015507B5D70401F72B030196
:10534000652BD8B4662B0401F751080DF350050105
:105350005F6B5E6FA70E5E25E96E040E5F21EA6E3D
:1053600085C0EFFF86C0ECFF87C0ECFF88C0ECFF74
:105370000401F751080DF35005015F6B5E6F040ED9
:105380005E25016E000E5F21036E0150A70FE96ECE
:10539000040E0320EA6E54C5EFFF0401F751080D17
:1053A000F35005015F6B5E6F050E5E25016E000E0A
:1053B0005F21036E0150A70FE96E040E0320EA6E11
:1053C00066C3ECFFED5265C3EFFF0401F751080D12
:1053D000F35005015F6B5E6F070E5E25016E000ED8
:1053E0005F21036E0150A70FE96E040E0320EA6EE1
:1053F000EF6AF7C455F55553D8B484D05551080D0C
:10540000F3505F6B5E6FA70E5E25E96E040E5F21A1
:10541000EA6EEFCF60F5ECCF61F5ECCF62F5ECCF43
:1054200063F5010E555D080DF350656B646FA70EB3
:105430006425E96E040E6521EA6EEFCF00F0ECCF33
:1054400001F0ECCF02F0ECCF03F00350635D55E3C5
:105450000BE10250625D51E307E10150615D4DE3F4
:1054600003E16051005C49E25551080DF350036AB5
:10547000A70F016E040E032203C0E2FF01C0E1FF8B
:10548000E6CF56F5E6CF57F55551080DF350036AB0
:10549000A70F016E040E032201C05EF503C05FF585
:1054A000010E555D080DF350036AA70F016E040E3F
:1054B000032201C060F503C061F55FC5EAFF5EC568
:1054C000E9FF03C0E2FF01C0E1FF020E016EE6CF7B
:1054D000EEFF012EFCD7010E555D080DF350036A57
:1054E000A70F016E040E032203C0EAFF01C0E9FF0B
:1054F00056C5EEFF57C5EEFF03D0040104D00501E9
:10550000550779D70401000112000501565306E141
:10551000575304E1F00EBD168B8428D056519008E5
:1055200006E1572D04D0F00EBD168B941FD08B943E
:105530000F0EBD6EB76AB66A010EB96EFC0E0F0192
:105540004917020E491305015651030B006E003A2C
:10555000F00E00160050BD125731596F5631586F7A
:10556000593358333F0E591758C5BEFF57C5B3F0CE
:1055700056C5B2F0000112000068016802680368B5
:1055800003C02DF402C02CF401C02BF400C02AF497
:10559000196AF2BE198EF29E3E0E06012C6F0001B2
:1055A00015EC04F019BEF28EAD6BAC6B050EC06F3E
:1055B00012007A92030EEA6E9D0EE96E006A026A8C
:1055C0008C0E016E5FEC11F0040129690001AD6BD6
:1055D000AC6B050EC06F7A821200C051050803E063
:1055E00057D501C0BBF0BBC054F576EC1FF00501E8
:1055F0003F0703E0D4EF2EF002D0010E3F6F000111
:1056000089D502C0ABF001C0AAF0C051F60FD8B0E6
:10561000D3EF2EF00A0FD7EF2EF0AC51AA5D0501A3
:10562000546F0001AD51AB590501556F036E5451D4
:1056300055AF08D0000ED8805455006E000E555559
:10564000036E00504B6F03C04CF54C5303E14B51BC
:10565000310805E20A0E516F050E3F6F22D04C5300
:1056600003E14B51180805E2050E516F060E3F6F1E
:1056700018D04C5303E14B51090805E2040E516F59
:10568000070E3F6F0ED04C5303E14B51040805E267
:10569000020E516F080E3F6F04D0010E516F0A0EBB
:1056A0003F6F0001AD51AB5DD8A079D004E1AA51A4
:1056B000AC5DD8B074D0B451900845E1B52D43D05D
:1056C000B251900807E1B32D05D0AA3D03D0AB3D00
:1056D00001D038D0B25190080CE1B32D0AD00401AA
:1056E000F88B7A92A00E0501546F000184DD7A8256
:1056F00029D0050151510001B2250501546F000E5A
:105700000001B3210501556F00080DE2FF0A03E116
:105710005451900808E2010E576F900E566F000129
:10572000F4DE10D0050151510001B2250501546F7E
:10573000000E0001B3210501556F576F54C556F592
:105740000001E3DE2BD0050151510001B425050114
:10575000546F000E0001B5210501556F00080EE2DF
:10576000FF0A03E15451900809E2010E576F900EB1
:10577000566F0001BCEC1FF011D005015151000122
:10578000B4250501546F000E0001B5210501556FC8
:10579000576F54C556F50001BCEC1FF075D0AB51E6
:1057A000AD5DD8A071D004E1AC51AA5DD8B06CD089
:1057B000B25343E1B35341E1B45307E1B55305E1BB
:1057C000AA5303E1AB5301E137D0B4530CE1B55315
:1057D0000AE10401F8897A92A00E0501546F0001D4
:1057E0000ADD7A8229D0050151510001B45D05011D
:1057F000546F000E0001B5590501556F00080CE209
:10580000FF0A03E15451900807E2576B566B000101
:10581000BCEC1FF011D0050151510001B45D050130
:10582000546F000E0001B5590501556F576F54C5EF
:1058300056F50001BCEC1FF027D0050151510001C5
:10584000B25D0501546F000E0001B3590501556F9B
:1058500000080BE2FF0A03E15451900806E2576B7F
:10586000566B000152DE10D0050151510001B25DAE
:105870000501546F000E0001B3590501556F576FB4
:1058800054C556F5000141DE8ED2AC51AA5D05012A
:10589000546F0001AD51AB590501556F036E545162
:1058A00055AF08D0000ED8805455006E000E5555E7
:1058B000036E00504B6F03C04CF54C5303E14B514A
:1058C000310805E20F0E516F050E3F6F22D04C5389
:1058D00003E14B51180805E20A0E516F050E3F6FA8
:1058E00018D04C5303E14B51090805E2050E516FE6
:1058F000070E3F6F0ED04C5303E14B51040805E2F5
:10590000020E516F080E3F6F04D0010E516F080E4A
:105910003F6F0001AD51AB5D3EE303E1AA51AC5DC9
:105920003AE2B251900807E1B32D05D0AA3D03D069
:10593000AB3D01D02FD0B251900803E1B32D01D07F
:1059400029D0050151510001B2250501546F000E07
:105950000001B3210501556F00080DE2FF0A03E1C4
:105960005451900808E2010E576F900E566F0001D7
:10597000CCDD10D0050151510001B2250501546F55
:10598000000E0001B3210501556F576F54C556F540
:105990000001BBDD45D0AB51AD5D42E303E1AC514D
:1059A000AA5D3EE2B25307E1B35305E1AA5303E116
:1059B000AB5301E135D0B2530CE1B3530AE104011A
:1059C000F8897A92A00E0501546F000114DC7A82E6
:1059D00027D0050151510001B25D0501546F000E41
:1059E0000001B3590501556F00080BE2FF0A03E1FE
:1059F0005451900806E2576B566B000186DD10D0BB
:105A0000050151510001B25D0501546F000E000106
:105A1000B3590501556F576F54C556F5000175DD33
:105A2000C051020825E1B45302E1B55320E0040E51
:105A3000B45D0501546F000E0001B5590501556FA5
:105A400000080AE2FF0A03E15451900805E2000150
:105A5000B56BB46B06D00501040E0001B45F000EF7
:105A6000B55BB5C057F5B4C056F5BCEC1FF02CD0F3
:105A7000C0532AE1040EB4250501546F000E000145
:105A8000B5210501556F00080DE2FF0A03E15451ED
:105A90008F0808E2010E0001B56F900EB46F010E81
:105AA000C06F0CD00001B25305E1B35303E1010E06
:105AB000C06F04D0040EB427000EB523B5C057F54F
:105AC000B4C056F5BCEC1FF06ED1B651B25D050105
:105AD000546F0001B751B3590501556F036E54510E
