:0400000000EF4FF0CE
:0800080077EF00F0000000009A
:100010000000000000000000046ED8CF05F0E0CF23
:1000200006F00001E9CF0CF0EACF07F0E1CF08F0CD
:10003000E2CF09F0D9CF0AF0DACF0BF0F3CF12F00C
:10004000F4CF13F0FACF14F0F5CF15F0F6CF16F089
:10005000F7CF17F000C00EF001C00FF002C010F093
:1000600003C011F0A0AC38EF00F0A1BCE2EF0CF03F
:10007000F0A83EEF00F0F0B27FEF0BF07AA244EF71
:1000800000F07BB257EF16F0A0A64AEF00F0A1B641
:100090005DEF04F0F2A650EF00F0F2B0E5EF03F0F0
:1000A0000EC000F00FC001F010C002F011C003F04C
:1000B0000CC0E9FF07C0EAFF078E08C0E1FF09C0D6
:1000C000E2FF0AC0D9FF0BC0DAFF12C0F3FF13C072
:1000D000F4FF14C0FAFF15C0F5FF16C0F6FF17C0F5
:1000E000F7FF045006C0E0FF05C0D8FF10001A6EED
:1000F000D8CF1BF0E0CF1CF00001E9CF22F0EACF0F
:100100001DF0E1CF1EF0E2CF1FF0D9CF20F0DACF03
:1001100021F0F3CF28F0F4CF29F0FACF2AF0F5CF71
:100120002BF0F6CF2CF0F7CF2DF000C024F001C05B
:1001300025F002C026F003C027F07AA4A3EF00F058
:100140007BB430EF18F07AA0A9EF00F07BB085EF18
:100150000FF0F2A8AFEF00F0F2B200EF04F024C00D
:1001600000F025C001F026C002F027C003F022C035
:10017000E9FF1DC0EAFF1D8E1EC0E1FF1FC0E2FFA8
:1001800020C0D9FF21C0DAFF28C0F3FF29C0F4FF47
:100190002AC0FAFF2BC0F5FF2CC0F6FF2DC0F7FFD9
:1001A0001A501CC0E0FF1BC0D8FF1000BA0FF66E3B
:1001B000010EF7220900F5501200000089111223E8
:1001C0009B322446AD573665BF74488CC19D5AAFEB
:1001D000D3BE6CCAE5DB7EE9F7F8811008019333E2
:1001E0001A22A5562C47B7753E64C99C408DDBBFCB
:1001F00052AEEDDA64CBFFF976E802218B301002C3
:1002000099132667AF763444BD554AADC3BC588EAA
:10021000D19F6EEBE7FA7CC8F5D983310A209112A1
:100220001803A7772E66B5543C45CBBD42ACD99E8A
:10023000508FEFFB66EAFDD874C904428D531661F6
:100240009F702004A9153227BB364CCEC5DF5EED6A
:10025000D7FC6888E1997AABF3BA85520C43977161
:100260001E60A1142805B3373A26CDDE44CFDFFD4A
:1002700056ECE9986089FBBB72AA06638F72144042
:100280009D512225AB343006B9174EEFC7FE5CCC2A
:10029000D5DD6AA9E3B8788AF19B87730E62955021
:1002A0001C41A3352A24B1163807CFFF46EEDDDC0A
:1002B00054CDEBB962A8F99A708B088481951AA77E
:1002C00093B62CC2A5D33EE1B7F04008C919522B12
:1002D000DB3A644EED5F766DFF7C899400859BB7B9
:1002E00012A6ADD224C3BFF136E0C1184809D33BF2
:1002F0005A2AE55E6C4FF77D7E6C0AA583B418869A
:1003000091972EE3A7F23CC0B5D14229CB38500AD1
:10031000D91B666FEF7E744CFD5D8BB502A4999678
:100320001087AFF326E2BDD034C1C3394A28D11AB1
:10033000580BE77F6E6EF55C7C4D0CC685D71EE5CD
:1003400097F42880A1913AA3B3B2444ACD5B566991
:10035000DF78600CE91D722FFB3E8DD604C79FF538
:1003600016E4A9902081BBB332A2C55A4C4BD77971
:100370005E68E11C680DF33F7A2E0EE787F61CC419
:1003800095D52AA1A3B03882B193466BCF7A544851
:10039000DD59622DEB3C700EF91F8FF706E69DD4F8
:1003A00014C5ABB122A0B9923083C77B4E6AD55831
:1003B0005C49E33D6A2CF11E780FF76ACA0FF66EAE
:1003C000030EF7220900F5501200456E7465722085
:1003D0004465657020536C6565700000F76AEC0F2A
:1003E000F66E030EF7220900F55012005265617394
:1003F0006F6E3A2020202020202020200000F76A65
:100400000E0FF66E040EF7220900F550120020536D
:100410006561726368696E67203F3F3F3F2000005F
:10042000F76A300FF66E040EF7220900F55012003D
:100430006E6E6E6E206969692073737320646464E4
:100440000000F76A520FF66E040EF7220900F5500D
:10045000120053573120746F204A6F696E2020209C
:1004600020200000F76A740FF66E040EF7220900D0
:10047000F55012005374726F6E676573743A2020E2
:10048000202020200000F76A960FF66E040EF72257
:100490000900F5501200205365617263682053759E
:1004A0006363657373200000F76AB80FF66E040E7D
:1004B000F7220900F55012004E657874206A6F69C2
:1004C0006E3A2020202020200000F76ADA0FF66E16
:1004D000040EF7220900F5501200202020202020D1
:1004E000202020202020202020200000F76AFC0F60
:1004F000F66E040EF7220900F55012005662617480
:1005000074203D2020202020205620200000F76A63
:100510001E0FF66E050EF7220900F5501200536803
:100520007464776E2043617573653A202020000063
:10053000F76A400FF66E050EF7220900F55012001B
:1005400076202020202020722020202074202020AF
:100550000000F76A620FF66E050EF7220900F550EB
:1005600012006320202020202071202020206120E4
:1005700020200000F76A840FF66E050EF7220900AE
:10058000F55012006D202020202020206E202020F9
:1005900020202A200000F76AA60FF66E050EF7222B
:1005A0000900F550120070202020202020202E204D
:1005B0002020202020200000F76AC80FF66E050ECC
:1005C000F7220900F55012002A2A2A00F76ADC0FE8
:1005D000F66E050EF7220900F55012006272202017
:1005E00020206368202020206D7020200000F76A02
:1005F000FE0FF66E050EF7220900F550120072206C
:1006000020202F20202020766720202E2020000070
:10061000F76A200FF66E060EF7220900F550120059
:1006200073797374656D2073746174652020202064
:100630000000F76A420FF66E060EF7220900F55029
:1006400012005365747570204D616E616765722E7E
:100650002E2E0000F76A640FF66E060EF7220900D0
:10066000F5501200202052656C6561736520535768
:10067000312020200000F76A860FF66E060EF72262
:100680000900F55012004465616C205769746820B8
:100690005061636B65740000F76AA80FF66E060E72
:1006A000F7220900F5501200564C562043616C6940
:1006B00062726174696F6E200000F76ACA0FF66E8D
:1006C000060EF7220900F5501200426567696E694F
:1006D0006E672E2E2E2E2E2E2E2E0000F76AEC0F79
:1006E000F66E060EF7220900F5501200436C6F7388
:1006F00065204343503D2020202020200000F76A41
:100700000E0FF66E070EF7220900F55012004F701B
:10071000656E20434350203D2020202020200000F3
:10072000F76A300FF66E070EF7220900F550120037
:10073000526573657474696E67204D6F746521210D
:100740000000F76A520FF66E070EF7220900F55007
:1007500012004D6F74652069732044656164202028
:1007600020200000F76A740FF66E070EF7220900CA
:10077000F5501200536561726368205374726F6E96
:10078000672031200000F76A960FF66E070EF722F9
:100790000900F5501200536561726368205374724A
:1007A0006F6E672032200000F76AB80FF66E070EF2
:1007B000F7220900F55012002020496E6974204A82
:1007C0006F696E2020202020000081B809D088C0E9
:1007D00090F087C08FF086C08EF085C08DF00DD070
:1007E000906B8F6B8E6B8D6B8451040803E1010E4F
:1007F000846F01D0842B010E836FF29050EF00F0D4
:10080000FF00F292AFEF00F003017E51130801E107
:1008100052D07E2B036A7E516A0FE96E030E0320CD
:10082000EA6E9BC5EFFF7EC39CF505019C5342E039
:10083000036A9C516A0FE96E030E0320EA6EEFCF44
:100840009DF5010E9C5D036A6A0FE96E030E03209D
:10085000EA6EEF509D5D2CE02BE3036A9C516A0F1A
:10086000E96E030E0320EA6EEFCF9BF5036A9C51FD
:100870006A0F016E030E032203C09EF5010E9C5DFC
:10088000036A6A0FE96E030E0320EA6EEFCF9FF54D
:100890009EC5EAFF01C0E9FF9FC5EFFF010E9C5D09
:1008A000036A6A0FE96E030E0320EA6E9BC5EFFF31
:1008B0009C07BCD7030100011200F29CF29EF2BE1D
:1008C000FDD7A196C00E05019B6F00019DDFA3A17E
:1008D00006D08C94150E006E002EFED78C84010E6F
:1008E000FC6EA19650EF00F0F250C00B0501836F33
:1008F000F29CF29EF2BEFDD7D36A070ED56E720E41
:10090000BA6E0F01516F630EBB6E05018351F21277
:10091000000189EF0BF00F015195536BA0C552FFF9
:100920007E9051850001120005019B6BAB8EAB8858
:10093000AC8A010EA06F0001EEDF7EA0FED705019C
:100940009B6B9B51C9082BE3899AD90EA06F0001BC
:10095000E2DF9EBA02D07EA0FCD7898A7EA006D0B4
:10096000AB9EAB98AC9AFC0E016E51D0036A0501A8
:100970009B51240FE96E020E0320EA6EAECFEFFF0B
:10098000036A9B51240FE96E020E0320EA6EEF50BA
:100990007E0803E19B5301E002D09B2BD2D7AB9E94
:1009A000AB98AC9A9B51CA0810E1036A9B51240F83
:1009B000E96E020E0320EA6EEF507E0806E0FF0E9D
:1009C000016E000124D023D005019B51040805E3EA
:1009D000FF0E016E00011BD01AD0020124517E08C7
:1009E0000CE1036A05019B51240FE96E020E0320FE
:1009F000EA6EEF507E0807E00201FE0E016E000174
:100A000006D005D00501010E9B25016E000122EFE5
:100A100009F0ADC5AFF50501B06BAC51AE19B16FC2
:100A2000B26BD890B135026EB235036E025003C07E
:100A3000F7FF0001D6EC00F00900F5CF03F0050147
:100A4000AF19006E0350B019036E00C001F0026EC2
:100A5000000144EF05F00501AA6BA96BAA69A96919
:100A6000A751A8111BE0A6C503F0A551A52BD8B42A
:100A7000A62BE96E03C0EAFFEFCFAEF5AAC5ADF530
:100A8000A9C5ACF50001C5D702C0AAF501C0A9F5FA
:100A90000501A751D8B4A807A707E2D7AAC503F054
:100AA000031EA951FF0A016E03C002F00001E6EF28
:100AB00005F005019D6B9C6BA46B020124517E081F
:100AC0000DE1010E05019B5D036A240FE96E020E24
:100AD0000320EA6EEF507E0805E00201FE0E016E73
:100AE00088D00501A36BD50EA26F010E9B5D036A32
:100AF000240F016E020E032201C0A0F503C0A1F570
:100B0000020E9F6F250E9E6F9F51A15D38E303E19A
:100B1000A0519E5D34E29FC503F09EC5E9FF9FC5CD
:100B2000EAFFEF507D0816E19E2BD8B49F2BA3C59A
:100B3000A6F5A251A22BD8B4A32BA56F9EC5E9FFA1
:100B40009FC5EAFFEF50200AA6C5EAFFA5C5E9FF49
:100B5000EF6E11D0A3C5A6F5A251A22BD8B4A32B3A
:100B60009EC5E9FF9FC5EAFFEFCFA7F5A6C5EAFF3F
:100B7000E96EA7C5EFFF9E2BD8B49F2BC5D7A25116
:100B8000D8B4A307A207A3C503F0A251D8B4A30702
:100B9000A207E96E03C0EAFFEFCF9DF59C6BA2C5EB
:100BA000E9FFA3C5EAFFEF509C27000E9D23D50E59
:100BB000A25D006E000EA35900C0A4F5A66BD50E71
:100BC000A56FA86BA4C5A7F5000145D702C0A6F57F
:100BD00001C0A5F505019C51015C03E19D51A65D95
:100BE00005E0FB0E016E020104D00501A4C501F071
:100BF0000201000127EF09F00401F351090801E1A6
:100C000037D105019B51A0084DE1F3C49CF59C53DD
:100C100049E09C3D01D046D09C51080DF350A66B95
:100C2000A56F040EA525016E000EA621036E0150CE
:100C3000A30FE96E040E0320EA6EEF50A00830E126
:100C40009C51080DF350A66BA56F050EA525016EEE
:100C5000000EA621036E0150A30FE96E040E0320BF
:100C6000EA6E0301612BD8B4622B62C3ECFFED5234
:100C700061C3EFFF05019C51080DF350A66BA56FF2
:100C8000070EA525016E000EA621036E0150A30FCD
:100C9000E96E040E0320EA6EEF6A0401E9D0050153
:100CA0009C07B5D70401F32B0301612BD8B4622B49
:100CB0000401F351080DF3500501A66BA56FA30EB7
:100CC000A525E96E040EA621EA6E85C0EFFF86C059
:100CD000ECFF87C0ECFF88C0ECFF0401F351080D66
:100CE000F3500501A66BA56F040EA525016E000E3D
:100CF000A621036E0150A30FE96E040E0320EA6ED5
:100D00009BC5EFFF0401F351080DF3500501A66BDD
:100D1000A56F050EA525016E000EA621036E0150DC
:100D2000A30FE96E040E0320EA6E62C3ECFFED52DE
:100D300061C3EFFF0401F351080DF3500501A66BE9
:100D4000A56F070EA525016E000EA621036E0150AA
:100D5000A30FE96E040E0320EA6EEF6AF3C49CF55C
:100D60009C53D8B484D09C51080DF350A66BA56F4A
:100D7000A30EA525E96E040EA621EA6EEFCFA7F516
:100D8000ECCFA8F5ECCFA9F5ECCFAAF5010E9C5D50
:100D9000080DF350AC6BAB6FA30EAB25E96E040EE0
:100DA000AC21EA6EEFCF00F0ECCF01F0ECCF02F017
:100DB000ECCF03F00350AA5D55E30BE10250A95DAF
:100DC00051E307E10150A85D4DE303E1A751005C49
:100DD00049E29C51080DF350036AA30F016E040E03
:100DE000032203C0E2FF01C0E1FFE6CF9DF5E6CF9D
:100DF0009EF59C51080DF350036AA30F016E040E7B
:100E0000032201C0A5F503C0A6F5010E9C5D080DE7
:100E1000F350036AA30F016E040E032201C0A7F56D
:100E200003C0A8F5A6C5EAFFA5C5E9FF03C0E2FF18
:100E300001C0E1FF020E016EE6CFEEFF012EFCD7EE
:100E4000010E9C5D080DF350036AA30F016E040EA2
:100E5000032203C0EAFF01C0E9FF9DC5EEFF9EC566
:100E6000EEFF03D0040104D005019C0779D70401EB
:100E700000011200A8C5AAF50501AB6BA751A9197D
:100E8000AC6FAD6BD890AC35026EAD35036E0250D1
:100E900003C0F7FF0001D6EC00F00900F5CF03F026
:100EA0000501AA19006E0350AB19036E00C001F0D2
:100EB000026E000112000501A26BA16BA36BA46B73
:100EC000A56BA269A169A46B9D51A45D15E2A45113
:100ED0009B25E96E000E9C21EA6EEFCFA9F5A2C515
:100EE000A8F5A1C5A7F50001C5DF02C0A2F501C0A4
:100EF000A1F50501A42BE8D7A46BA051A45D15E2D0
:100F0000A4519E25E96E000E9F21EA6EEFCFA9F550
:100F1000A2C5A8F5A1C5A7F50001ACDF02C0A2F5E6
:100F200001C0A1F50501A42BE8D7A11FA21FA56B45
:100F3000A551A52B036A0C0FE96E020E0320EA6E81
:100F40007E0EEF6EA46B9D51A45D4DE2A4519B25D6
:100F5000E96E000E9C21EA6EEF507D0809E0A45175
:100F60009B25E96E000E9C21EA6EEF507E0824E17D
:100F7000A551A52B036A0C0FE96E020E0320EA6E41
:100F80007D0EEF6EA551A52B036A0C0F016E020EAC
:100F9000032201C0A6F503C0A7F5A4519B25E96E65
:100FA000000E9C21EA6EEF50200AA86F03C0EAFFF2
:100FB00001C0E9FFEF6E15D0A551A52B036A0C0FF8
:100FC000016E020E0322A4519B25E96E000E9C21A6
:100FD000EA6EEFCFA8F503C0EAFF01C0E9FFA8C59C
:100FE000EFFFA42BB0D7A46BA051A45D4DE2A45198
:100FF0009E25E96E000E9F21EA6EEF507D0809E004
:10100000A4519E25E96E000E9F21EA6EEF507E08E6
:1010100024E1A551A52B036A0C0FE96E020E0320F3
:10102000EA6E7D0EEF6EA551A52B036A0C0F016EC3
:10103000020E032201C0A6F503C0A7F5A4519E2508
:10104000E96E000E9F21EA6EEF50200AA86F03C0E0
:10105000EAFF01C0E9FFEF6E15D0A551A52B036A89
:101060000C0F016E020E0322A4519E25E96E000EA4
:101070009F21EA6EEFCFA8F503C0EAFF01C0E9FFA8
:10108000A8C5EFFFA42BB0D7A1C5A3F5A3517D0838
:1010900003E0A3517E0816E1A551A52B036A0C0FAE
:1010A000E96E020E0320EA6E7D0EEF6EA551A52BB0
:1010B000036A0C0FE96E020E0320EA6EA351200AA8
:1010C000EF6E0AD0A551A52B036A0C0FE96E020E34
:1010D0000320EA6EA3C5EFFFA2C5A3F5A3517D08C7
:1010E00003E0A3517E0816E1A551A52B036A0C0F5E
:1010F000E96E020E0320EA6E7D0EEF6EA551A52B60
:10110000036A0C0FE96E020E0320EA6EA351200A57
:10111000EF6E0AD0A551A52B036A0C0FE96E020EE3
:101120000320EA6EA3C5EFFFA551A52B036A0C0FA0
:10113000E96E020E0320EA6E7E0EEF6EA5C54EF339
:1011400000011200F250C00B0501A06FF29CF29E4C
:10115000F2BEFDD7D36A070ED56E720EBA6E0F01BE
:10116000516F630EBB6E0501A051F2120001120017
:101170009EA8FED7AD6E1200D3CF9CF5BACF9DF5D9
:10118000BBCF9EF5D5CF9FF5DDDF8C9AAB8EAB88BC
:10119000AC8A010E0501A06F00018BEC04F07EA06B
:1011A000FED705019B6B03014E5105019B5D23E2B8
:1011B000270EA06F00018BEC04F0ACB202D07EA031
:1011C000FCD77EA008D08C8AAB9EAB98AC9AFC0E64
:1011D000016E22D00DD0036A05019B510C0FE96E00
:1011E000020E0320EA6EEFCFA0F5A0510001C0DF90
:1011F00005019B2BD8D7ACA2FED78C8AAB9EAB98AF
:10120000AC9A9CC5D3FF9DC5BAFF9FC5D5FF9EC5AF
:10121000BBFF000E016E000112000501866B879175
:10122000886B896B8D6B8C6B8B6B8A6B916B906B06
:101230008F6B8E6B956B946B936B926B966B0001BF
:1012400094EF04F001C096F596C59BF532D4D5C055
:1012500086F5D7C05EF30501886B862D01D024D0BA
:101260008651020821E0865103081EE086510408D9
:101270001BE08651050818E08651060815E08651E6
:10128000070812E0865108080FE0865109080CE0B3
:1012900086510B0809E086510C0806E086511008BB
:1012A00003E08651110802E1D8C05BF3862D01D01E
:1012B00009D08651020806E08651030803E08651F2
:1012C000040807E1D9C05FF303015B5301E15C85CA
:1012D00005018651010A000133E0030A3AE0010AE0
:1012E000D8B4E5D0070AD8B4EBD0010AD8B41BD1E2
:1012F000020AD8B418D10F0AD8B415D1010AD8B44B
:1013000012D1020AD8B40FD1070AD8B40CD11C0AE2
:10131000D8B409D1010AD8B407D1170AD8B40DD16D
:101320000B0AD8B414D1030AD8B435D1010AD8B401
:1013300038D11D0AD8B468D1930AD8B47BD1A8D1CA
:1013400003015F51060A000103E00E0A02E001D02A
:1013500000D003015F51080A00010DE0040A0EE00D
:10136000010A2EE0030A5AE0010AD8B47BD01F0A12
:10137000D8B49BD09CD0DAC060F399D00501836BC0
:10138000835107081BE3036A8351930F016E000E1C
:10139000032201C09BF503C09CF5036A8351DB0F58
:1013A000E96E000E0320EA6EEFCF9DF59CC5EAFFC3
:1013B00001C0E9FF9DC5EFFF832BE2D7000177D085
:1013C0000501836B835107081BE3036A83519B0F5D
:1013D000016E000E032201C09BF503C09CF5036A59
:1013E0008351DA0FE96E000E0320EA6EEFCF9DF510
:1013F0009CC5EAFF01C0E9FF9DC5EFFF832BE2D743
:10140000E3C066F3E2C065F3E5C085F5E4C084F5AA
:1014100084C564F385C563F3000149D0DAC000F5E3
:10142000A38D05010051050804E00001A39F19D018
:1014300005010001A3BF15D0A38F7A92940E050178
:101440009B6F0001FCEC05F07A82A30E05019B6FF7
:10145000000104EC04F0A20E05019B6F000104ECF6
:1014600004F025D0DDC08DF5DCC08CF5DBC08BF53C
:10147000DAC08AF58AC58CF08BC58BF08CC58AF0F2
:101480008DC589F0E1C091F5E0C090F5DFC08FF522
:10149000DEC08EF50301615306E1625304E190C59D
:1014A00062F391C561F3000102D0E2C069F3030168
:1014B0005F51020A000103E0010A02E001D000D0FE
:1014C00003015F51010A000103E0020A22E02BD070
:1014D0000501836B835107081BE3036A83519B0F4C
:1014E000016E000E032201C09BF503C09CF5036A48
:1014F0008351DA0FE96E000E0320EA6EEFCF9DF5FF
:101500009CC5EAFF01C0E9FF9DC5EFFF832BE2D731
:1015100009D0DBC085F5DAC084F584C564F385C5E0
:1015200063F305010001B4D003015B5304E1020E33
:101530000501006F03010001ABD003015B5304E11F
:10154000030E0501006F03015D870001A1D0DBC020
:101550008DF5DAC08CF5D9C08BF5D8C08AF58AC56F
:101560008CF08BC58BF08CC58AF08DC589F0DFC0FF
:1015700091F5DEC090F5DDC08FF5DCC08EF503017E
:101580006151621104E190C562F391C561F30501F7
:10159000878100017DD0DAC060F3050187810001F9
:1015A00077D0A38DDBC095F5DAC094F5D9C093F55B
:1015B000D8C092F5DCC000F505010051050804E033
:1015C0000001A39F19D005010001A3BF15D0A38F6F
:1015D0007A92940E05019B6F0001FCEC05F07A8273
:1015E000A30E05019B6F000104EC04F0A20E05019F
:1015F0009B6F000104EC04F0050195510001D41328
:1016000005018781000144D0D9C085F5D8C084F593
:1016100084C564F385C563F3DBC066F3DAC065F3A4
:10162000DCC067F3DDC068F303015C8705018781D7
:1016300000012ED0DBC089F5050189515E0820E349
:10164000836B8951835D1BE2036A8351EF0F016E47
:10165000020E032201C09BF503C09CF5036A83516F
:10166000DC0FE96E000E0320EA6EEFCF9DF59CC5FE
:10167000EAFF01C0E9FF9DC5EFFF832BE2D702D04F
:10168000040E886F8781200E9B6F000104EC04F02C
:10169000050187A131D0010E03015E250501976F79
:1016A00088C598F586C599F59A6B050E9C6F990EBD
:1016B0009B6F020E9D6F050E9F6F970E9E6F020E21
:1016C000A06F00015BEC07F00501836B83510208FA
:1016D00013E3000151DD015204E105010DD00AD0F0
:1016E0000001C70E0501A06F00018BEC04F07EA085
:1016F000FED70501832BEAD700018BEF0BF0D3CF88
:101700007FF5BACF80F5BBCF81F5D5CF82F574EFE9
:1017100004F07A9282D57A827FC5D3FF80C5BAFF62
:1017200082C5D5FF81C5BBFFF09250EF00F00301E9
:101730009851040801E116D1982B9851050DF350EA
:101740000501BE6BBD6F040EBD25016E000EBE21EE
:10175000036E01507F0FE96E030E0320EA6EBBC5D6
:10176000EFFF03019851050DF3500501BE6BBD6FEE
:101770007F0EBD25E96E030EBE21EA6EB7C5EFFFF1
:10178000B8C5ECFFB9C5ECFFBAC5ECFF98C3BCF512
:10179000BC53D8B4E6D0BC51050DF350BE6BBD6F41
:1017A0007F0EBD25E96E030EBE21EA6EEFCFBFF5B9
:1017B000ECCFC0F5ECCFC1F5ECCFC2F5010EBC5DAE
:1017C000050DF350C46BC36F7F0EC325E96E030E86
:1017D000C421EA6EEFCF00F0ECCF01F0ECCF02F0C5
:1017E000ECCF03F00350C25DD8A0B9D00EE1025097
:1017F000C15DD8A0B4D009E10150C05DD8A0AFD080
:1018000004E1BF51005CD8B0AAD0BC51050DF35023
:10181000BE6BBD6F040EBD25016E000EBE21036EB2
:1018200001507F0FE96E030E0320EA6EEFCFBBF588
:10183000BC51050DF350BE6BBD6F040EBD25016E8E
:10184000000EBE21036E01507F0F016E030E0322B6
:1018500001C0BDF503C0BEF5010EBC5D050DF35022
:10186000C06BBF6F040EBF25016E000EC021036E5A
:1018700001507F0FE96E030E0320EA6EEFCFBFF534
:10188000BEC5EAFFBDC5E9FFBFC5EFFF010EBC5DE8
:10189000050DF350BE6BBD6F040EBD25016E000E2D
:1018A000BE21036E01507F0FE96E030E0320EA6E26
:1018B000BBC5EFFFBC51050DF350BE6BBD6F7F0E76
:1018C000BD25E96E030EBE21EA6EEFCFB7F5ECCF72
:1018D000B8F5ECCFB9F5ECCFBAF5BC51050DF35026
:1018E000BE6BBD6F7F0EBD25016E030EBE21036E64
:1018F00001C0BFF5C06F010EBC5D050DF350C26B9A
:10190000C16F7F0EC125E96E030EC221EA6EEFCFD3
:1019100000F0ECCF01F0ECCF02F0ECCF03F0C0C54B
:10192000EAFFBFC5E9FF00C0EFFF01C0ECFF02C046
:10193000ECFF03C0ECFF010EBC5D050DF350BE6B68
:10194000BD6F7F0EBD25E96E030EBE21EA6EB7C5E1
:10195000EFFFB8C5ECFFB9C5ECFFBAC5ECFFBC079B
:1019600017D70301000112000501916B926B010E64
:10197000936FDA6AD96A050E966F890E956F050E18
:10198000EA6E8D0EE96E96C5E2FF95C5E1FF93C53F
:1019900094F5D890E550EE02F3509123F450922341
:1019A000942FF7D791C5DEFF92C591F5926BD8B011
:1019B000922B952BD8B4962B932B93510508DFE1EE
:1019C0000001120079ACFCD1CE5005017F6FCFCF62
:1019D00080F5015110082AE1800E0001BE6FBD6B39
:1019E000030E85250501816F000E0001862105018A
:1019F000826F000E000187210501836F000E000138
:101A000088210501846F196AF2BE198EF29EBA6FA1
:101A100083C5B9F582C5B8F581C5B7F5320EBB6F80
:101A2000000185DE19BEF28EBFD1050101511108FA
:101A300029E10001BE6BBD6B030E85250501816F99
:101A4000000E000186210501826F000E0001872132
:101A50000501836F000E000188210501846F196A5A
:101A6000F2BE198EF29EBA6F83C5B9F582C5B8F57C
:101A700081C5B7F5330EBB6F000159DE19BEF28E7A
:101A800093D10501015112086FE1800E0001BE6F74
:101A9000BD6B0501846B836BC6C082F5C5C081F543
:101AA000C3C000F0C4C001F0026A036A03C088F535
:101AB00002C087F5C4C086F5C3C085F584C58CF522
:101AC00083C58BF5C6C08AF5C5C089F503C090F5FE
:101AD00002C08FF5C4C08EF5C3C08DF5000144DF90
:101AE00003C084F502C083F501C082F500C081F512
:101AF00005017F51812780518223000E8323842397
:101B00008431026E8331016E8231006E0232013205
:101B1000003200C0C3F0000101C0C4F0030E8525EF
:101B20000501816F000E000186210501826F000E04
:101B3000000187210501836F000E00018821050146
:101B4000846F196AF2BE198EF29EBA6F83C5B9F519
:101B500082C5B8F581C5B7F5350EBB6F0001E7DD6D
:101B600019BEF28E21D10501015114086EE1000168
:101B7000BE6BBD6B0501846B836BC6C082F5C5C0AF
:101B800081F5C1C000F0C2C001F0026A036A03C05F
:101B900088F502C087F5C2C086F5C1C085F584C549
:101BA0008CF583C58BF5C6C08AF5C5C089F503C021
:101BB00090F502C08FF5C2C08EF5C1C08DF5000151
:101BC000D3DE03C084F502C083F501C082F500C0F6
:101BD00081F505017F51812780518223000E8323E7
:101BE00084238431026E8331016E8231006E0232B1
:101BF0000132003200C0C1F0000101C0C2F0030E8A
:101C000085250501816F000E000186210501826F87
:101C1000000E000187210501836F000E000188215D
:101C20000501846F196AF2BE198EF29EBA6F83C5E0
:101C3000B9F582C5B8F581C5B7F5360EBB6F0001A1
:101C400076DD19BEF28EB0D005010151160828E1EB
:101C5000030E000185250501816F000E000186211C
:101C60000501826F000E000187210501836F000EC0
:101C7000000188210501846F196AF2BE198EF29E57
:101C8000BA6F83C5B9F582C5B8F581C5B7F5400E01
:101C9000BB6F00014CDD19BEF28E020E0501016F13
:101CA0008D2C3FD003510001BE5D37E308E1BD51EB
:101CB0000501025DD8A002D000012FD00001020E64
:101CC0000501016F0001BE69BD690401F585010EC2
:101CD000000185250501816F000E000186210501A7
:101CE000826F000E000187210501836F000E000145
:101CF00088210501846F196AF2BE198EF29EBA6FAF
:101D000083C5B9F582C5B8F581C5B7F5A00EBB6F1F
:101D100000010DDD19BEF28E02D0BE6BBD6B44D04A
:101D200005018D50020841E10001BE510501055D2C
:101D300037E308E104510001BD5DD8A002D00501E0
:101D40002FD00501020E016F0001BE69BD690401BB
:101D5000F585010E000185250501816F000E00014A
:101D600086210501826F000E000187210501836F26
:101D7000000E000188210501846F196AF2BE198ED8
:101D8000F29EBA6F83C5B9F582C5B8F581C5B7F5BE
:101D9000A00EBB6F0001CBDC19BEF28E05D0050191
:101DA000800E0001BE6FBD6B05010F01416B776AAC
:101DB000040E786E796E7A900001CB6B8D6AA19CCF
:101DC000A19C50EF00F0050101C501F000011200D7
:101DD000C6510501135D24E305E10001C55105016C
:101DE000125D1EE30001BE510501035D09E318E128
:101DF00002510001BD5DD8B002D0050111D005012E
:101E000005510001BE5D09E3D8B402D0050108D038
:101E1000BD510501045D04E3000110C540FF71D010
:101E20000001D1DF0150100803E10EC540FF69D069
:101E3000CADF0150110814E1050105510001BE5D22
:101E40000CE308E1BD510501045DD8A002D00001FA
:101E500004D000010AC540FF02D00CC540FF51D09C
:101E60008D2C25D0BE510501035D0CE308E1025124
:101E70000001BD5DD8A002D0050104D005010CC54C
:101E800040FF13D005510001BE5D0CE308E1BD51D8
:101E90000501045DD8A002D0000104D000010AC5EC
:101EA00040FF02D00EC540FF05012CD000018D502F
:101EB000020825E1BE510501035D0CE308E1025172
:101EC0000001BD5DD8A002D0050104D0050108C500
:101ED00040FF13D005510001BE5D0CE308E1BD5188
:101EE0000501045DD8A002D0000104D0000106C5A0
:101EF00040FF02D00EC540FF050104D000010EC511
:101F000040FF0501000133EF10F08D2C01D004D00B
:101F10008D500208D8A4AAD0C52BD8B4C62BC65160
:101F2000040830E2FF0A03E1C551DC082BE2A09C63
:101F30008D6A020E0501016F0001BE69BD690401D1
:101F4000F585010E000185250501B36F000E000126
:101F500086210501B46F000E000187210501B56FD0
:101F6000000E000188210501B66FBA6FB5C5B9F53D
:101F7000B4C5B8F5B3C5B7F5A00EBB6F000197ECBB
:101F80000BF06ED08D2C22D0BE5303E1BD511F0843
:101F900005E2200EBD5F000EBE5B02D0BE6BBD6BC6
:101FA00005010151160801E10FD00001BE51C05DCD
:101FB0000AE303E1BD51BF5D06E3BF5302E1C05335
:101FC00002E0A09C8D6A05014CD000018D500208F2
:101FD00047E1200EBD27000EBE23BE517F0808E258
:101FE000FF0A03E1BD51000803E2800EBE6FBD6B26
:101FF00005010151160801E134D00001C051BE5D58
:102000002FE303E1BF51BD5D2BE3BF5303E1C0519B
:10201000800826E0A09C8D6A05010151100821E18D
:10202000030E000185250501B36F000E0001862116
:102030000501B46F000E000187210501B56F000E88
:10204000000188210501B66FBA6FB5C5B9F5B4C5F1
:10205000B8F5B3C5B7F5320EBB6F000197EC0BF0C6
:1020600005010001B5D68D5201E17A907B90AFEF6A
:1020700000F00301983D02D047D046D09851050D9D
:10208000F3500501816B806F040E8025016E000EF8
:102090008121036E01507F0FE96E030E0320EA6E6B
:1020A000EFCF7FF503019851050DF3500501816BCA
:1020B000806F040E8025016E000E8121036E015099
:1020C0007F0FE96E030E0320EA6EEF6A0301985159
:1020D000050DF3500501816B806F7F0E8025E96E41
:1020E000030E8121EA6EEE52EE52EC6AED52EF6A77
:1020F000ED52EF6AED52EF6A030198077FC59BF539
:10210000000104EC04F003010001A8EF16F00166E1
:1021100003D0026602D007D0022A00C0EEFF012ED3
:10212000FCD7022EFAD712000401F33D01D08BD068
:1021300005018A6B8A510401F35DD8A084D00501A2
:102140008A51080DF3508D6B8C6F050E8C25016E36
:10215000000E8D21036E0150A30FE96E040E0320C3
:10216000EA6EECCF8DF5ED52EFCF8CF588518C5D9A
:1021700067E189518D5D64E18AC58BF58B51080853
:1021800043E38A51080DF350036AA30F016E040E56
:10219000032201C08CF503C08DF5010E8A25080DC0
:1021A000F350036AA30FE96E040E0320EA6EEE52A9
:1021B000EE52EE52EE52EE52EE52ECCF95F5ED525B
:1021C000EFCF94F5ED52EFCF93F5ED52EFCF92F5BF
:1021D000ED52EFCF91F5ED52EFCF90F5ED52EFCFFD
:1021E0008FF5ED52EFCF8EF58DC5EAFF01C0E9FF07
:1021F0008FC5E2FF8EC5E1FF020E016EE6CFEEFF56
:10220000012EFCD78B2BBAD70401F351080DF350E4
:10221000036AA30F016E040E032201C08CF50501B1
:1022200003C08DF503C0EAFF01C0E9FF006A026A3E
:10223000020E016E00016BDF0401F30704D00501FB
:102240008A2B78D704010001A1EF13F0050E0301DA
:102250004F6F090E05018F250301506F040E516F5A
:10226000F90E526F810E536F60C354F3020E556F17
:10227000566F576B586B59698FC55AF30201EF6B54
:10228000F06BFC0EF16F120EF26F000112000501EF
:10229000926B916B66CF94F593918AB69381C280CD
:1022A000000E016EC250830B0110C26E8F2D03D041
:1022B000F00E66168A96906B9051030809E3C2826D
:1022C000C2B2FED7C3509127C4509223902BF4D7AB
:1022D0008A9693B18A8694C566FFC29091C501F033
:1022E00092C502F000011200030E05019C6F4F0E13
:1022F0009B6F0C0E9D6F020E9F6FEF0E9E6F5AC369
:10230000A0F500015BEC07F005018F6B8F5102080F
:1023100017E30001BCEC08F001C090F5C70E050101
:10232000A06F00018BEC04F00501905302E0F2A4D1
:10233000FCD77EA002D002D001D002D08F2BE6D7EE
:1023400000011200120E05018F6F00017FDF8BC5A7
:10235000F3F202018CC5F4F202018AC5F5F2910E86
:10236000F66F91C0F7F2020192C0F8F20201A3C029
:10237000F9F201C5FAF205018F6B000188DF02C096
:102380008EF501C08DF58DC5FBF202018EC5FCF204
:102390000201010E05018F6F000179DF02C08EF589
:1023A00001C08DF58DC5FDF202018EC5FEF2020160
:1023B000CBC0FFF269C300F3000196DF76EF14F0A3
:1023C000D8B204D0050EEA6EA50EE96E006A016A65
:1023D000026A036A0501A56BA66BA76BA86BA451E3
:1023E000A311A211A1112CE0200EA96FD8909D3746
:1023F0009E379F37A037A537A637A737A837A451F0
:10240000A85D08E1A351A75D05E1A251A65D02E127
:10241000A151A55D0FE3A151A55FA251D8A0A23D96
:10242000A65FA351D8A0A33DA75FA451D8A0A43D07
:10243000A85FD8800036013602360336A92FD6D7DA
:10244000A5C5EFFFA6C5ECFFA7C5ECFFA8C5ECFF2F
:102450000001120090C597F58FC598F505019C6B9A
:102460009B6B90C59AF58FC599F5D892990EA06F80
:102470009F6F9E6F9A0E9D6F9CC5A4F59BC5A3F59B
:1024800090C5A2F58FC5A1F500019ADF03C094F5B0
:1024900002C093F501C092F500C091F594C596F580
:1024A00093C595F5050192AF03D0952BD8B4962B23
:1024B00095C501F096C502F00001DEEF12F01C0E8A
:1024C00005018F6F0001C2DE8BC5F3F202018CC5DE
:1024D000F4F202018AC5F5F2920EF66F91C0F7F29E
:1024E000020192C0F8F20201BDC0F9F20201BEC0C1
:1024F000FAF202010001C33505018F6F0001C435F6
:102500000501906F8F3790378F3790378F3790371F
:10251000F00E8F178FC5FBF202010001C3350501D4
:102520008F6F0001C4350501906F8F3790378F375B
:1025300090378F379037F00E8F1790C5FCF202015D
:102540000001C13505018F6F0001C2350501906F93
:102550008F3790378F3790378F379037F00E8F1730
:102560008FC5FDF202010001C13505018F6F000129
:10257000C2350501906F8F3790378F3790378F377F
:102580009037F00E8F1790C5FEF20201C7C0FFF220
:102590000201C8C000F30301C9C001F30301CAC0AE
:1025A00002F30301CCC003F30301CDC004F3030124
:1025B000CFC090F5CEC08FF500014CD702C08EF58C
:1025C00001C08DF58DC505F303018EC506F303012A
:1025D000D0C007F30301D1C008F30301D2C009F34F
:1025E0000301D3C00AF3030100017EDE76EF14F08D
:1025F000120E05018F6F000129DE8BC5F3F2020177
:102600008CC5F4F202018AC5F5F2940EF66F91C002
:10261000F7F2020192C0F8F20201A3C0F9F285C0FC
:10262000FAF2020186C0FBF2020187C0FCF202014D
:1026300088C0FDF202014EC0FEF2120EFF6FE30EE3
:102640000301006F000150DE76EF14F0170E050154
:102650008F6F0001FBDD8BC5F3F202018CC5F4F234
:1026600002018AC5F5F2960EF66F91C0F7F20201EB
:1026700092C0F8F20201000137DE76EF14F00C0E82
:1026800005018F6F0001E2DD8BC5F3F202018CC5FD
:10269000F4F202018AC5F5F2980EF66F91C0F7F2D6
:1026A000020192C0F8F202014BC0F9F24CC0FAF2FA
:1026B00000011ADE76EF14F00E0E05018F6F000197
:1026C000C5DD8BC5F3F202018CC5F4F202018AC5A7
:1026D000F5F2A00EF66F91C0F7F2020192C0F8F287
:1026E0000201F4C4F9F20201F5C4FAF20201F6C4DF
:1026F000FBF20201F7C4FCF202010001F5DD76EF06
:1027000014F00401F33D02D0B2D1B1D1F351080D60
:10271000F3500501896B886F070E8825016E000E46
:102720008921036E0150A30FE96E040E0320EA6EA7
:10273000EF50020810E262C389F561C388F5000119
:10274000F3D40401F481A00E05019B6F0001FCECA1
:1027500005F08CD105010401F351080DF35005017A
:10276000896B886F040E8825016E000E8921036E27
:102770000150A30FE96E040E0320EA6EEF50910A98
:1027800000010DE0030A27E0060A41E0020A5BE0CF
:102790000E0AD8B474D0380AD8B48DD0A7D00401AA
:1027A000F351080DF3500501896B886F050E8825DC
:1027B000016E000E8921036E0150A30FE96E040E15
:1027C0000320EA6EECCF8CF5ED52EFCF8BF58A6BE0
:1027D0000001B8D58BD00401F351080DF350050169
:1027E000896B886F050E8825016E000E8921036EA6
:1027F0000150A30FE96E040E0320EA6EECCF8CF5B6
:10280000ED52EFCF8BF58A6B000159D66FD00401E2
:10281000F351080DF3500501896B886F050E88256B
:10282000016E000E8921036E0150A30FE96E040EA4
:102830000320EA6EECCF8CF5ED52EFCF8BF58A6B6F
:102840000001D6D653D00401F351080DF350050111
:10285000896B886F050E8825016E000E8921036E35
:102860000150A30FE96E040E0320EA6EECCF8CF545
:10287000ED52EFCF8BF58A6B0001E8D637D004011B
:10288000F351080DF3500501896B886F050E8825FB
:10289000016E000E8921036E0150A30FE96E040E34
:1028A0000320EA6EECCF8CF5ED52EFCF8BF58A6BFF
:1028B0000001E5D61BD00401F351080DF3500501CA
:1028C000896B886F050E8825016E000E8921036EC5
:1028D0000150A30FE96E040E0320EA6EECCF8CF5D5
:1028E000ED52EFCF8BF58A6B0001E6D60401F35170
:1028F000080DF3500501896B886F070E8825016E5E
:10290000000E8921036E0150A30FE96E040E03200F
:10291000EA6EEF2A0401F351080DF3500501896BAB
:10292000886FA30E8825E96E040E8921EA6E3C0E9D
:10293000EF24006E000EEC20016E000EEC20026E03
:10294000000EEC20ED52ED52ED5200C0EFFF01C041
:10295000ECFF02C0ECFFEC6EF3C47FF57F53D8B4FC
:1029600084D07F51080DF350896B886FA30E8825A2
:10297000E96E040E8921EA6EEFCF8AF5ECCF8BF574
:10298000ECCF8CF5ECCF8DF5010E7F5D080DF3508B
:102990008F6B8E6FA30E8E25E96E040E8F21EA6E6B
:1029A000EFCF00F0ECCF01F0ECCF02F0ECCF03F072
:1029B00003508D5D55E30BE102508C5D51E307E15F
:1029C00001508B5D4DE303E18A51005C49E27F5188
:1029D000080DF350036AA30F016E040E032203C017
:1029E000E2FF01C0E1FFE6CF80F5E6CF81F57F5140
:1029F000080DF350036AA30F016E040E032201C0F9
:102A000088F503C089F5010E7F5D080DF350036A58
:102A1000A30F016E040E032201C08AF503C08BF5DB
:102A200089C5EAFF88C5E9FF03C0E2FF01C0E1FFF5
:102A3000020E016EE6CFEEFF012EFCD7010E7F5D88
:102A4000080DF350036AA30F016E040E032203C0A6
:102A5000EAFF01C0E9FF80C5EEFF81C5EEFF03D0AC
:102A6000040105D005017F0779D7000104010001A9
:102A7000E6EF16F00401253D02D0FED0FDD0255131
:102A80000E0DF3500501806B7F6F990E7F25E96E67
:102A9000030E8021EA6E006801680268036800C0C6
:102AA000EFFF01C0ECFF02C0ECFF03C0ECFF04012C
:102AB00025510E0DF3500501806B7F6F040E7F25AD
:102AC000016E000E8021036E0150990FE96E030E16
:102AD0000320EA6EEFCF26F4ECCF27F4ECCF28F4F6
:102AE000ECCF29F4040125510E0DF3500501806B44
:102AF0007F6F040E7F25016E000E8021036E015052
:102B0000990FE96E030E0320EA6EEE52EE52EC6A64
:102B1000ED52EF6AED52EF6AED52EF6A0401255172
:102B20000E0DF3500501806B7F6F080E7F25016E3F
:102B3000000E8021036E0150990FE96E030E0320F1
:102B4000EA6EECCFC0F0ED52EFCFBFF0040125519B
:102B50000E0DF3500501806B7F6F080E7F25016E0F
:102B6000000E8021036E0150990FE96E030E0320C1
:102B7000EA6EEC6AED52EF6A030E0001852505014D
:102B80007F6F000E000186210501806F000E00019D
:102B900087210501816F000E000188210501826FE8
:102BA000196AF2BE198EF29EBA6F81C5B9F580C559
:102BB000B8F57FC5B7F5400EBB6F000197EC0BF081
:102BC00019BEF28E040125510E0DF3500501806BE4
:102BD0007F6F0A0E7F25016E000E8021036E01506B
:102BE000990FE96E030E0320EA6EECCFA9F0ED52C7
:102BF000EFCFA8F0040125510E0DF3500501806BB5
:102C00007F6F0A0E7F25016E000E8021036E01503A
:102C1000990FE96E030E0320EA6EEC6AED52EF6A3B
:102C2000040125510E0DF3500501806B7F6F0D0ED1
:102C30007F25016E000E8021036E0150990FE96E11
:102C4000030E0320EA6EEFCFBCF0040125510E0DF8
:102C5000F3500501806B7F6F0D0E7F25016E000E16
:102C60008021036E0150990FE96E030E0320EA6E76
:102C7000060EEF6E04012507000159EF17F00068FA
:102C800001680268036803C029F402C028F401C087
:102C900027F400C026F43E0E05019B6F000104ECF2
:102CA00004F0A96BA86B050EBC6FA8EF17F0010E1E
:102CB0008527D8B0862BD8B4872BD8B4882BA3AD62
:102CC00008D0010E8927D8B08A2BD8B48B2BD8B462
:102CD0008C2B0301983D01D03DD07E5113083AE082
:102CE0009851050DF3500501806B7F6F7F0E7F2596
:102CF000E96E030E8021EA6EEFCF81F5ECCF82F50D
:102D0000ECCF83F5ECCF84F584510001885DD8B019
:102D100002D003011FD01AE1050183510001875D34
:102D2000D8B002D0030116D011E105018251000193
:102D3000865DD8B002D003010DD008E105018151B4
:102D40000001855DD8B002D0030104D039EF10F046
:102D5000C0D703010401F33D01D03DD0F351080D6C
:102D6000F3500501806B7F6FA30E7F25E96E040E83
:102D70008021EA6EEFCF81F5ECCF82F5ECCF83F5C1
:102D8000ECCF84F584510001885DD8B002D00401F5
:102D900022D01AE1050183510001875DD8B002D02D
:102DA000040119D011E1050182510001865DD8B0FE
:102DB00002D0040110D008E1050181510001855DB8
:102DC000D8B002D0040107D0F0989BD4F088F198D5
:102DD0000301C0D70401253D01D06DD025510E0D52
:102DE000F3500501806B7F6F990E7F25E96E030E0E
:102DF0008021EA6EEFCF81F5ECCF82F5ECCF83F541
:102E0000ECCF84F5845100018C5DD8B002D0040170
:102E100052D01AE10501835100018B5DD8B002D078
:102E2000040149D011E10501825100018A5DD8B049
:102E300002D0040140D008E1050181510001895D03
:102E4000D8B002D0040137D005010151030802E1D6
:102E5000020E016F015102082AE00401F58D010EF6
:102E60000001852505017F6F000E00018621050107
:102E7000806F000E000187210501816F000E0001A7
:102E800088210501826F196AF2BE198EF29EBA6F0F
:102E900081C5B9F580C5B8F57FC5B7F5A00EBB6F84
:102EA000000197EC0BF019BEF28E03D00501000172
:102EB000E1D5040190D7295100018C5D49E311E16E
:102EC0000401285100018B5D43E30BE1040127510C
:102ED00000018A5D3DE305E1040126510001895DA1
:102EE00037E305010151030804E10151020801E043
:102EF000000E015102082AE00401F58D010E0001C7
:102F0000852505017F6F000E000186210501806F78
:102F1000000E000187210501816F000E000188214C
:102F20000501826F196AF2BE198EF29EBA6F81C5D1
:102F3000B9F580C5B8F57FC5B7F5A00EBB6F000128
:102F400097EC0BF019BEF28E03D00501000197D665
:102F5000BD5302E1BE5304E0BD3D2FD0BE3D2DD098
:102F60008D522BE1AA51855D05017F6F0001AB51A8
:102F700086590501806F0001AC5187590501816FA9
:102F80000001AD5188590501826F82530FE18153D1
:102F90000DE11E51805DD8B002D000010ED006E1D7
:102FA0007F511D5DD8A002D0000107D00151020859
:102FB00002E1030E016F24D00001BC51050802E0BC
:102FC000BC3D18D08D5216E1B251AE5D13E1B35144
:102FD000AF5D10E1B451B05D0DE1B551B15D0AE1F5
:102FE000B751B65D07E105010151020802E1030E88
:102FF000016F06D005010151030802E1020E016FC5
:10300000D40E9B6F000104EC04F085511F0B0501E9
:103010007F6F806B816B826B7F531EE180531CE15D
:1030200081531AE1825318E1B40E9B6F000104EC46
:1030300004F0A10E05019B6F000104EC04F0A20E48
:1030400005019B6F000104EC04F0A30E05019B6FCA
:10305000000104EC04F005017B92000150EF00F048
:1030600041C543F540C542F556CF41F555CF40F532
:103070007A92AA51855D0501B36F0001AB51865963
:103080000501B46F0001AC5187590501B56F00010E
:10309000AD5188590501B66FB65309E1B55307E143
:1030A0001E51B45D0DE303E1B3511D5D09E288C01B
:1030B000ADF087C0ACF086C0ABF085C0AAF00AD0F6
:1030C0004251405D0001A46F050143514159000187
:1030D000A56F050188C0ADF087C0ACF086C0ABF02D
:1030E00085C0AAF07A827B94110005010151030882
:1030F00004E14751020801E10DD00151020804E149
:103100004751030801E106D00151030803E147518B
:10311000030800E047C501F500011200F250C00BA2
:103120000501476FF29CF29EF2BEFDD7120ED36EE0
:10313000030ED56E020EBA6E0F01516F630EBB6E99
:1031400005014751F2120001AAEF18F0FC6AD2867D
:10315000D288E4D761EF50F00501603B0F0E601795
:103160006051090803E3300E602702D0370E602754
:1031700060C501F0000112000F0E050160176051DB
:10318000090803E3300E602702D0370E602760C5C0
:1031900001F000011200010E05015025526F000ED2
:1031A0005121536FF2CF54F5F29E53C5AAFF52C579
:1031B000A9FFA69CA69EA680A85054BFF28E526F6F
:1031C000F2CF53F5F29E51C5AAFF50C5A9FFA69CA8
:1031D000A69EA680A85053BFF28E556F52C503F02D
:1031E0005551016E0350026E00011200050153514A
:1031F000036E5251522BD8B4532B566F03C057F560
:1032000054C558F5F250006EF29E57C5AAFF56C538
:10321000A9FF58C5A8FFA69CA69EA6840F01550E1F
:10322000A76EAA0EA76EA682A6B2FED7A6940050DD
:10323000F21255C556F5F2CF00F0F29E53C5AAFF23
:1032400052C5A9FF55C5A8FFA69CA69EA684550EEB
:10325000A76EAA0EA76EA682A6B2FED7A6940050AD
:10326000F21200011200F2CF52F5F29E51C5AAFFF0
:1032700050C5A9FFA69CA69EA680A850050152BFD6
:10328000F28E016E00011200F250006EF29E51C5E6
:10329000AAFF50C5A9FF52C5A8FFA69CA69EA6845A
:1032A0000F01550EA76EAA0EA76EA682A6B2FED774
:1032B000A6940050F21200011200030E05015025E1
:1032C000526F000E5121536FF2CF54F5F29E53C549
:1032D000AAFF52C5A9FFA69CA69EA680A85054BFCF
:1032E000F28E526F020E5025556F000E5121566F0F
:1032F000F2CF53F5F29E56C5AAFF55C5A9FFA69C6D
:10330000A69EA680A85053BFF28E556F010E502581
:10331000566F000E5121576FF2CF58F5F29E57C5E8
:10332000AAFF56C5A9FFA69CA69EA680A85058BF76
:10333000F28E566FF2CF57F5F29E51C5AAFF50C5D7
:10334000A9FFA69CA69EA680A85057BFF28E596FD3
:1033500052C503F055C502F056C501F059C500F03D
:10336000000112000501516B506B000114DF02C017
:1033700048F501C047F50501013C09D0483D07D09B
:10338000536B526B556B546B000130DF0501516B71
:10339000506B000100DF02C092F001C091F0050106
:1033A000516B020E506F00015EDF01C04EF005014F
:1033B000516B020E506F526B000166DF0501516BBD
:1033C000040E506F0001E7DE02C0C4F001C0C3F07C
:1033D0000501516B060E506F0001DDDE02C0C2F028
:1033E00001C0C1F00501516B080E506F000165DF8F
:1033F00003C0CAF002C0C9F001C0C8F000C0C7F0E5
:103400000501516B0C0E506F0001C5DE02C0BEF00D
:1034100001C0BDF00501536B0C0E526F5569546924
:103420000001E4DE83EF50F00501516B0E0E506F8A
:103430000001B1DE02C048F501C047F50501473D76
:1034400003D0483D01D004D048C503F547C502F577
:10345000516B100E506F00019EDE02C048F501C096
:1034600047F50501473D03D0483D01D004D048C58C
:1034700005F547C504F5516B120E506F00018BDE48
:1034800002C048F501C047F50501473D03D0483D5E
:1034900001D004D048C507F547C506F5516B140E99
:1034A000506F000178DE02C048F501C047F5050104
:1034B000473D03D0483D01D004D048C509F547C574
:1034C00008F5516B160E506F000165DE02C048F51D
:1034D00001C047F50501473D03D0483D01D004D068
:1034E00048C50BF547C50AF5516B180E506F000122
:1034F00052DE02C048F501C047F50501473D03D043
:10350000483D01D004D048C50DF547C50CF5516BB9
:103510001A0E506F00013FDE02C048F501C047F5AA
:103520000501473D03D0483D01D004D048C50FF503
:1035300047C50EF5516B1C0E506F00012CDE02C00A
:1035400048F501C047F50501473D03D0483D01D08E
:1035500004D048C511F547C510F5516B1E0E506FCC
:10356000000119DE02C048F501C047F50501473DDD
:1035700003D0483D01D004D048C513F547C512F526
:10358000516B200E506F000106DE02C048F501C0ED
:1035900047F50501473D03D0483D01D004D048C55B
:1035A00015F547C514F5516B220E506F0001F3DD80
:1035B00002C048F501C047F50501473D03D0483D2D
:1035C00001D004D048C517F547C516F5516B240E38
:1035D000506F0001E0DD02C048F501C047F505016C
:1035E000473D03D0483D01D002D047C518F5516B87
:1035F000260E506F0001CFDD02C048F501C047F52F
:103600000501473D03D0483D01D004D048C51AF517
:1036100047C519F5516B280E506F0001BCDD02C083
:1036200048F501C047F50501473D03D0483D01D0AD
:1036300004D048C51CF547C51BF5516B2A0E506FC9
:103640000001A9DD02C048F501C047F50501473D6D
:1036500003D0483D01D004D048C51EF547C51DF52F
:10366000516B2C0E506F000196DD02C048F501C071
:1036700047F50501473D03D0483D01D004D048C57A
:1036800020F547C51FF5516B2E0E506F000183DDED
:1036900002C048F501C047F50501473D03D0483D4C
:1036A00001D004D048C522F547C521F5000185EFBA
:1036B00050F0F29CF29EF2BEFDD7D59E65C5D7FFB5
:1036C00064C5D6FFF294D58EC00EF2121200050129
:1036D000496B486B320E616E8B8AFE0E656F7A0EF7
:1036E000646F0001E6DFF2A4FED7C280340E016EE3
:1036F000C250830B0110C26E0501476B475107088A
:1037000009E3C282C2B2FED7C3504827C45049233E
:10371000472BF4D78B9AC2904951130807E303E172
:103720004851870803E30001A3850501120E616E6D
:103730000001C5EF1FF0050EEA6E600EE96EEF5056
:1037400007E0130E006E002EFED70000EF2EF9D713
:103750001200C69E9E9678C5C9FF020EC6BE05D051
:103760009EA6FED7000EC5BC010E016E1200A3A1DD
:1037700016D0C580C5B0FED77C0E0501786F00015C
:10378000E8DF0501786B0001E4DF800E0501762596
:10379000776F786F0001DDDFC584C5B4FED71200F6
:1037A000A3A12AD00501766B0001E1DFC580C5B079
:1037B000FED77C0E0501786F0001CBDF400E0501BE
:1037C000786F0001C6DF0501616B61510F0810E3DE
:1037D00060C503F05FC5E9FF60C5EAFFEFCF78F58C
:1037E0000001B7DF05015F2BD8B4602B612BEDD74B
:1037F000C584C5B4FED700011200A3A12BD0400E92
:103800000501766F0001B3DFC580C5B0FED77C0E21
:103810000501786F00019DDF400E0501786F000102
:1038200098DF0501616B61510F0810E360C503F07B
:103830005FC5E9FF60C5EAFFEFCF78F5000189DFDA
:1038400005015F2BD8B4602B612BEDD7C584C5B4BF
:10385000FED7000112008C94140E006E002EFED7CD
:1038600000008C84640E0501606F000164DFC58276
:10387000C5B2FED7A3917C0E0501786F000169DF08
:10388000015001E1A381A3B104D0C584C5B4FED722
:10389000FBD10501786B00015CDF380E0501786F04
:1038A000000157DFC584C5B4FED7540E006E002E4C
:1038B000FED700D0C580C5B0FED77C0E0501786F5D
:1038C000000147DF0501786B000143DF400E050171
:1038D000786F00013EDFC584C5B4FED7540E006E7C
:1038E000002EFED700D0C580C5B0FED77C0E0501E6
:1038F000786F00012EDF400E0501786F000129DF8F
:103900000501786B000125DF0501786B000121DFDF
:103910000501786B00011DDF0501786B000119DFDF
:103920000501786B000115DF0501786B000111DFDF
:103930000501786B00010DDF1F0E0501786F000196
:1039400008DF0501786B000104DF0501786B0001D9
:1039500000DF0501786B0001FCDE0501786B0001DA
:10396000F8DE0501786B0001F4DE0501786B0001DB
:10397000F0DE1F0E0501786F0001EBDE1F0E050162
:10398000786F0001E6DE0501786B0001E2DE0501DB
:10399000786B0001DEDE0501786B0001DADE0501DF
:1039A000786B0001D6DE0501786B0001D2DE1F0EB8
:1039B0000501786F0001CDDE0501786B0001C9DEDD
:1039C0000501786B0001C5DE0501786B0001C1DEE1
:1039D0000501786B0001BDDE0501786B0001B9DEE1
:1039E0000501786B0001B5DE1F0E0501786F00013F
:1039F000B0DE0501786B0001ACDE0501786B0001DB
:103A0000A8DE0501786B0001A4DE0501786B0001DA
:103A1000A0DE0501786B00019CDE1F0E0501786FAA
:103A2000000197DE0501786B000193DE0501786BDC
:103A300000018FDE0501786B00018BDE0501786BDC
:103A4000000187DE0501786B000183DE0501786BDC
:103A500000017FDE1F0E0501786F00017ADE05018F
:103A6000786B000176DE0501786B000172DE0501DE
:103A7000786B00016EDE0501786B00016ADE0501DE
:103A8000786B000166DE0501786B000162DE1F0EB7
:103A90000501786F00015DDE1F0E0501786F0001E2
:103AA00058DE0501786B000154DE0501786B0001DA
:103AB00050DE0501786B00014CDE0501786B0001DA
:103AC00048DE0501786B000144DE0501786B0001DA
:103AD00040DE1F0E0501786F00013BDE1F0E050161
:103AE000786F000136DE1F0E0501786F000131DEB0
:103AF0001F0E0501786F00012CDE1F0E0501786F87
:103B0000000127DE1F0E0501786F000122DE1F0E67
:103B10000501786F00011DDE0501786B000119DEDB
:103B2000C584C5B4FED7C580C5B0FED70501786B86
:103B300000010FDE380E0501786F00010ADEC58432
:103B4000C5B4FED7C584C5B4FED7540E006E002E92
:103B5000FED700D0C580C5B0FED77C0E0501786FBA
:103B60000001F7DD0501786B0001F3DD380E05017A
:103B7000786F0001EEDD540E006E002EFED700D0EF
:103B8000390E0501786F0001E4DD540E006E002E41
:103B9000FED700D0140E0501786F0001DADD740E37
:103BA0000501786F0001D5DD5E0E0501786F00011B
:103BB000D0DD6D0E0501786F0001CBDD540E006E77
:103BC000002EFED700D00C0E0501786F0001C1DD7C
:103BD000010E0501786F0001BCDD280E0501606F44
:103BE0000001A9DD060E0501786F0001B2DD540E5B
:103BF000006E002EFED700D0380E0501786F000150
:103C0000A8DD540E006E002EFED700D0C584C5B4CA
:103C1000FED7C580C5B0FED77C0E0501786F0001C8
:103C200098DD0501786B000194DD380E0501786F91
:103C300000018FDD180E0501786F00018ADD200E6E
:103C40000501786F000185DD380E0501786F0001F0
:103C500080DDC584C5B4FED7EA6A700EE96E000E39
:103C600065EC02F00A000900F550EE6E0009FBE178
:103C70000501606B700E5F6F000192DD0501606BE6
:103C8000700E5F6F0001B9DD120005016569D90E84
:103C9000646F00010EDDC7A002D0F2A4FCD7C7B04C
:103CA00004D0C580C5B0FED70ED0A196C69ECB90DD
:103CB000CB92CB96060EC86E280EC66EC78EC79CDA
:103CC000C582C5B2FED7120051C578F542DD01505C
:103CD0000501529101B0528100011200D6DF580E49
:103CE0000501516F0001F0DF0501516B0001ECDFB0
:103CF00050C551F5E9DF100E0501516F0001E4DFF9
:103D000050C551F5E1DF600E0501516F0001DCDFA8
:103D100050C551F5D9DF700E0501516F0001D4DF98
:103D200050C551F5D1DFC584C5B4FED7AEDF580EFE
:103D30000501516F0001C8DF400E0501516F000100
:103D4000C3DF050151690001BFDFA00E0501516FFE
:103D50000001BADF050151690001B6DFC584C5B4B1
:103D6000FED750C5B6F012000501525306E1535379
:103D700004E1F00E66168A9628D05251900806E1AA
:103D8000532D04D0F00E66168A861FD08A960C0E2C
:103D9000666E656A646A010E636EE70E0F0149176D
:103DA000100E491305015251030B006E003AF00E3C
:103DB0000016005066125331556F5231546F55330F
:103DC00054333F0E551754C567FF53C5B1F052C564
:103DD000B0F00001120059DF400E0501516F0001E3
:103DE00073DF300E0501516F00016EDF05014837AA
:103DF0004937483749374837493748374937F00E48
:103E0000481749C54AF549C551F500015DDF48C568
:103E10004AF548C551F558DFC584C5B4FED749C534
:103E2000BBF048C5BAF040EF1FF00501476B000139
:103E30002CDF400E0501786F00018BDC015005017D
:103E40004727600E786F000184DC01500501472789
:103E5000786B00017EDC015005014727786B00017B
:103E600078DC015005014727475303E00001A3898F
:103E70000501C584C5B4FED7496B486B0001ABD7BB
:103E8000CFEF1FF0F29CF29EF2BEFDD70F01426B06
:103E9000416BC290436B446B456B476B466B776AD3
:103EA000040E786E796E496B486BC150F00BC16E91
:103EB000030E386F000E3C6F010E396F000E3A6F23
:103EC0003B6FC068C190C192C194C196040E616EEF
:103ED000F19EAB9EAB98AC9A740E896E180E8A6EEA
:103EE000450E8B6E760E8C6E8D6A8B0E926EF70E73
:103EF000936E9A0E946E800E956E9690969296841E
:103F00009686D56A8F0ECD6ECC6ACD90CF6ACE6A7A
:103F1000BA94BC6AB46AB16EB190B36AB26A000E68
:103F2000516F000E526F4D6B8F0E4E6F4E91506B56
:103F30004F6B4A954C6B030ED56E2C0EBA6E4A6FC2
:103F4000630EBB6E4B6FF00EBD1666165D175717EE
:103F50005417F26AF16AF06AD08E9E6AA16AA46A66
:103F60007B6A7E6A9D6AA06AA36A7A6A7D6A100E7D
:103F7000626ECB90CB92CB96060EC86E280EC66EA4
:103F8000C78EC79C000167EF1BF065DCB6C050F51B
:103F9000A5DEB1C053F5B0C052F5E6DE46D78C863B
:103FA0007D0E0501606F00019BEC1BF087EF50F068
:103FB0000501476B475113080AE3036A47516A0F2B
:103FC000E96E030E0320EA6EEF6A472BF3D7000178
:103FD00089EF50F00501476B4751040828E347512A
:103FE000050DF350496B486F040E4825016E000E15
:103FF0004921036E01507F0FE96E030E0320EA6E24
:10400000EF6A4751050DF350496B486F7F0E482505
:10401000E96E030E4921EA6EEE52EE52EC6AED5261
:10402000EF6AED52EF6AED52EF6A472BD5D70001E8
:104030008BEF50F07A92040EEA6EA30EE96E006ADE
:10404000026A500E016E87EC10F07A928DEF50F0FC
:10405000886B876B866B856B800E0F01596F586B71
:104060000B0E576FFC0E4817010E48137B92B46A73
:104070008B0EB16EB36AB26A7B927A8200018FEFC7
:1040800050F00F014D6B8B0E4E6F546B050E546F3D
:10409000F30E4817080E48137B947D927A84000132
:1040A00091EF50F00501696B686B66CF6BF56A9113
:1040B0008AB66A81C280000E016EC250830B011065
:1040C000C26E662D03D0F00E66168A96676B675136
:1040D000030809E3C282C2B2FED7C3506827C450A6
:1040E0006923672BF4D78A966AB18A866BC566FF07
:1040F000C29068C501F069C502F000011200050117
:10410000566B556B66CF58F557918AB65781C2806A
:10411000300E016EC250830B0110C26E532D03D0BE
:10412000F00E66168A96546B5451020809E3C28257
:10413000C2B2FED7C3505527C4505623542BF4D7D0
:104140008A9657B18A8658C566FFC29056C5B9F09F
:1041500055C5B8F055C501F056C502F00001120072
:104160004BC534F04AC533F049C532F048C531F08B
:104170003BEF21F0016A026A006A036A050174518B
:1041800002E1735118E0100E756FD89071377237D5
:10419000003603367451035C02E17351005C07E39F
:1041A0007351005ED8A003067451035ED8800136B7
:1041B0000236752FEAD700011200196AF2BE198E75
:1041C000F29E34C08CF533C08BF532C08AF531C015
:1041D00089F5410E0501906FC60E8F6F4E0E8E6FE2
:1041E0006D0E8D6F0001B4EC0CF019BEF28E390E1D
:1041F00005010024316E300E0120326E000E0220C7
:10420000336E000E0320346E33C000F034C001F072
:10421000026A036A34C049F533C048F534C072F508
:1042200033C071F57F0E746F73690001A3DF00C0A6
:1042300001F003C002F03CEF21F00501666B0001C4
:1042400031DF02C048F501C047F5000E036A0310D4
:1042500009E10501536B000152DF0150021002E138
:10426000000E01D0010E0501476F4B6B4A6B496B85
:10427000486F000175D7A1D702C062F301C061F396
:1042800043EF21F0DAD7F092F088F19893EF50F0F5
:1042900003019851040803E1000E016E1ED1982B12
:1042A0009851050DF3500501596B586F040E5825B0
:1042B000016E000E5921036E01507F0FE96E030E4F
:1042C0000320EA6E56C5EFFF03019851050DF35028
:1042D0000501596B586F7F0E5825E96E030E592161
:1042E000EA6E52C5EFFF53C5ECFF54C5ECFF55C550
:1042F000ECFF98C357F55753D8B4ECD05751050D80
:10430000F350596B586F7F0E5825E96E030E5921F3
:10431000EA6EEFCF5AF5ECCF5BF5ECCF5CF5ECCF66
:104320005DF5010E575D050DF3505F6B5E6F7F0EFF
:104330005E25E96E030E5F21EA6EEFCF00F0ECCF51
:1043400001F0ECCF02F0ECCF03F003505D5DD8A09C
:10435000BAD00EE102505C5DD8A0B5D009E10150A1
:104360005B5DD8A0B0D004E15A51005CD8B0ABD0AE
:104370005751050DF350596B586F040E5825016EB7
:10438000000E5921036E01507F0FE96E030E0320CA
:10439000EA6EEFCF56F55751050DF350596B586F34
:1043A000040E5825016E000E5921036E01507F0F37
:1043B000016E030E032201C058F503C059F5010E2A
:1043C000575D050DF3505B6B5A6F040E5A25016E55
:1043D000000E5B21036E01507F0FE96E030E032078
:1043E000EA6EEFCF5AF559C5EAFF58C5E9FF5AC53D
:1043F000EFFF010E575D050DF350596B586F040E1A
:104400005825016E000E5921036E01507F0FE96E91
:10441000030E0320EA6E56C5EFFF5751050DF3500A
:10442000596B586F7F0E5825E96E030E5921EA6EBD
:10443000EFCF52F5ECCF53F5ECCF54F5ECCF55F56B
:104440005751050DF350596B586F7F0E5825016E6B
:10445000030E5921036E01C05AF55B6F010E575DC3
:10446000050DF3505D6B5C6F7F0E5C25E96E030EEE
:104470005D21EA6EEFCF00F0ECCF01F0ECCF02F05F
:10448000ECCF03F05BC5EAFF5AC5E9FF00C0EFFFC0
:1044900001C0ECFF02C0ECFF03C0ECFF010E575D52
:1044A000050DF350596B586F7F0E5825E96E030EBA
:1044B0005921EA6E52C5EFFF53C5ECFF54C5ECFF1E
:1044C00055C5ECFF05D0010E016E030106D00501B4
:1044D000570711D7010E016E0301000112008C98DD
:1044E000FC0E0501656F300E646F000159EC1BF086
:1044F000F2A4FED78C887A92060E85250501476FB7
:10450000000E000186210501486F000E0001872181
:104510000501496F000E0001882105014A6F556FA2
:1045200049C554F548C553F547C552F5100E566FA9
:104530000001AEDE7A82120003017E51130803E10E
:10454000000E016E5AD07E2B036A7E516A0FE96E0F
:10455000030E0320EA6E4EC5EFFF7EC34FF5050143
:104560004F5348E0036A4F516A0FE96E030E032070
:10457000EA6EEFCF50F5010E4F5D036A6A0FE96EE8
:10458000030E0320EA6EEF50505D2DE02CE3036A2A
:104590004F516A0FE96E030E0320EA6EEFCF4EF51E
:1045A000036A4F516A0F016E030E032203C051F5D7
:1045B000010E4F5D036A6A0FE96E030E0320EA6E77
:1045C000EFCF52F551C5EAFF01C0E9FF52C5EFFF39
:1045D000010E4F5D036A6A0FE96E030E0320EA6E57
:1045E0004EC5EFFF05D0010E016E030106D0050197
:1045F0004F07B6D7010E016E030100011200F290C1
:10460000F2866288D7EF50F08E0E006E6AC501F018
:1046100069C502F0036A015209E102C001F0026AB1
:10462000080E005E015202E1006A08D0D89001BE77
:1046300004D0023601360006F9D7019E12000501AA
:104640006951D8B4A5D0756F6D51D8B4A1D0755F3C
:1046500005E37F0E7527D8B09BD006D0810E755F1D
:10466000D8A096D0D8B494D075C500F0016A026A7B
:10467000036A746B6AC573F5738F6BC572F56CC58D
:1046800071F5190E756F7051715F0DE2010E725F59
:104690000AE2735F08E2745F06E2742B732B722BDD
:1046A0007051712728D06F51725F12E2010E735F53
:1046B0000FE2745F0DE2742B732B6F5172277051F0
:1046C000712719E3722B17E1732B15E1742B13D0AB
:1046D0006E518009735F0EE2010E745F0BE2742B62
:1046E0006E51800973276F517227E9E3732BE7E15D
:1046F000742BE5D70380752F01D00BD0D89071377C
:10470000723773377437D8900336023601367637EE
:10471000BAD776A106D0D89001320232033276336E
:1047200002D0000635E076BF1ED0D89071377237C0
:10473000733774377051715F07E2010E725F04E2E4
:10474000735F02E2745F1AE36F51725F05E2010E5C
:10475000735F02E2745F12E36E518009735F03E2DC
:10476000010E745F0BE3032A09E1022A07E1012A23
:1047700005E1002A0DE00132023203326AC575F507
:104780006E51751B75AF02D0018E06D0019E04D00C
:10479000006A016A026A036A000112000501695198
:1047A000B608696F036A6AC56DF56A8FD8906A3377
:1047B0006B336C330332023201320032692FF6D789
:1047C0006DAF0BD0001E011E021E031E002AD8B4BE
:1047D000012AD8B4022AD8B4032A000112004FC516
:1047E0006AF54EC569F510DF9A0E05016C6F990EDA
:1047F0006B6F190E6A6F950E696F03C070F502C07A
:104800006FF501C06EF500C06DF5000118DF03C043
:104810006CF502C06BF501C06AF500C069F5BEDF3A
:1048200003C053F502C052F501C051F500C050F568
:10483000196AF2BE198EF29E53C58CF552C58BF5DE
:1048400051C58AF550C589F50501906B8F6B030E34
:104850008E6F8D690001B4EC0CF019BEF28E03C0AE
:1048600053F502C052F501C051F500C050F552C5D4
:1048700059F551C558F505015939026E0F0E02164A
:1048800002C05CF559510F0B58C554F5556F566B66
:10489000576B196AF2BE198EF29E57C58CF556C534
:1048A0008BF555C58AF554C589F5906B8F6B270E2E
:1048B0008E6F100E8D6F0001B4EC0CF019BEF28EED
:1048C00003C053F502C052F501C051F500C050F5C8
:1048D000050151C550F552C551F553C552F5536BFD
:1048E00053335233513350335333523351335033A4
:1048F0005333523351335033533352335133503394
:104900000F0E531751C55BF550C55AF55E6B5EC56A
:1049100003F05D6B5E6B5D515A11006E5E515B1171
:10492000016E5CC502F00001B3EF26F005016B518A
:104930006D03F3CF01F0F4CF00F06E03F3500026C7
:104940006C516D03F3500020026E0001120058C537
:104950006AF557C569F558DE9A0E05016C6F990E18
:104960006B6F190E6A6F950E696F03C070F502C008
:104970006FF501C06EF500C06DF5000160DE03C08B
:104980006CF502C06BF501C06AF500C069F506DF81
:1049900003C060F502C05FF501C05EF500C05DF5C3
:1049A000196AF2BE198EF29E60C58CF55FC58BF553
:1049B0005EC58AF55DC589F50501906B8F6B030EA9
:1049C0008E6F8D690001B4EC0CF019BEF28E03C03D
:1049D00060F502C05FF501C05EF500C05DF55FC522
:1049E00066F55EC565F505016639026E0F0E0216A5
:1049F00002C059F566510F0B65C561F5626F636BB7
:104A0000646B196AF2BE198EF29E64C58CF563C59B
:104A10008BF562C58AF561C589F5906B8F6B030EC6
:104A20008E6FE80E8D6F0001B4EC0CF019BEF28EA3
:104A300003C060F502C05FF501C05EF500C05DF522
:104A400005015EC55DF55FC55EF560C55FF5606B30
:104A500060335F335E335D3360335F335E335D33CA
:104A600060335F335E335D3360335F335E335D33BA
:104A70000F0E60175EC566F55DC565F566C572F516
:104A800065C571F5746B640E736F0001BAEC20F0AC
:104A900001C05AF505016A6B5AC569F56AC56CF51E
:104AA0005AC56BF56E6B640E6D6F00013FDF0150F0
:104AB0000501655F0250665B66C572F565C571F5F7
:104AC000746B0A0E736F0001BAEC20F001C05BF545
:104AD00066C572F565C571F50501746B0A0E736FD5
:104AE0000001BAEC20F000C05CF505016A6B593991
:104AF0006A6F696BF00E6A176C6B5AC503F0000E93
:104B000069275A516A236C6B5B35026E6C35036EF4
:104B1000023603360236033602360336F00E02162C
:104B20000250692703506A23036A5C516925016EAC
:104B30006A51032203C002F0000105EF26F0A3A191
:104B400016D0C580C5B0FED77C0E0501786F000178
:104B5000A9EC1BF0400E0501786F0001A9EC1BF0D9
:104B600059C578F5A9EC1BF0C584C5B4FED7D2EFC2
:104B700025F0A3A117D0050158510F0814E357538E
:104B800007E158C576F50001B7EC1BF008D0050128
:104B9000400E5825596F766F0001B7EC1BF056C5D3
:104BA00059F5CDD7050100011200A3A1C8D0050118
:104BB0004D510F0803E20001C2D005014E51030818
:104BC00002E2030E4E6F4E51030804E14D510B08F3
:104BD00001E24E074E51020804E14D510C0801E27A
:104BE0004E074E2D04D04D510D0801E24E07010E27
:104BF000666F000152EC20F002C056F501C055F579
:104C000002C058F501C057F5A2D602C050F501C048
:104C10004FF505015039026E036A0F0E021602505D
:104C2000300F516F556B50510F0B566F036A300F99
:104C3000526F4F51F00B556F566B5631036E553115
:104C4000026E0332023203320232033202320F0E9C
:104C500003160250300F536F4F510F0B006E005070
:104C6000300F546F4E51000A000105E0010A0AE0BE
:104C7000030A15E026D005015251350801E2512BF7
:104C800000011FD005015351350801E2522B52514A
:104C9000390803E2512B300E526F000112D005018A
:104CA0005451350801E2532B5351390803E2522B7A
:104CB000300E536F5251390803E2512B300E526FB0
:104CC000000105014D514D2B556F51C556F54CC591
:104CD00057F5586F00014DDF05014E5331E04D513E
:104CE0004D2B556F2E0E566F4CC557F555C558F5C3
:104CF00000013FDF05014D514D2B556F52C556F553
:104D00004CC557F5586F000134DF05014E510108BD
:104D10000BE24D514D2B556F53C556F54CC557F50C
:104D2000586F000126DF05014E51020809E254C503
:104D300056F54CC557F54DC558F500011ADF05016C
:104D400000011200A3A13DD0010E0501666F000114
:104D500052EC20F002C04DF501C04CF502C04FF5F9
:104D600001C04EF53CD503C04BF502C04AF501C069
:104D700049F500C048F5EA6A700EE96E000E76EC5F
:104D800002F00A000900F550EE6E0009FBE1050192
:104D9000475308E1606B700E5F6F0001D0EC1BF0B1
:104DA00007D00501606B700E5F6F0001FDEC1BF01A
:104DB00047C54CF5080E05014D6F020E4E6F000100
:104DC000F4DEDCEF50F0A3A129D0EA6A700EE96EA0
:104DD000000E87EC02F00A000900F550EE6E0009A3
:104DE000FBE14EC060F5ACEC18F001C07EF04EC0A7
:104DF00060F5BCEC18F001C07FF00501475308E1F5
:104E0000606B700E5F6F0001D0EC1BF007D00501E6
:104E1000606B700E5F6F0001FDEC1BF0E2EF50F075
:104E200005015F6B5F51030820E36298E70E936E04
:104E30008A98FC0E656F300E646F000159EC1BF010
:104E4000F2A4FED7F70E936EF28662888994FC0E68
:104E50000501656F300E646F000159EC1BF0F2A480
:104E6000FED7898405015F2BDDD700011200BA94BB
:104E7000BC6A47C5BBFF9E92BA8412000501536B02
:104E800000017FEC20F002C053F501C052F5640E22
:104E90000501525F000E535B53C56CF552C56BF5AF
:104EA0006E6B140E6D6F000141DD02C053F501C041
:104EB00052F502C072F501C071F50501746B640E04
:104EC000736F0001BAEC20F002C051F5050101C07A
:104ED00050F551BF05D0515307E15051060804E386
:104EE000516B070E506F07D051BF05D051510008CC
:104EF00002E2516B506950C501F00001E8EF29F062
:104F00007A94ADC055F5ACC054F5ABC053F5AAC00A
:104F100052F57A84050152510001855D0501566FF5
:104F20005351000186590501576F545100018759AB
:104F30000501586F5551000188590501596F5953A2
:104F400009E1585307E11E51575D09E303E156514A
:104F50001D5D05E2000E016E026E3FD03BD07A94DB
:104F6000A5C056F5A4C057F55B6B5A6BA5C059F5A3
:104F7000A4C058F5D892196AF2BE198EF29E990E05
:104F8000A06F9F6F9E6F9A0E9D6F5BC5A4F55AC56B
:104F9000A3F5A5C0A2F5A4C0A1F50001E0EC11F0B5
:104FA00019BEF28E03C055F502C054F501C053F589
:104FB00000C052F57A8455C551F554C550F5050128
:104FC00053AF03D0502BD8B4512B50C501F051C56D
:104FD00002F003D0000E016E026E0001F8EF29F01E
:104FE0000401F351090801E185D105015051A008E0
:104FF000D8A49AD00401F851F45D38E1F951F55D77
:1050000035E1FA51F65D32E1FB51F75D2FE1FC51DC
:105010000001855D05015A6F0401FD5100018659AB
:1050200005015B6F0401FE510001875905015C6FAA
:105030000401FF510001885905015D6F5D53D8B42B
:1050400002D0040113D05C53D8B402D004010ED0B6
:105050005B53D8B402D0040109D05A513B08D8B0F0
:1050600002D0040103D0040145D110D0F7C4FBF4F1
:10507000F6C4FAF4F5C4F9F4F4C4F8F488C0FFF403
:1050800087C0FEF486C0FDF485C0FCF4F3C451F57E
:105090000501515349E0513D01D046D05151080D11
:1050A000F3505B6B5A6F040E5A25016E000E5B21A4
:1050B000036E0150A30FE96E040E0320EA6EEF5059
:1050C000A00830E15151080DF3505B6B5A6F050E8B
:1050D0005A25016E000E5B21036E0150A30FE96E8D
:1050E000040E0320EA6E0301612BD8B4622B62C365
:1050F000ECFFED5261C3EFFF05015151080DF35074
:105100005B6B5A6F070E5A25016E000E5B21036E12
:105110000150A30FE96E040E0320EA6EEF6A04014A
:10512000E9D005015107B5D70401F32B0301612B29
:10513000D8B4622B0401F351080DF35005015B6BE9
:105140005A6FA30E5A25E96E040E5B21EA6E85C0E4
:10515000EFFF86C0ECFF87C0ECFF88C0ECFF0401C6
:10516000F351080DF35005015B6B5A6F040E5A257D
:10517000016E000E5B21036E0150A30FE96E040E59
:105180000320EA6E50C5EFFF0401F351080DF35000
:1051900005015B6B5A6F050E5A25016E000E5B21EF
:1051A000036E0150A30FE96E040E0320EA6E62C382
:1051B000ECFFED5261C3EFFF0401F351080DF35012
:1051C00005015B6B5A6F070E5A25016E000E5B21BD
:1051D000036E0150A30FE96E040E0320EA6EEF6A1E
:1051E000F3C451F55153D8B484D05151080DF35044
:1051F0005B6B5A6FA30E5A25E96E040E5B21EA6EB3
:10520000EFCF5CF5ECCF5DF5ECCF5EF5ECCF5FF565
:10521000010E515D080DF350616B606FA30E6025A8
:10522000E96E040E6121EA6EEFCF00F0ECCF01F0E1
:10523000ECCF02F0ECCF03F003505F5D55E30BE1E0
:1052400002505E5D51E307E101505D5D4DE303E116
:105250005C51005C49E25151080DF350036AA30F01
:10526000016E040E032203C0E2FF01C0E1FFE6CF9E
:1052700052F5E6CF53F55151080DF350036AA30FD1
:10528000016E040E032201C05AF503C05BF5010E46
:10529000515D080DF350036AA30F016E040E032243
:1052A00001C05CF503C05DF55BC5EAFF5AC5E9FFC7
:1052B00003C0E2FF01C0E1FF020E016EE6CFEEFF88
:1052C000012EFCD7010E515D080DF350036AA30FA8
:1052D000016E040E032203C0EAFF01C0E9FF52C5BC
:1052E000EEFF53C5EEFF03D0040104D005015107C2
:1052F00079D70401000112000501525306E153530E
:1053000004E1F00EBD168B8428D05251900806E1BE
:10531000532D04D0F00EBD168B941FD08B940F0E1E
:10532000BD6EB76AB66A010EB96EFC0E0F01491761
:10533000020E491305015251030B006E003AF00EA4
:1053400000160050BD125331556F5231546F553312
:1053500054333F0E551754C5BEFF53C5AFF052C569
:10536000AEF000011200006801680268036803C023
:1053700029F402C028F401C027F400C026F4196AF9
:10538000F2BE198EF29E3E0E05019B6F000104ECE9
:1053900004F019BEF28EA96BA86B050EBC6F12004B
:1053A0007A92030EEA6E990EE96E006A026A8C0E1A
:1053B000016E87EC10F0040125690001A96BA86B50
:1053C000050EBC6F7A821200BC51050803E056D569
:1053D00001C0B7F0B7C050F56EEC1EF005013B07F9
:1053E00003E0CBEF2DF002D0010E3B6F000188D51A
:1053F00002C0A7F001C0A6F0BC51F60FD8B0CAEFAA
:105400002DF00A0FCEEF2DF0A851A65D0501506FCB
:105410000001A951A7590501516F036E505151AFB9
:1054200008D0000ED8805055006E000E5155036E06
:105430000050476F03C048F5485303E14751310816
:1054400005E20A0E4D6F050E3B6F22D0485303E173
:105450004751180805E2050E4D6F060E3B6F18D038
:10546000485303E14751090805E2040E4D6F070E4A
:105470003B6F0ED0485303E14751040805E2020E8A
:105480004D6F080E3B6F04D0010E4D6F0A0E3B6F3F
:105490000001A951A75DD8A079D004E1A651A85D6B
:1054A000D8B074D0B051900845E1B12D43D0AE5181
:1054B000900807E1AF2D05D0A63D03D0A73D01D050
:1054C00038D0AE5190080CE1AF2D0AD00401F48B16
:1054D0007A92A00E0501506F000182DD7A8229D0F8
:1054E00005014D510001AE250501506F000E000170
:1054F000AF210501516F00080DE2FF0A03E1505191
:10550000900808E2010E536F900E526F0001F4DE16
:1055100010D005014D510001AE250501506F000E60
:105520000001AF210501516F536F50C552F50001C5
:10553000E3DE2BD005014D510001B0250501506F70
:10554000000E0001B1210501516F00080EE2FF0AB3
:1055500003E15051900809E2010E536F900E526F13
:105560000001B4EC1EF011D005014D510001B02531
:105570000501506F000E0001B1210501516F536FFD
:1055800050C552F50001B4EC1EF075D0A751A95DCD
:10559000D8A071D004E1A851A65DD8B06CD0AE53AC
:1055A00043E1AF5341E1B05307E1B15305E1A653E5
:1055B00003E1A75301E137D0B0530CE1B1530AE145
:1055C0000401F4897A92A00E0501506F000108DDF4
:1055D0007A8229D005014D510001B05D0501506F5F
:1055E000000E0001B1590501516F00080CE2FF0ADD
:1055F00003E15051900807E2536B526B0001B4EC89
:105600001EF011D005014D510001B05D0501506F34
:10561000000E0001B1590501516F536F50C552F58D
:105620000001B4EC1EF027D005014D510001AE5D24
:105630000501506F000E0001AF590501516F0008C0
:105640000BE2FF0A03E15051900806E2536B526BE4
:10565000000152DE10D005014D510001AE5D050183
:10566000506F000E0001AF590501516F536F50C5C7
:1056700052F5000141DE8ED2A851A65D0501506FA2
:105680000001A951A7590501516F036E505151AF47
:1056900008D0000ED8805055006E000E5155036E94
:1056A0000050476F03C048F5485303E147513108A4
:1056B00005E20F0E4D6F050E3B6F22D0485303E1FC
:1056C0004751180805E20A0E4D6F050E3B6F18D0C2
:1056D000485303E14751090805E2050E4D6F070ED7
:1056E0003B6F0ED0485303E14751040805E2020E18
:1056F0004D6F080E3B6F04D0010E4D6F080E3B6FCF
:105700000001A951A75D3EE303E1A651A85D3AE27D
:10571000AE51900807E1AF2D05D0A63D03D0A73DBF
:1057200001D02FD0AE51900803E1AF2D01D029D088
:1057300005014D510001AE250501506F000E00011D
:10574000AF210501516F00080DE2FF0A03E150513E
:10575000900808E2010E536F900E526F0001CCDDED
:1057600010D005014D510001AE250501506F000E0E
:105770000001AF210501516F536F50C552F5000173
:10578000BBDD45D0A751A95D42E303E1A851A65D69
:105790003EE2AE5307E1AF5305E1A65303E1A75341
:1057A00001E135D0AE530CE1AF530AE10401F489B5
:1057B0007A92A00E0501506F000112DC7A8227D088
:1057C00005014D510001AE5D0501506F000E000155
:1057D000AF590501516F00080BE2FF0A03E1505178
:1057E000900806E2536B526B000186DD10D0050174
:1057F0004D510001AE5D0501506F000E0001AF5923
:105800000501516F536F50C552F5000175DDBC5154
:10581000020825E1B05302E1B15320E0040EB05D6F
:105820000501506F000E0001B1590501516F0008CC
:105830000AE2FF0A03E15051900805E20001B16B52
:10584000B06B06D00501040E0001B05F000EB15B25
:10585000B1C053F5B0C052F5B4EC1EF02CD0BC531F
:105860002AE1040EB0250501506F000E0001B121A0
:105870000501516F00080DE2FF0A03E150518F0846
:1058800008E2010E0001B16F900EB06F010EBC6F07
:105890000CD00001AE5305E1AF5303E1010EBC6F24
:1058A00004D0040EB027000EB123B1C053F5B0C030
:1058B00052F5B4EC1EF06ED1B251AE5D0501506FE1
:1058C0000001B351AF590501516F036E505151AFF3
:1058D00008D0000ED8805055006E000E5155036E52
:1058E0000050496F03C04AF50001B451B05D050195
:1058F000506F0001B551B1590501516F036E505100
:1059000051AF08D0000ED8805055006E000E515592
:10591000036E00504B6F03C04CF54A5303E14951ED
:10592000C70803E2140E4E6F1ED04A5303E14951DB
:10593000630803E20A0E4E6F16D04A5303E1495141
:10594000310803E2050E4E6F0ED04A5303E1495170
:10595000090803E2020E4E6F06D0495302E14A5392
:1059600002E0010E4E6F0001B351AF5D10E303E1A1
:10597000AE51B25D0CE205014E510001AE5F000E6A
:10598000AF5BAFC053F5AEC052F5B6DC12D0AF512D
:10599000B35D0FE303E1B251AE5D0BE205014E5181
:1059A0000001AE27000EAF23AFC053F5AEC052F5D5
:1059B000A3DC05014C5303E14B51C70803E2140E6D
:1059C0004F6F1ED04C5303E14B51630803E20A0EA4
:1059D0004F6F16D04C5303E14B51310803E2050ED3
:1059E0004F6F0ED04C5303E14B51090803E2020EF6
:1059F0004F6F06D04B5302E14C5302E0010E4F6F44
:105A00000001B551B15D11E303E1B051B45D0DE2A8
:105A100005014F510001B05F000EB15BB1C053F5FD
:105A2000B0C052F5B4EC1EF013D0B151B55D10E327
:105A300003E1B451B05D0CE205014F510001B02704
:105A4000000EB123B1C053F5B0C052F5B4EC1EF056
:105A5000010E05013B6F00019DD0A75305E1A65142
:105A60000501185D1EE20001A63D05D0A73D03D04B
:105A7000050117D000018D52D8A402D0050111D024
:105A80007A90BEC0C0F0BDC0BFF07A80BC6B7A9285
:105A9000920E0501506F0001F0EC27F07A8228D0B9
:105AA00005018D520FE00001BD51BF5D0501506F32
:105AB0000001BE51C0590501516F030803E3640E94
:105AC0003B6F17D08D5215E10401F58B7A92A00E31
:105AD0000501506F0001F0EC27F07A8244DC60DCB5
