:0400000086EF4FF048
:0800080077EF00F0000000009A
:100010000000000000000000046ED8CF05F0E0CF23
:1000200006F00001E9CF0CF0EACF07F0E1CF08F0CD
:10003000E2CF09F0D9CF0AF0DACF0BF0F3CF12F00C
:10004000F4CF13F0FACF14F0F5CF15F0F6CF16F089
:10005000F7CF17F000C00EF001C00FF002C010F093
:1000600003C011F0A0AC38EF00F0A1BC37EF0DF0E9
:10007000F0A83EEF00F0F0B2D4EF0BF07AA244EF1C
:1000800000F07BB20FEF17F0A0A64AEF00F0A1B688
:100090006EEF04F0F2A650EF00F0F2B0F6EF03F0CE
:1000A0000EC000F00FC001F010C002F011C003F04C
:1000B0000CC0E9FF07C0EAFF078E08C0E1FF09C0D6
:1000C000E2FF0AC0D9FF0BC0DAFF12C0F3FF13C072
:1000D000F4FF14C0FAFF15C0F5FF16C0F6FF17C0F5
:1000E000F7FF045006C0E0FF05C0D8FF10001A6EED
:1000F000D8CF1BF0E0CF1CF00001E9CF22F0EACF0F
:100100001DF0E1CF1EF0E2CF1FF0D9CF20F0DACF03
:1001100021F0F3CF28F0F4CF29F0FACF2AF0F5CF71
:100120002BF0F6CF2CF0F7CF2DF000C024F001C05B
:1001300025F002C026F003C027F07AA4A3EF00F058
:100140007BB4BDEF18F07AA0A9EF00F07BB023EFED
:1001500010F0F2A8AFEF00F0F2B211EF04F024C0FB
:1001600000F025C001F026C002F027C003F022C035
:10017000E9FF1DC0EAFF1D8E1EC0E1FF1FC0E2FFA8
:1001800020C0D9FF21C0DAFF28C0F3FF29C0F4FF47
:100190002AC0FAFF2BC0F5FF2CC0F6FF2DC0F7FFD9
:1001A0001A501CC0E0FF1BC0D8FF1000BA0FF66E3B
:1001B000010EF7220900F5501200000089111223E8
:1001C0009B322446AD573665BF74488CC19D5AAFEB
:1001D000D3BE6CCAE5DB7EE9F7F8811008019333E2
:1001E0001A22A5562C47B7753E64C99C408DDBBFCB
:1001F00052AEEDDA64CBFFF976E802218B301002C3
:1002000099132667AF763444BD554AADC3BC588EAA
:10021000D19F6EEBE7FA7CC8F5D983310A209112A1
:100220001803A7772E66B5543C45CBBD42ACD99E8A
:10023000508FEFFB66EAFDD874C904428D531661F6
:100240009F702004A9153227BB364CCEC5DF5EED6A
:10025000D7FC6888E1997AABF3BA85520C43977161
:100260001E60A1142805B3373A26CDDE44CFDFFD4A
:1002700056ECE9986089FBBB72AA06638F72144042
:100280009D512225AB343006B9174EEFC7FE5CCC2A
:10029000D5DD6AA9E3B8788AF19B87730E62955021
:1002A0001C41A3352A24B1163807CFFF46EEDDDC0A
:1002B00054CDEBB962A8F99A708B088481951AA77E
:1002C00093B62CC2A5D33EE1B7F04008C919522B12
:1002D000DB3A644EED5F766DFF7C899400859BB7B9
:1002E00012A6ADD224C3BFF136E0C1184809D33BF2
:1002F0005A2AE55E6C4FF77D7E6C0AA583B418869A
:1003000091972EE3A7F23CC0B5D14229CB38500AD1
:10031000D91B666FEF7E744CFD5D8BB502A4999678
:100320001087AFF326E2BDD034C1C3394A28D11AB1
:10033000580BE77F6E6EF55C7C4D0CC685D71EE5CD
:1003400097F42880A1913AA3B3B2444ACD5B566991
:10035000DF78600CE91D722FFB3E8DD604C79FF538
:1003600016E4A9902081BBB332A2C55A4C4BD77971
:100370005E68E11C680DF33F7A2E0EE787F61CC419
:1003800095D52AA1A3B03882B193466BCF7A544851
:10039000DD59622DEB3C700EF91F8FF706E69DD4F8
:1003A00014C5ABB122A0B9923083C77B4E6AD55831
:1003B0005C49E33D6A2CF11E780FF76ACA0FF66EAE
:1003C000030EF7220900F5501200456E7465722085
:1003D0004465657020536C6565700000F76AEC0F2A
:1003E000F66E030EF7220900F55012005265617394
:1003F0006F6E3A2020202020202020200000F76A65
:100400000E0FF66E040EF7220900F550120020536D
:100410006561726368696E67203F3F3F3F2000005F
:10042000F76A300FF66E040EF7220900F55012003D
:100430006E6E6E6E206969692073737320646464E4
:100440000000F76A520FF66E040EF7220900F5500D
:10045000120053573120746F204A6F696E2020209C
:1004600020200000F76A740FF66E040EF7220900D0
:10047000F55012005374726F6E676573743A2020E2
:10048000202020200000F76A960FF66E040EF72257
:100490000900F5501200205365617263682053759E
:1004A0006363657373200000F76AB80FF66E040E7D
:1004B000F7220900F55012004E657874206A6F69C2
:1004C0006E3A2020202020200000F76ADA0FF66E16
:1004D000040EF7220900F5501200202020202020D1
:1004E000202020202020202020200000F76AFC0F60
:1004F000F66E040EF7220900F55012005662617480
:1005000074203D2020202020205620200000F76A63
:100510001E0FF66E050EF7220900F5501200536803
:100520007464776E2043617573653A202020000063
:10053000F76A400FF66E050EF7220900F55012001B
:1005400076202020202020722020202074202020AF
:100550000000F76A620FF66E050EF7220900F550EB
:1005600012006320202020202071202020206120E4
:1005700020200000F76A840FF66E050EF7220900AE
:10058000F55012006D202020202020206E202020F9
:1005900020202A200000F76AA60FF66E050EF7222B
:1005A0000900F550120070202020202020202E204D
:1005B0002020202020200000F76AC80FF66E050ECC
:1005C000F7220900F55012002A2A2A00F76ADC0FE8
:1005D000F66E050EF7220900F55012006272202017
:1005E00020206368202020206D7020200000F76A02
:1005F000FE0FF66E050EF7220900F550120072206C
:1006000020202F20202020766720202E2020000070
:10061000F76A200FF66E060EF7220900F550120059
:1006200073797374656D2073746174652020202064
:100630000000F76A420FF66E060EF7220900F55029
:1006400012005365747570204D616E616765722E7E
:100650002E2E0000F76A640FF66E060EF7220900D0
:10066000F5501200202052656C6561736520535768
:10067000312020200000F76A860FF66E060EF72262
:100680000900F55012004465616C205769746820B8
:100690005061636B65740000F76AA80FF66E060E72
:1006A000F7220900F5501200564C5620496E697425
:1006B00020402073746172740000F76ACA0FF66EEE
:1006C000060EF7220900F5501200564C56204361E1
:1006D0006C6962726174696F6E200000F76AEC0FDA
:1006E000F66E060EF7220900F550120042656769A2
:1006F0006E696E672E2E2E2E2E2E2E2E0000F76A7D
:100700000E0FF66E070EF7220900F5501200436C2B
:100710006F7365204343503D20202020202000009F
:10072000F76A300FF66E070EF7220900F550120037
:100730004F70656E20434350203D20202020202014
:100740000000F76A520FF66E070EF7220900F55007
:100750001200526573657474696E67204D6F74651D
:1007600021210000F76A740FF66E070EF7220900C8
:10077000F55012004D6F7465206973204465616403
:10078000202020200000F76A960FF66E070EF72251
:100790000900F5501200536561726368205374724A
:1007A0006F6E672031200000F76AB80FF66E070EF3
:1007B000F7220900F55012005365617263682053F7
:1007C00074726F6E672032200000F76ADA0FF66EDF
:1007D000070EF7220900F55012002020496E6974B7
:1007E000204A6F696E2020202020000081B809D0A7
:1007F00088C094F087C093F086C092F085C091F0D5
:100800000DD0946B936B926B916B8451040803E150
:10081000010E846F01D0842B010E836FF29050EF94
:1008200000F0FF00F292AFEF00F0030182511308D5
:1008300001E152D0822B036A82516E0FE96E030EE2
:100840000320EA6EB7C5EFFF82C3B8F50501B853C0
:1008500042E0036AB8516E0FE96E030E0320EA6EA0
:10086000EFCFB9F5010EB85D036A6E0FE96E030EA6
:100870000320EA6EEF50B95D2CE02BE3036AB85118
:100880006E0FE96E030E0320EA6EEFCFB7F5036A31
:10089000B8516E0F016E030E032203C0BAF5010EAC
:1008A000B85D036A6E0FE96E030E0320EA6EEFCFA8
:1008B000BBF5BAC5EAFF01C0E9FFBBC5EFFF010EFA
:1008C000B85D036A6E0FE96E030E0320EA6EB7C5CA
:1008D000EFFFB807BCD7030100011200F29CF29EA3
:1008E000F2BEFDD7A196196AF2BE198EF29EC00E15
:1008F0000501B76F000199DF19BEF28EA7A106D0DE
:100900008C94150E006E002EFED78C84010EFC6EAA
:10091000A19650EF00F0F250C00B0501876FF29CDA
:10092000F29EF2BEFDD7D36A070ED56E720EBA6E76
:100930000F01516F630EBB6E05018751F21200016A
:10094000DEEF0BF00F015195536BA4C552FF7E9063
:1009500051850001120005019F6BAB8EAB88AC8AFC
:10096000010EA46F0001EEDF7EA0FED705019F6B94
:100970009F51C9082BE3899AD90EA46F0001E2DFC9
:100980009EBA02D07EA0FCD7898A7EA006D0AB9EFC
:10099000AB98AC9AFC0E016E51D0036A05019F51D1
:1009A000280FE96E020E0320EA6EAECFEFFF036A56
:1009B0009F51280FE96E020E0320EA6EEF507E0869
:1009C00003E19F5301E002D09F2BD2D7AB9EAB989F
:1009D000AC9A9F51CA0810E1036A9F51280FE96E33
:1009E000020E0320EA6EEF507E0806E0FF0E016E55
:1009F000000124D023D005019F51040805E3FF0E18
:100A0000016E00011BD01AD0020128517E080CE1B2
:100A1000036A05019F51280FE96E020E0320EA6E5A
:100A2000EF507E0807E00201FE0E016E000106D0C5
:100A300005D00501010E9F25016E000139EF09F077
:100A4000B1C5B3F50501B46BB051B219B56FB66B52
:100A5000D890B535026EB635036E025003C0F7FF6D
:100A60000001D6EC00F00900F5CF03F00501B31941
:100A7000006E0350B419036E00C001F0026E000155
:100A80005BEF05F00501AE6BAD6BAE69AD69AB51C7
:100A9000AC111BE0AAC503F0A951A92BD8B4AA2B0D
:100AA000E96E03C0EAFFEFCFB2F5AEC5B1F5ADC553
:100AB000B0F50001C5D702C0AEF501C0ADF5050126
:100AC000AB51D8B4AC07AB07E2D7AEC503F0031EF9
:100AD000AD51FF0A016E03C002F00001FDEF05F009
:100AE0000501A16BA06BA86B020128517E080DE1E6
:100AF000010E05019F5D036A280FE96E020E0320B7
:100B0000EA6EEF507E0805E00201FE0E016E88D00D
:100B10000501A76BD90EA66F010E9F5D036A280F12
:100B2000016E020E032201C0A4F503C0A5F5020E5A
:100B3000A36F290EA26FA351A55D38E303E1A45171
:100B4000A25D34E2A3C503F0A2C5E9FFA3C5EAFF95
:100B5000EF507D0816E1A22BD8B4A32BA7C5AAF5A8
:100B6000A651A62BD8B4A72BA96FA2C5E9FFA3C590
:100B7000EAFFEF50200AAAC5EAFFA9C5E9FFEF6E18
:100B800011D0A7C5AAF5A651A62BD8B4A72BA2C5EC
:100B9000E9FFA3C5EAFFEFCFABF5AAC5EAFFE96E0F
:100BA000ABC5EFFFA22BD8B4A32BC5D7A651D8B4A1
:100BB000A707A607A7C503F0A651D8B4A707A6079D
:100BC000E96E03C0EAFFEFCFA1F5A06BA6C5E9FF70
:100BD000A7C5EAFFEF50A027000EA123D90EA65DFE
:100BE000006E000EA75900C0A8F5AA6BD90EA96F18
:100BF000AC6BA8C5ABF5000145D702C0AAF501C092
:100C0000A9F50501A051015C03E1A151AA5D05E030
:100C1000FB0E016E020104D00501A8C501F002011E
:100C200000013EEF09F00401F751090801E137D155
:100C300005019F51A0084DE1F7C4A0F5A05349E07C
:100C4000A03D01D046D0A051080DF350AA6BA96F6A
:100C5000040EA925016E000EAA21036E0150A70FF4
:100C6000E96E040E0320EA6EEF50A00830E1A051B7
:100C7000080DF350AA6BA96F050EA925016E000E91
:100C8000AA21036E0150A70FE96E040E0320EA6E3D
:100C90000301652BD8B4662B66C3ECFFED5265C328
:100CA000EFFF0501A051080DF350AA6BA96F070EC5
:100CB000A925016E000EAA21036E0150A70FE96E4F
:100CC000040E0320EA6EEF6A0401E9D00501A007D3
:100CD000B5D70401F72B0301652BD8B4662B0401AB
:100CE000F751080DF3500501AA6BA96FA70EA925AE
:100CF000E96E040EAA21EA6E85C0EFFF86C0ECFF04
:100D000087C0ECFF88C0ECFF0401F751080DF350D9
:100D10000501AA6BA96F040EA925016E000EAA2178
:100D2000036E0150A70FE96E040E0320EA6E9FC503
:100D3000EFFF0401F751080DF3500501AA6BA96FED
:100D4000050EA925016E000EAA21036E0150A70F02
:100D5000E96E040E0320EA6E66C3ECFFED5265C334
:100D6000EFFF0401F751080DF3500501AA6BA96FBD
:100D7000070EA925016E000EAA21036E0150A70FD0
:100D8000E96E040E0320EA6EEF6AF7C4A0F5A053E3
:100D9000D8B484D0A051080DF350AA6BA96FA70E48
:100DA000A925E96E040EAA21EA6EEFCFABF5ECCFD0
:100DB000ACF5ECCFADF5ECCFAEF5010EA05D080DB6
:100DC000F350B06BAF6FA70EAF25E96E040EB021E4
:100DD000EA6EEFCF00F0ECCF01F0ECCF02F0ECCFF9
:100DE00003F00350AE5D55E30BE10250AD5D51E3FE
:100DF00007E10150AC5D4DE303E1AB51005C49E21A
:100E0000A051080DF350036AA70F016E040E0322D0
:100E100003C0E2FF01C0E1FFE6CFA1F5E6CFA2F5F6
:100E2000A051080DF350036AA70F016E040E0322B0
:100E300001C0A9F503C0AAF5010EA05D080DF3508D
:100E4000036AA70F016E040E032201C0ABF503C0B5
:100E5000ACF5AAC5EAFFA9C5E9FF03C0E2FF01C0DE
:100E6000E1FF020E016EE6CFEEFF012EFCD7010E70
:100E7000A05D080DF350036AA70F016E040E032254
:100E800003C0EAFF01C0E9FFA1C5EEFFA2C5EEFF66
:100E900003D0040104D00501A00779D704010001A3
:100EA0001200ACC5AEF50501AF6BAB51AD19B06F1B
:100EB000B16BD890B035026EB135036E025003C0ED
:100EC000F7FF0001D6EC00F00900F5CF03F00501B3
:100ED000AE19006E0350AF19036E00C001F0026E30
:100EE000000112000501A66BA56BA76BA86BA96B8F
:100EF000A669A569A86BA151A85D15E2A8519F2517
:100F0000E96E000EA021EA6EEFCFADF5A6C5ACF5F7
:100F1000A5C5ABF50001C5DF02C0A6F501C0A5F56A
:100F20000501A82BE8D7A86BA451A85D15E2A8512C
:100F3000A225E96E000EA321EA6EEFCFADF5A6C59E
:100F4000ACF5A5C5ABF50001ACDF02C0A6F501C04C
:100F5000A5F50501A82BE8D7A51FA61FA96BA951C8
:100F6000A92B036A100FE96E020E0320EA6E7E0EB3
:100F7000EF6EA86BA151A85D4DE2A8519F25E96EC7
:100F8000000EA021EA6EEF507D0809E0A8519F25D0
:100F9000E96E000EA021EA6EEF507E0824E1A9510F
:100FA000A92B036A100FE96E020E0320EA6E7D0E74
:100FB000EF6EA951A92B036A100F016E020E0322D6
:100FC00001C0AAF503C0ABF5A8519F25E96E000E3C
:100FD000A021EA6EEF50200AAC6F03C0EAFF01C007
:100FE000E9FFEF6E15D0A951A92B036A100F016E0E
:100FF000020E0322A8519F25E96E000EA021EA6E81
:10100000EFCFACF503C0EAFF01C0E9FFACC5EFFFCD
:10101000A82BB0D7A86BA451A85D4DE2A851A2257A
:10102000E96E000EA321EA6EEF507D0809E0A85199
:10103000A225E96E000EA321EA6EEF507E0824E19E
:10104000A951A92B036A100FE96E020E0320EA6E64
:101050007D0EEF6EA951A92B036A100F016E020ECF
:10106000032201C0AAF503C0ABF5A851A225E96E81
:10107000000EA321EA6EEF50200AAC6F03C0EAFF16
:1010800001C0E9FFEF6E15D0A951A92B036A100F1B
:10109000016E020E0322A851A225E96E000EA321C3
:1010A000EA6EEFCFACF503C0EAFF01C0E9FFACC5C3
:1010B000EFFFA82BB0D7A5C5A7F5A7517D0803E082
:1010C000A7517E0816E1A951A92B036A100FE96EFA
:1010D000020E0320EA6E7D0EEF6EA951A92B036A62
:1010E000100FE96E020E0320EA6EA751200AEF6E80
:1010F0000AD0A951A92B036A100FE96E020E032032
:10110000EA6EA7C5EFFFA6C5A7F5A7517D0803E0C6
:10111000A7517E0816E1A951A92B036A100FE96EA9
:10112000020E0320EA6E7D0EEF6EA951A92B036A11
:10113000100FE96E020E0320EA6EA751200AEF6E2F
:101140000AD0A951A92B036A100FE96E020E0320E1
:10115000EA6EA7C5EFFFA951A92B036A100FE96E2C
:10116000020E0320EA6E7E0EEF6EA9C552F3000157
:101170001200F250C00B0501A46FF29CF29EF2BE69
:10118000FDD7D36A070ED56E720EBA6E0F01516F7E
:10119000630EBB6E0501A451F212000112009EA85D
:1011A000FED7AD6E1200D3CFA0F5BACFA1F5BBCF5D
:1011B000A2F5D5CFA3F5DDDF8C9AAB8EAB88AC8AD8
:1011C000010E0501A46F0001A2EC04F07EA0FED781
:1011D00005019F6B0301525105019F5D23E2270E1C
:1011E000A46F0001A2EC04F0ACB202D07EA0FCD748
:1011F0007EA008D08C8AAB9EAB98AC9AFC0E016E98
:1012000022D00DD0036A05019F51100FE96E020E26
:101210000320EA6EEFCFA4F5A4510001C0DF050161
:101220009F2BD8D7ACA2FED78C8AAB9EAB98AC9A3A
:10123000A0C5D3FFA1C5BAFFA3C5D5FFA2C5BBFFFB
:10124000000E016E0001120005018A6B8B918C6B00
:101250008D6B916B906B8F6B8E6B956B946B936BAF
:10126000926B996B986B976B966B9A6B0001ABEFD7
:1012700004F001C09AF59AC59FF532D4D9C08AF519
:10128000DBC062F305018C6B8A2D01D024D08A511A
:10129000020821E08A5103081EE08A5104081BE07D
:1012A0008A51050818E08A51060815E08A51070896
:1012B00012E08A5108080FE08A5109080CE08A51AF
:1012C0000B0809E08A510C0806E08A51100803E077
:1012D0008A51110802E1DCC05FF38A2D01D009D0E8
:1012E0008A51020806E08A51030803E08A51040883
:1012F00007E1DDC063F303015F5301E16085050190
:101300008A51010A000133E0030A3AE0010AD8B425
:1013100001D1070AD8B407D1010AD8B437D1020ADB
:10132000D8B434D10F0AD8B431D1010AD8B42ED1EF
:10133000020AD8B42BD1070AD8B428D11C0AD8B4D1
:1013400025D1010AD8B423D1170AD8B429D10B0A60
:10135000D8B430D1030AD8B461D1010AD8B464D169
:101360001D0AD8B4A0D1930AD8B4B3D1E6D10301F1
:101370006351060A000103E00E0A02E001D000D02A
:1013800003016351080A00010DE0040A0EE0010A9E
:101390002EE0030A5AE0010AD8B487D01F0AD8B455
:1013A000B7D0B8D0DEC064F3B5D00501876B8751E4
:1013B00007081BE3036A8751970F016E000E032293
:1013C00001C09FF503C0A0F5036A8751DF0FE96EE6
:1013D000000E0320EA6EEFCFA1F5A0C5EAFF01C021
:1013E000E9FFA1C5EFFF872BE2D7000193D00501EC
:1013F000876B875107081BE3036A87519F0F016EB4
:10140000000E032201C09FF503C0A0F5036A8751B7
:10141000DE0FE96E000E0320EA6EEFCFA1F5A0C546
:10142000EAFF01C0E9FFA1C5EFFF872BE2D7E7C0C4
:101430006AF3E6C069F3E9C089F5E8C088F588C5B4
:1014400068F389C567F3000165D0DEC004F5A78D98
:1014500005010451050804E00001A79F25D00501FE
:101460000001A7BF21D0A78F7A92940E05019F6F2C
:10147000000113EC06F07A82196AF2BE198EF29E10
:10148000A30E0501B76F000115EC04F019BEF28E32
:10149000196AF2BE198EF29EA20E0501B76F000105
:1014A00015EC04F019BEF28E35D0E1C091F5E0C024
:1014B00090F5DFC08FF5DEC08EF589530EE18A53BB
:1014C0000CE18B530AE18C5308E18EC590F08FC577
:1014D0008FF090C58EF091C58DF08EC58CF08FC5C4
:1014E0008BF090C58AF091C589F0E5C095F5E4C010
:1014F00094F5E3C093F5E2C092F50301655306E16C
:10150000665304E194C566F395C565F3000102D006
:10151000E6C06DF303016351020A000103E0010A12
:1015200002E001D000D003016351010A000103E091
:10153000020A22E02BD00501876B875107081BE3C5
:10154000036A87519F0F016E000E032201C09FF5B1
:1015500003C0A0F5036A8751DE0FE96E000E032079
:10156000EA6EEFCFA1F5A0C5EAFF01C0E9FFA1C572
:10157000EFFF872BE2D709D0DFC089F5DEC088F501
:1015800088C568F389C567F305010001D6D003015A
:101590005F5304E1020E0501046F03010001CDD089
:1015A00003015F5304E1030E0501046F030161872A
:1015B0000001C3D0DFC091F5DEC090F5DDC08FF52E
:1015C000DCC08EF589530EE18A530CE18B530AE19E
:1015D0008C5308E18EC590F08FC58FF090C58EF0CA
:1015E00091C58DF08EC58CF08FC58BF090C58AF0BB
:1015F00091C589F0E3C095F5E2C094F5E1C093F59B
:10160000E0C092F503016551661104E194C566F3EB
:1016100095C565F305018B8100018FD0DEC064F3B1
:1016200005018B81000189D0A78DDFC099F5DEC04F
:1016300098F5DDC097F5DCC096F5E0C004F505012E
:101640000451050804E00001A79F25D00501000111
:10165000A7BF21D0A78F7A92940E05019F6F00013A
:1016600013EC06F07A82196AF2BE198EF29EA30E6E
:101670000501B76F000115EC04F019BEF28E196A6E
:10168000F2BE198EF29EA20E0501B76F000115EC95
:1016900004F019BEF28E050199510001D81305011D
:1016A0008B8100014AD0DDC089F5DCC088F588C592
:1016B00068F389C567F3DFC06AF3DEC069F3E0C091
:1016C0006BF3E1C06CF30301608705018B810001BE
:1016D00034D0DFC08DF505018D515E0820E3876BA6
:1016E0008D51875D1BE2036A8751F30F016E020E75
:1016F000032201C09FF503C0A0F5036A8751E00FE4
:10170000E96E000E0320EA6EEFCFA1F5A0C5EAFF57
:1017100001C0E9FFA1C5EFFF872BE2D702D0040E7D
:101720008C6F8B81196AF2BE198EF29E200EB76FF4
:10173000000115EC04F019BEF28E05018BA131D029
:10174000010E0301622505019B6F8CC59CF58AC5BE
:101750009DF59E6B050EA06F9D0E9F6F020EA16FF3
:10176000050EA36F9B0EA26F020EA46F000172EC18
:1017700007F00501876B8751020813E3000113DDB1
:10178000015204E105010DD00AD00001C70E050188
:10179000A46F0001A2EC04F07EA0FED70501872B08
:1017A000EAD70001E0EF0BF0D3CF83F5BACF84F591
:1017B000BBCF85F5D5CF86F58BEF04F07A9244D573
:1017C0007A8283C5D3FF84C5BAFF86C5D5FF85C598
:1017D000BBFFF09250EF00F003019C51040801E1BF
:1017E00016D19C2B9C51050DF3500501C26BC16FA6
:1017F000040EC125016E000EC221036E0150830F3D
:10180000E96E030E0320EA6EBFC5EFFF03019C5192
:10181000050DF3500501C26BC16F830EC125E96E42
:10182000030EC221EA6EBBC5EFFFBCC5ECFFBDC510
:10183000ECFFBEC5ECFF9CC3C0F5C053D8B4E6D0E6
:10184000C051050DF350C26BC16F830EC125E96E07
:10185000030EC221EA6EEFCFC3F5ECCFC4F5ECCF97
:10186000C5F5ECCFC6F5010EC05D050DF350C86B94
:10187000C76F830EC725E96E030EC821EA6EEFCF4E
:1018800000F0ECCF01F0ECCF02F0ECCF03F003500E
:10189000C65DD8A0B9D00EE10250C55DD8A0B4D0C5
:1018A00009E10150C45DD8A0AFD004E1C351005C90
:1018B000D8B0AAD0C051050DF350C26BC16F040E51
:1018C000C125016E000EC221036E0150830FE96E27
:1018D000030E0320EA6EEFCFBFF5C051050DF350A4
:1018E000C26BC16F040EC125016E000EC221036ED2
:1018F0000150830F016E030E032201C0C1F503C026
:10190000C2F5010EC05D050DF350C46BC36F040E2C
:10191000C325016E000EC421036E0150830FE96ED2
:10192000030E0320EA6EEFCFC3F5C2C5EAFFC1C5BF
:10193000E9FFC3C5EFFF010EC05D050DF350C26B9B
:10194000C16F040EC125016E000EC221036E01504D
:10195000830FE96E030E0320EA6EBFC5EFFFC0518F
:10196000050DF350C26BC16F830EC125E96E030EE6
:10197000C221EA6EEFCFBBF5ECCFBCF5ECCFBDF5E5
:10198000ECCFBEF5C051050DF350C26BC16F830E95
:10199000C125016E030EC221036E01C0C3F5C46FE1
:1019A000010EC05D050DF350C66BC56F830EC525D6
:1019B000E96E030EC621EA6EEFCF00F0ECCF01F026
:1019C000ECCF02F0ECCF03F0C4C5EAFFC3C5E9FFDA
:1019D00000C0EFFF01C0ECFF02C0ECFF03C0ECFF52
:1019E000010EC05D050DF350C26BC16F830EC125A2
:1019F000E96E030EC221EA6EBBC5EFFFBCC5ECFF6A
:101A0000BDC5ECFFBEC5ECFFC00717D70301000141
:101A100012000501956B966B010E976FDA6AD96A11
:101A2000050E9A6F8D0E996F050EEA6E910EE96E96
:101A30009AC5E2FF99C5E1FF97C598F5D890E550A2
:101A4000EE02F3509523F4509623982FF7D795C5BF
:101A5000DEFF96C595F5966BD8B0962B992BD8B42A
:101A60009A2B972B97510508DFE10001120079AC02
:101A700045D2CE500501836FCFCF84F505511008B4
:101A80002AE1800E0001C26FC16B030E852505019E
:101A9000856F000E000186210501866F000E000192
:101AA00087210501876F000E000188210501886FDD
:101AB000196AF2BE198EF29EBE6F87C5BDF586C546
:101AC000BCF585C5BBF5320EBF6F000185DE19BEC2
:101AD000F28E08D205010551110829E10001C26BFF
:101AE000C16B030E85250501856F000E000186215F
:101AF0000501866F000E000187210501876F000E2A
:101B0000000188210501886F196AF2BE198EF29EC4
:101B1000BE6F87C5BDF586C5BCF585C5BBF5330E63
:101B2000BF6F000159DE19BEF28EDCD105010551EF
:101B300012086FE1800E0001C26FC16B0501886B56
:101B4000876BCAC086F5C9C085F5C7C000F0C8C09C
:101B500001F0026A036A03C08CF502C08BF5C8C0AD
:101B60008AF5C7C089F588C590F587C58FF5CAC0C5
:101B70008EF5C9C08DF503C094F502C093F5C8C0B9
:101B800092F5C7C091F5000144DF03C088F502C09B
:101B900087F501C086F500C085F5050183518527CD
:101BA00084518623000E872388238831026E873173
:101BB000016E8631006E02320132003200C0C7F081
:101BC000000101C0C8F0030E85250501856F000ED8
:101BD000000186210501866F000E000187210501A5
:101BE000876F000E000188210501886F196AF2BE17
:101BF000198EF29EBE6F87C5BDF586C5BCF585C53D
:101C0000BBF5350EBF6F0001E7DD19BEF28E6AD15C
:101C10000501055114086EE10001C26BC16B05019D
:101C2000886B876BCAC086F5C9C085F5C5C000F052
:101C3000C6C001F0026A036A03C08CF502C08BF5CE
:101C4000C6C08AF5C5C089F588C590F587C58FF5EA
:101C5000CAC08EF5C9C08DF503C094F502C093F5D6
:101C6000C6C092F5C5C091F50001D3DE03C088F56A
:101C700002C087F501C086F500C085F505018351D6
:101C8000852784518623000E872388238831026E9E
:101C90008731016E8631006E02320132003200C09F
:101CA000C5F0000101C0C6F0030E85250501856F52
:101CB000000E000186210501866F000E00018721BC
:101CC0000501876F000E000188210501886F196AE0
:101CD000F2BE198EF29EBE6F87C5BDF586C5BCF5F6
:101CE00085C5BBF5360EBF6F000176DD19BEF28EDD
:101CF000F9D005010551160828E1030E00018525DC
:101D00000501856F000E000186210501866F000E1A
:101D1000000187210501876F000E00018821050160
:101D2000886F196AF2BE198EF29EBE6F87C5BDF527
:101D300086C5BCF585C5BBF5400EBF6F00014CDD07
:101D400019BEF28E020E0501056F8D2C4DD0055384
:101D50004BE007510001C25D37E308E1C1510501C5
:101D6000065DD8A002D000012FD00001020E0501AF
:101D7000056F0001C269C1690401F985010E000106
:101D800085250501856F000E000186210501866FFE
:101D9000000E000187210501876F000E00018821D8
:101DA0000501886F196AF2BE198EF29EBE6F87C553
:101DB000BDF586C5BCF585C5BBF5A00EBF6F00019E
:101DC0000BDD19BEF28E0ED0C26BC16B196AF2BE6A
:101DD000198EF29EA50E0501B76F000115EC04F0F7
:101DE00019BEF28E7FD005018D2C2DD005532BE12D
:101DF000020E056F0001C26BC16B030E8525050144
:101E0000856F000E000186210501866F000E00011E
:101E100087210501876F000E000188210501886F69
:101E2000196AF2BE198EF29EBE6F87C5BDF586C5D2
:101E3000BCF585C5BBF5410EBF6F0001CDDC19BEF9
:101E4000F28E50D005018D5002084DE10001C251C3
:101E50000501095D37E308E108510001C15DD8A023
:101E600002D005012FD00501020E056F0001C269E5
:101E7000C1690401F985010E000185250501856F01
:101E8000000E000186210501866F000E00018721EA
:101E90000501876F000E000188210501886F196A0E
:101EA000F2BE198EF29EBE6F87C5BDF586C5BCF524
:101EB00085C5BBF5A00EBF6F00018EDC19BEF28E8A
:101EC00011D00501800E0001C26FC16B196AF2BE0C
:101ED000198EF29EA50E0501B76F000115EC04F0F6
:101EE00019BEF28E05010F01416B776A040E786E00
:101EF000796E7A900001CF6B8D6AA19CA19C50EF06
:101F000000F0050105C501F000011200CA510501EC
:101F1000175D24E305E10001C9510501165D1EE3CB
:101F20000001C2510501075D09E318E106510001F6
:101F3000C15DD8B002D0050111D0050109510001E1
:101F4000C25D09E3D8B402D0050108D0C151050132
:101F5000085D04E3000114C540FF71D00001D1DF2A
:101F60000150100803E112C540FF69D0CADF0150DB
:101F7000110814E1050109510001C25D0CE308E1FB
:101F8000C1510501085DD8A002D0000104D00001B4
:101F90000EC540FF02D010C540FF51D08D2C25D07A
:101FA000C2510501075D0CE308E106510001C15D66
:101FB000D8A002D0050104D0050110C540FF13D000
:101FC00009510001C25D0CE308E1C1510501085D42
:101FD000D8A002D0000104D000010EC540FF02D0FD
:101FE00012C540FF05012CD000018D50020825E1EB
:101FF000C2510501075D0CE308E106510001C15D16
:10200000D8A002D0050104D005010CC540FF13D0B3
:1020100009510001C25D0CE308E1C1510501085DF1
:10202000D8A002D0000104D000010AC540FF02D0B0
:1020300012C540FF050104D0000112C540FF050193
:102040000001E0EF10F08D2C01D004D08D5002087B
:10205000D8A4B9D0C92BD8B4CA2BCA51040830E2CD
:10206000FF0A03E1C951DC082BE2A09C8D6A020E35
:102070000501056F0001C269C1690401F985010EFE
:10208000000185250501B76F000E000186210501BD
:10209000B86F000E000187210501B96F000E000125
:1020A00088210501BA6FBE6FB9C5BDF5B8C5BCF5CD
:1020B000B7C5BBF5A00EBF6F0001ECEC0BF07DD0F7
:1020C0008D2C28D0C25303E1C1511F0805E2200E18
:1020D000C15F000EC25B02D0C26BC16B050105512E
:1020E000160801E115D00001C251C45D10E303E1FF
:1020F000C151C35D0CE3C35302E1C45308E0A09C8B
:102100008D6AA50E0501B76F000115EC04F00501FD
:1021100055D000018D50020850E1200EC127000E5D
:10212000C223C2517F0808E2FF0A03E1C15100083F
:1021300003E2800EC26FC16B05010551160801E173
:102140003DD00001C451C25D38E303E1C351C15D1C
:1021500034E3C35303E1C45180082FE0A09C8D6A8F
:1021600005010551100806E0A50EB76F000115EC3A
:1021700004F005010551100821E1030E0001852539
:102180000501B76F000E000186210501B86F000E32
:10219000000187210501B96F000E000188210501AA
:1021A000BA6FBE6FB9C5BDF5B8C5BCF5B7C5BBF54F
:1021B000320EBF6F0001ECEC0BF005010001A6D65A
:1021C0008D5201E17A907B90AFEF00F003019C3DCE
:1021D00002D04DD04CD09C51050DF3500501856BBC
:1021E000846F040E8425016E000E8521036E01505C
:1021F000830FE96E030E0320EA6EEFCF83F5030130
:102200009C51050DF3500501856B846F040E8425E8
:10221000016E000E8521036E0150830FE96E030EDF
:102220000320EA6EEF6A03019C51050DF35005018E
:10223000856B846F830E8425E96E030E8521EA6E1B
:10224000EE52EE52EC6AED52EF6AED52EF6AED5249
:10225000EF6A03019C07196AF2BE198EF29E83C5CC
:10226000B7F5000115EC04F019BEF28E0301000170
:1022700060EF17F0016603D0026602D007D0022A91
:1022800000C0EEFF012EFCD7022EFAD71200040187
:10229000F73D01D08BD005018E6B8E510401F75DA7
:1022A000D8A084D005018E51080DF350916B906F2A
:1022B000050E9025016E000E9121036E0150A70FAF
:1022C000E96E040E0320EA6EECCF91F5ED52EFCFEC
:1022D00090F58C51905D67E18D51915D64E18EC503
:1022E0008FF58F51080843E38E51080DF350036AB0
:1022F000A70F016E040E032201C090F503C091F5F3
:10230000010E8E25080DF350036AA70FE96E040E27
:102310000320EA6EEE52EE52EE52EE52EE52EE52C2
:10232000ECCF99F5ED52EFCF98F5ED52EFCF97F551
:10233000ED52EFCF96F5ED52EFCF95F5ED52EFCF91
:1023400094F5ED52EFCF93F5ED52EFCF92F591C5A5
:10235000EAFF01C0E9FF93C5E2FF92C5E1FF020E6B
:10236000016EE6CFEEFF012EFCD78F2BBAD704010A
:10237000F751080DF350036AA70F016E040E0322F4
:1023800001C090F5050103C091F503C0EAFF01C04B
:10239000E9FF006A026A020E016E00016BDF0401B0
:1023A000F70704D005018E2B78D70401000153EF05
:1023B00014F0050E0301536F090E05019325030167
:1023C000546F040E556FF90E566F810E576F64C32C
:1023D00058F3020E596F5A6F5B6B5C6B5D6993C566
:1023E0005EF30201F36BF46BFC0EF56F120EF66FE9
:1023F000000112000501966B956B66CF98F59791D9
:102400008AB69781C280000E016EC250830B011004
:10241000C26E932D03D0F00E66168A96946B94517B
:10242000030809E3C282C2B2FED7C3509527C45045
:102430009623942BF4D78A9697B18A8698C566FF1F
:10244000C29095C501F096C502F000011200030E7E
:102450000501A06F530E9F6F0C0EA16F020EA36FAC
:10246000F30EA26F5EC3A4F5000172EC07F0050144
:10247000936B9351020817E30001D3EC08F001C0FD
:1024800094F5C70E0501A46F0001A2EC04F005014C
:10249000945302E0F2A4FCD77EA002D002D001D077
:1024A00002D0932BE6D700011200120E0501936FA4
:1024B00000017FDF8FC5F7F2020190C5F8F202013B
:1024C0008EC5F9F2910EFA6F95C0FBF2020196C02B
:1024D000FCF20201A7C0FDF205C5FEF20501936BF7
:1024E000000188DF02C092F501C091F591C5FFF2AD
:1024F000020192C500F30301010E0501936F000173
:1025000079DF02C092F501C091F591C501F3030195
:1025100092C502F30301CFC003F36DC304F30001BE
:1025200096DF28EF15F0D8B204D0050EEA6EA90E9A
:10253000E96E006A016A026A036A0501A96BAA6B67
:10254000AB6BAC6BA851A711A611A5112CE0200E06
:10255000AD6FD890A137A237A337A437A937AA37D0
:10256000AB37AC37A851AC5D08E1A751AB5D05E1D5
:10257000A651AA5D02E1A551A95D0FE3A551A95F8E
:10258000A651D8A0A63DAA5FA751D8A0A73DAB5F92
:10259000A851D8A0A83DAC5FD880003601360236DD
:1025A0000336AD2FD6D7A9C5EFFFAAC5ECFFABC543
:1025B000ECFFACC5ECFF0001120094C59BF593C580
:1025C0009CF50501A06B9F6B94C59EF593C59DF589
:1025D000D892990EA46FA36FA26F9A0EA16FA0C597
:1025E000A8F59FC5A7F594C5A6F593C5A5F5000167
:1025F0009ADF03C098F502C097F501C096F500C0B8
:1026000095F598C59AF597C599F5050196AF03D04C
:10261000992BD8B49A2B99C501F09AC502F0000104
:1026200091EF13F01C0E0501936F0001C2DE8FC500
:10263000F7F2020190C5F8F202018EC5F9F2920E8E
:10264000FA6F95C0FBF2020196C0FCF20201C1C014
:10265000FDF20201C2C0FEF202010001C735050110
:10266000936F0001C8350501946F93379437933702
:10267000943793379437F00E931793C5FFF2020106
:102680000001C7350501936F0001C8350501946F3E
:10269000933794379337943793379437F00E9317D3
:1026A00094C500F303010001C5350501936F0001D6
:1026B000C6350501946F9337943793379437933722
:1026C0009437F00E931793C501F303010001C5354C
:1026D0000501936F0001C6350501946F9337943758
:1026E0009337943793379437F00E931794C502F3CA
:1026F0000301CBC003F30301CCC004F30301CDC03D
:1027000005F30301CEC006F30301D0C007F30301B4
:10271000D1C008F30301D3C094F5D2C093F50001F2
:102720004CD702C092F501C091F591C509F30301A0
:1027300092C50AF30301D4C00BF30301D5C00CF317
:102740000301D6C00DF30301D7C00EF3030100014E
:102750007EDE28EF15F0120E0501936F000129DED1
:102760008FC5F7F2020190C5F8F202018EC5F9F2A9
:10277000940EFA6F95C0FBF2020196C0FCF20201C2
:10278000A7C0FDF285C0FEF2020186C0FFF2020181
:1027900087C000F3030188C001F303014EC002F3B8
:1027A000140E036FE30E046F000151DE28EF15F0E5
:1027B000170E0501936F0001FCDD8FC5F7F20201D2
:1027C00090C5F8F202018EC5F9F2960EFA6F95C027
:1027D000FBF2020196C0FCF20201000138DE28EF94
:1027E00015F00C0E0501936F0001E3DD8FC5F7F2C4
:1027F000020190C5F8F202018EC5F9F2980EFA6F47
:1028000095C0FBF2020196C0FCF202014BC0FDF242
:102810004CC0FEF200011BDE28EF15F00E0E050184
:10282000936F0001C6DD8FC5F7F2020190C5F8F283
:1028300002018EC5F9F2A00EFA6F95C0FBF20201FB
:1028400096C0FCF20201F8C4FDF20201F9C4FEF2E6
:102850000201FAC4FFF20201FBC400F3030100010C
:10286000F6DD28EF15F00401F73D02D0B2D1B1D169
:10287000F751080DF35005018D6B8C6F070E8C25F9
:10288000016E000E8D21036E0150A70FE96E040E3C
:102890000320EA6EEF50020810E266C38DF565C3AF
:1028A0008CF50001F4D40401F881A00E05019F6F9E
:1028B000000113EC06F08CD105010401F751080D5D
:1028C000F35005018D6B8C6F040E8C25016E000E8C
:1028D0008D21036E0150A70FE96E040E0320EA6EEE
:1028E000EF50910A00010DE0030A27E0060A41E0DB
:1028F000020A5BE00E0AD8B474D0380AD8B48DD07E
:10290000A7D00401F751080DF35005018D6B8C6FB2
:10291000050E8C25016E000E8D21036E0150A70F50
:10292000E96E040E0320EA6EECCF90F5ED52EFCF86
:102930008FF58E6B0001B9D58BD00401F751080DCE
:10294000F35005018D6B8C6F050E8C25016E000E0A
:102950008D21036E0150A70FE96E040E0320EA6E6D
:10296000ECCF90F5ED52EFCF8FF58E6B00015AD67C
:102970006FD00401F751080DF35005018D6B8C6F7A
:10298000050E8C25016E000E8D21036E0150A70FE0
:10299000E96E040E0320EA6EECCF90F5ED52EFCF16
:1029A0008FF58E6B0001D7D653D00401F751080D77
:1029B000F35005018D6B8C6F050E8C25016E000E9A
:1029C0008D21036E0150A70FE96E040E0320EA6EFD
:1029D000ECCF90F5ED52EFCF8FF58E6B0001E8D67E
:1029E00037D00401F751080DF35005018D6B8C6F42
:1029F000050E8C25016E000E8D21036E0150A70F70
:102A0000E96E040E0320EA6EECCF90F5ED52EFCFA5
:102A10008FF58E6B0001E5D61BD00401F751080D30
:102A2000F35005018D6B8C6F050E8C25016E000E29
:102A30008D21036E0150A70FE96E040E0320EA6E8C
:102A4000ECCF90F5ED52EFCF8FF58E6B0001E6D60F
:102A50000401F751080DF35005018D6B8C6F070EC3
:102A60008C25016E000E8D21036E0150A70FE96EBB
:102A7000040E0320EA6EEF2A0401F751080DF3500B
:102A800005018D6B8C6FA70E8C25E96E040E8D21D0
:102A9000EA6E3C0EEF24006E000EEC20016E000E7C
:102AA000EC20026E000EEC20ED52ED52ED5200C013
:102AB000EFFF01C0ECFF02C0ECFFEC6EF7C483F542
:102AC0008353D8B484D08351080DF3508D6B8C6F31
:102AD000A70E8C25E96E040E8D21EA6EEFCF8EF5E0
:102AE000ECCF8FF5ECCF90F5ECCF91F5010E835D37
:102AF000080DF350936B926FA70E9225E96E040EAA
:102B00009321EA6EEFCF00F0ECCF01F0ECCF02F0B2
:102B1000ECCF03F00350915D55E30BE10250905D63
:102B200051E307E101508F5D4DE303E18E51005CFD
:102B300049E28351080DF350036AA70F016E040E9A
:102B4000032203C0E2FF01C0E1FFE6CF84F5E6CF38
:102B500085F58351080DF350036AA70F016E040E2B
:102B6000032201C08CF503C08DF5010E835D080DB5
:102B7000F350036AA70F016E040E032201C08EF505
:102B800003C08FF58DC5EAFF8CC5E9FF03C0E2FFE6
:102B900001C0E1FF020E016EE6CFEEFF012EFCD771
:102BA000010E835D080DF350036AA70F016E040E3A
:102BB000032203C0EAFF01C0E9FF84C5EEFF85C51B
:102BC000EEFF03D0040105D00501830779D700018A
:102BD000040100019EEF17F00401293D02D0FED050
:102BE000FDD029510E0DF3500501846B836F9D0EAE
:102BF0008325E96E030E8421EA6E0068016802688D
:102C0000036800C0EFFF01C0ECFF02C0ECFF03C08F
:102C1000ECFF040129510E0DF3500501846B836F05
:102C2000040E8325016E000E8421036E01509D0F5A
:102C3000E96E030E0320EA6EEFCF2AF4ECCF2BF4FB
:102C4000ECCF2CF4ECCF2DF4040129510E0DF350F0
:102C50000501846B836F040E8325016E000E8421B1
:102C6000036E01509D0FE96E030E0320EA6EEE52D3
:102C7000EE52EC6AED52EF6AED52EF6AED52EF6AF6
:102C8000040129510E0DF3500501846B836F080E6A
:102C90008325016E000E8421036E01509D0FE96EA5
:102CA000030E0320EA6EECCFC4F0ED52EFCFC3F079
:102CB000040129510E0DF3500501846B836F080E3A
:102CC0008325016E000E8421036E01509D0FE96E75
:102CD000030E0320EA6EEC6AED52EF6A030E000168
:102CE00085250501836F000E000186210501846F93
:102CF000000E000187210501856F000E000188216B
:102D00000501866F196AF2BE198EF29EBE6F85C5E7
:102D1000BDF584C5BCF583C5BBF5400EBF6F000192
:102D2000ECEC0BF019BEF28E040129510E0DF3509C
:102D30000501846B836F0A0E8325016E000E8421CA
:102D4000036E01509D0FE96E030E0320EA6EECCF77
:102D5000ADF0ED52EFCFACF0040129510E0DF35060
:102D60000501846B836F0A0E8325016E000E84219A
:102D7000036E01509D0FE96E030E0320EA6EEC6AAC
:102D8000ED52EF6A040129510E0DF3500501846BD9
:102D9000836F0D0E8325016E000E8421036E01509A
:102DA0009D0FE96E030E0320EA6EEFCFC0F0040121
:102DB00029510E0DF3500501846B836F0D0E832591
:102DC000016E000E8421036E01509D0FE96E030E0B
:102DD0000320EA6E060EEF6E04012907000111EFD1
:102DE00018F0006801680268036803C02DF402C08F
:102DF0002CF401C02BF400C02AF4196AF2BE198E1B
:102E0000F29E3E0E0501B76F000115EC04F019BEED
:102E1000F28EAD6BAC6B050EC06F5EEF18F0010E5D
:102E20008527D8B0862BD8B4872BD8B4882BA7ADEC
:102E300008D0010E8927D8B08A2BD8B48B2BD8B4F0
:102E40008C2B03019C3D01D03DD0825113083AE008
:102E50009C51050DF3500501846B836F830E832510
:102E6000E96E030E8421EA6EEFCF85F5ECCF86F58F
:102E7000ECCF87F5ECCF88F588510001885DD8B09C
:102E800002D003011FD01AE1050187510001875DBF
:102E9000D8B002D0030116D011E10501865100011E
:102EA000865DD8B002D003010DD008E1050185513F
:102EB0000001855DD8B002D0030104D0E6EF10F028
:102EC000C0D703010401F73D01D03DD0F751080DF3
:102ED000F3500501846B836FA70E8325E96E040E02
:102EE0008421EA6EEFCF85F5ECCF86F5ECCF87F540
:102EF000ECCF88F588510001885DD8B002D004017C
:102F000022D01AE1050187510001875DD8B002D0B7
:102F1000040119D011E1050186510001865DD8B088
:102F200002D0040110D008E1050185510001855D42
:102F3000D8B002D0040107D0F09895D4F088F19869
:102F40000301C0D70401293D01D06DD029510E0DD8
:102F5000F3500501846B836F9D0E8325E96E030E8C
:102F60008421EA6EEFCF85F5ECCF86F5ECCF87F5BF
:102F7000ECCF88F5885100018C5DD8B002D00401F7
:102F800052D01AE10501875100018B5DD8B002D003
:102F9000040149D011E10501865100018A5DD8B0D4
:102FA00002D0040140D008E1050185510001895D8E
:102FB000D8B002D0040137D005010551030802E161
:102FC000020E056F055102082AE00401F98D010E79
:102FD000000185250501836F000E00018621050192
:102FE000846F000E000187210501856F000E00012E
:102FF00088210501866F196AF2BE198EF29EBE6F96
:1030000085C5BDF584C5BCF583C5BBF5A00EBF6FF6
:103010000001ECEC0BF019BEF28E03D005010001AB
:10302000DBD5040190D72D5100018C5D47E311E100
:1030300004012C5100018B5D41E30BE104012B5194
:1030400000018A5D3BE305E104012A510001895D2D
:1030500035E305010551030802E1020E056F055134
:1030600002082AE00401F98D010E00018525050101
:10307000836F000E000186210501846F000E0001A0
:1030800087210501856F000E000188210501866FEB
:10309000196AF2BE198EF29EBE6F85C5BDF584C554
:1030A000BCF583C5BBF5A00EBF6F0001ECEC0BF0C7
:1030B00019BEF28E03D00501000193D6C15309E178
:1030C000C25307E105010551020802E1030E056F35
:1030D00006D005010551030802E1020E056F196AC9
:1030E000F2BE198EF29ED40EB76F000115EC04F0FB
:1030F00019BEF28E85511F0B0501836F846B856BA2
:10310000866B835336E1845334E1855332E1865331
:1031100030E1196AF2BE198EF29EB40EB76F00014B
:1031200015EC04F019BEF28E196AF2BE198EF29EE9
:10313000A10E0501B76F000115EC04F019BEF28E67
:10314000196AF2BE198EF29EA20E0501B76F000138
:1031500015EC04F019BEF28E196AF2BE198EF29EB9
:10316000A30E0501B76F000115EC04F019BEF28E35
:1031700005017B92000150EF00F045C547F544C5BD
:1031800046F556CF45F555CF44F57A92AE51855D5B
:103190000501B76F0001AF5186590501B86F0001F5
:1031A000B05187590501B96F0001B1518859050126
:1031B000BA6FBA5309E1B95307E12251B85D0DE383
:1031C00003E1B751215D09E288C0B1F087C0B0F0DA
:1031D00086C0AFF085C0AEF00AD04651445D000114
:1031E000A86F0501475145590001A96F050188C025
:1031F000B1F087C0B0F086C0AFF085C0AEF07A8283
:103200007B940001AFEF00F005010551030804E1D4
:103210004B51020801E10DD00551020804E14B5168
:10322000030801E106D00551030803E14B510308EF
:1032300000E04BC505F500011200F250C00B05017E
:103240004B6FF29CF29EF2BEFDD7120ED36E030EB0
:10325000D56E020EBA6E0F01516F630EBB6E050183
:103260004B51F212000139EF19F0FC6AD286D28874
:10327000E4D7EAEF50F00501643B0F0E6417645188
:10328000090803E3300E642702D0370E642764C5B3
:1032900001F0000112000F0E0501641764510908C6
:1032A00003E3300E642702D0370E642764C501F0B3
:1032B00000011200010E05015425566F000E552124
:1032C000576FF2CF58F5F29E57C5AAFF56C5A9FF12
:1032D000A69CA69EA680A85058BFF28E566FF2CF2D
:1032E00057F5F29E55C5AAFF54C5A9FFA69CA69EF8
:1032F000A680A85057BFF28E596F56C503F059519A
:10330000016E0350026E0001120005015751036E59
:103310005651562BD8B4572B5A6F03C05BF558C57E
:103320005CF5F250006EF29E5BC5AAFF5AC5A9FF7C
:103330005CC5A8FFA69CA69EA6840F01550EA76E8D
:10334000AA0EA76EA682A6B2FED7A6940050F212CD
:1033500059C55AF5F2CF00F0F29E57C5AAFF56C5DF
:10336000A9FF59C5A8FFA69CA69EA684550EA76EC8
:10337000AA0EA76EA682A6B2FED7A6940050F2129D
:1033800000011200F2CF56F5F29E55C5AAFF54C5B2
:10339000A9FFA69CA69EA680A850050156BFF28E46
:1033A000016E00011200F250006EF29E55C5AAFF98
:1033B00054C5A9FF56C5A8FFA69CA69EA6840F01CA
:1033C000550EA76EAA0EA76EA682A6B2FED7A69429
:1033D0000050F21200011200030E05015425566F31
:1033E000000E5521576FF2CF58F5F29E57C5AAFF30
:1033F00056C5A9FFA69CA69EA680A85058BFF28ECF
:10340000566F020E5425596F000E55215A6FF2CF98
:1034100057F5F29E5AC5AAFF59C5A9FFA69CA69EBC
:10342000A680A85057BFF28E596F010E54255A6FCF
:10343000000E55215B6FF2CF5CF5F29E5BC5AAFFD3
:103440005AC5A9FFA69CA69EA680A8505CBFF28E76
:103450005A6FF2CF5BF5F29E55C5AAFF54C5A9FF7E
:10346000A69CA69EA680A8505BBFF28E5D6F56C537
:1034700003F059C502F05AC501F05DC500F0000126
:1034800012000501556B546B000114DF02C04CF5AE
:1034900001C04BF50501013C09D04C3D07D0576BED
:1034A000566B596B586B000130DF0501556B546B3F
:1034B000000100DF02C096F001C095F00501556BD8
:1034C000020E546F00015EDF01C04EF00501556B26
:1034D000020E546F566B000166DF0501556B040E3A
:1034E000546F0001E7DE02C0C8F001C0C7F005015B
:1034F000556B060E546F0001DDDE02C0C6F001C040
:10350000C5F0C851020804E30BE1C751ED0808E219
:10351000C851080811E2FF0A03E1C751C4080CE2D0
:10352000050EC86FC76B0501576B040E566F050E6D
:10353000596F586B0001E9DEC651020804E30BE144
:10354000C551ED0808E2C651080811E2FF0A03E17F
:10355000C551C4080CE2050EC66FC56B0501576B5B
:10356000040E566F050E596F586B0001CEDE050133
:10357000556B080E546F00012FDF010E0024CB6F36
:10358000000E0120CC6F000E0220CD6F000E032034
:10359000CE6F0501556B0C0E546F00018BDE02C01F
:1035A000C2F001C0C1F00501576B0C0E566F59698E
:1035B00058690001AADE0CEF51F00501556B0E0EA3
:1035C000546F000177DE02C04CF501C04BF50501D8
:1035D0004B3D03D04C3D01D004D04CC507F54BC545
:1035E00006F5556B100E546F000164DE02C04CF5F9
:1035F00001C04BF505014B3D03D04C3D01D004D03B
:103600004CC509F54BC508F5556B120E546F0001FA
:1036100051DE02C04CF501C04BF505014B3D03D016
:103620004C3D01D004D04CC50BF54BC50AF5556B8C
:10363000140E546F00013EDE02C04CF501C04BF584
:1036400005014B3D03D04C3D01D004D04CC50DF5D8
:103650004BC50CF5556B160E546F00012BDE02C0E6
:103660004CF501C04BF505014B3D03D04C3D01D05D
:1036700004D04CC50FF54BC50EF5556B180E546FA5
:10368000000118DE02C04CF501C04BF505014B3DB1
:1036900003D04C3D01D004D04CC511F54BC510F5FD
:1036A000556B1A0E546F000105DE02C04CF501C0C7
:1036B0004BF505014B3D03D04C3D01D004D04CC52A
:1036C00013F54BC512F5556B1C0E546F0001F2DD5E
:1036D00002C04CF501C04BF505014B3D03D04C3DFC
:1036E00001D004D04CC515F54BC514F5556B1E0E15
:1036F000546F0001DFDD02C04CF501C04BF5050140
:103700004B3D03D04C3D01D004D04CC517F54BC503
:1037100016F5556B200E546F0001CCDD02C04CF540
:1037200001C04BF505014B3D03D04C3D01D004D009
:103730004CC519F54BC518F5556B220E546F000199
:10374000B9DD02C04CF501C04BF505014B3D03D07E
:103750004C3D01D004D04CC51BF54BC51AF5556B3B
:10376000240E546F0001A6DD02C04CF501C04BF5DC
:1037700005014B3D03D04C3D01D002D04BC51CF59B
:10378000556B260E546F000195DD02C04CF501C04B
:103790004BF505014B3D03D04C3D01D004D04CC549
:1037A0001EF54BC51DF5556B280E546F000182DDCB
:1037B00002C04CF501C04BF505014B3D03D04C3D1B
:1037C00001D004D04CC520F54BC51FF5556B2A0E12
:1037D000546F00016FDD02C04CF501C04BF50501CF
:1037E0004B3D03D04C3D01D004D04CC522F54BC518
:1037F00021F5556B2C0E546F00015CDD02C04CF5B9
:1038000001C04BF505014B3D03D04C3D01D004D028
:103810004CC524F54BC523F5556B2E0E546F000196
:1038200049DD02C04CF501C04BF505014B3D03D00D
:103830004C3D01D004D04CC526F54BC525F5000103
:103840000EEF51F0F29CF29EF2BEFDD7D59E69C5F7
:10385000D7FF68C5D6FFF294D58EC00EF2121200C3
:1038600005014D6B4C6B320E616E8B8AFE0E696FDB
:103870007A0E686F0001E6DFF2A4FED7C280340E34
:10388000016EC250830B0110C26E05014B6B4B5190
:10389000070809E3C282C2B2FED7C3504C27C45006
:1038A0004D234B2BF4D78B9AC2904D51130807E34D
:1038B00003E14C51870803E30001A7850501120EBF
:1038C000616E00018EEF20F0050EEA6E640EE96E67
:1038D000EF5007E0130E006E002EFED70000EF2E13
:1038E000F9D71200C69E9E967CC5C9FF020EC6BEC1
:1038F00005D09EA6FED7000EC5BC010E016E1200BB
:10390000A7A116D0C580C5B0FED77C0E05017C6F7F
:103910000001E8DF05017C6B0001E4DF800E05019A
:103920007A257B6F7C6F0001DDDFC584C5B4FED7CF
:103930001200A7A12AD005017A6B0001E1DFC58042
:10394000C5B0FED77C0E05017C6F0001CBDF400EB9
:1039500005017C6F0001C6DF0501656B65510F082D
:1039600010E364C503F063C5E9FF64C5EAFFEFCF68
:103970007CF50001B7DF0501632BD8B4642B652B00
:10398000EDD7C584C5B4FED700011200A7A12BD086
:10399000400E05017A6F0001B3DFC580C5B0FED7C8
:1039A0007C0E05017C6F00019DDF400E05017C6FE0
:1039B000000198DF0501656B65510F0810E364C5D0
:1039C00003F063C5E9FF64C5EAFFEFCF7CF50001B2
:1039D00089DF0501632BD8B4642B652BEDD7C58433
:1039E000C5B4FED7000112008C94140E006E002E98
:1039F000FED700008C84640E0501646F000164DF53
:103A0000C582C5B2FED7A7917C0E05017C6F00016F
:103A100069DF015001E1A781A7B104D0C584C5B415
:103A2000FED7FBD105017C6B00015CDF380E050180
:103A30007C6F000157DFC584C5B4FED7540E006EFD
:103A4000002EFED700D0C580C5B0FED77C0E050184
:103A50007C6F000147DF05017C6B000143DF400EF6
:103A600005017C6F00013EDFC584C5B4FED7540E4E
:103A7000006E002EFED700D0C580C5B0FED77C0EEC
:103A800005017C6F00012EDF400E05017C6F0001F7
:103A900029DF05017C6B000125DF05017C6B00013E
:103AA00021DF05017C6B00011DDF05017C6B00013E
:103AB00019DF05017C6B000115DF05017C6B00013E
:103AC00011DF05017C6B00010DDF1F0E05017C6F0E
:103AD000000108DF05017C6B000104DF05017C6B40
:103AE000000100DF05017C6B0001FCDE05017C6B41
:103AF0000001F8DE05017C6B0001F4DE05017C6B42
:103B00000001F0DE1F0E05017C6F0001EBDE1F0ED1
:103B100005017C6F0001E6DE05017C6B0001E2DE41
:103B200005017C6B0001DEDE05017C6B0001DADE45
:103B300005017C6B0001D6DE05017C6B0001D2DE45
:103B40001F0E05017C6F0001CDDE05017C6B0001BD
:103B5000C9DE05017C6B0001C5DE05017C6B00013F
:103B6000C1DE05017C6B0001BDDE05017C6B00013F
:103B7000B9DE05017C6B0001B5DE1F0E05017C6F0F
:103B80000001B0DE05017C6B0001ACDE05017C6B41
:103B90000001A8DE05017C6B0001A4DE05017C6B41
:103BA0000001A0DE05017C6B00019CDE1F0E0501FB
:103BB0007C6F000197DE05017C6B000193DE05013F
:103BC0007C6B00018FDE05017C6B00018BDE050143
:103BD0007C6B000187DE05017C6B000183DE050143
:103BE0007C6B00017FDE1F0E05017C6F00017ADE19
:103BF00005017C6B000176DE05017C6B000172DE45
:103C000005017C6B00016EDE05017C6B00016ADE44
:103C100005017C6B000166DE05017C6B000162DE44
:103C20001F0E05017C6F00015DDE1F0E05017C6F1C
:103C3000000158DE05017C6B000154DE05017C6B40
:103C4000000150DE05017C6B00014CDE05017C6B40
:103C5000000148DE05017C6B000144DE05017C6B40
:103C6000000140DE1F0E05017C6F00013BDE1F0ED0
:103C700005017C6F000136DE1F0E05017C6F00011F
:103C800031DE1F0E05017C6F00012CDE1F0E0501C9
:103C90007C6F000127DE1F0E05017C6F000122DE14
:103CA0001F0E05017C6F00011DDE05017C6B00010C
:103CB00019DEC584C5B4FED7C580C5B0FED70501E1
:103CC0007C6B00010FDE380E05017C6F00010ADEFF
:103CD000C584C5B4FED7C584C5B4FED7540E006EE6
:103CE000002EFED700D0C580C5B0FED77C0E0501E2
:103CF0007C6F0001F7DD05017C6B0001F3DD380E00
:103D000005017C6F0001EEDD540E006E002EFED723
:103D100000D0390E05017C6F0001E4DD540E006E09
:103D2000002EFED700D0140E05017C6F0001DADDF5
:103D3000740E05017C6F0001D5DD5E0E05017C6F00
:103D40000001D0DD6D0E05017C6F0001CBDD540E4E
:103D5000006E002EFED700D00C0E05017C6F000116
:103D6000C1DD010E05017C6F0001BCDD280E0501DF
:103D7000646F0001A9DD060E05017C6F0001B2DD54
:103D8000540E006E002EFED700D0380E05017C6F59
:103D90000001A8DD540E006E002EFED700D0C584B1
:103DA000C5B4FED7C580C5B0FED77C0E05017C6FBB
:103DB000000198DD05017C6B000194DD380E0501E2
:103DC0007C6F00018FDD180E05017C6F00018ADD1C
:103DD000200E05017C6F000185DD380E05017C6F2A
:103DE000000180DDC584C5B4FED7EA6A700EE96EB5
:103DF000000E65EC02F00A000900F550EE6E0009B5
:103E0000FBE10501646B700E636F000192DD05013B
:103E1000646B700E636F0001B9DD12000501696902
:103E2000D90E686F00010EDDC7A002D0F2A4FCD746
:103E3000C7B004D0C580C5B0FED70ED0A196C69E2F
:103E4000CB90CB92CB96060EC86E280EC66EC78E50
:103E5000C79CC582C5B2FED7120055C57CF542DDB0
:103E600001500501569101B0568100011200D6DFC4
:103E7000580E0501556F0001F0DF0501556B00017B
:103E8000ECDF54C555F5E9DF100E0501556F000153
:103E9000E4DF54C555F5E1DF600E0501556F000103
:103EA000DCDF54C555F5D9DF700E0501556F0001F3
:103EB000D4DF54C555F5D1DFC584C5B4FED7AEDF18
:103EC000580E0501556F0001C8DF400E0501556F02
:103ED0000001C3DF050155690001BFDFA00E050128
:103EE000556F0001BADF050155690001B6DFC584D1
:103EF000C5B4FED754C5BAF012000501565306E109
:103F0000575304E1F00E66168A9628D05651900851
:103F100006E1572D04D0F00E66168A861FD08A96C9
:103F20000C0E666E656A646A010E636EE70E0F0121
:103F30004917100E491305015651030B006E003A44
:103F4000F00E0016005066125731596F5631586FF7
:103F5000593358333F0E591758C567FF57C5B5F049
:103F600056C5B4F00001120059DF400E0501556F2F
:103F7000000173DF300E0501556F00016EDF050192
:103F80004C374D374C374D374C374D374C374D3715
:103F9000F00E4C174DC54EF54DC555F500015DDFD2
:103FA0004CC54EF54CC555F558DFC584C5B4FED794
:103FB0004DC5BFF04CC5BEF009EF20F005014B6BBD
:103FC00000012CDF400E05017C6F00018BDC0150ED
:103FD00005014B27600E7C6F000184DC0150050158
:103FE0004B277C6B00017EDC015005014B277C6B6D
:103FF000000178DC015005014B274B5303E0000121
:10400000A7890501C584C5B4FED74D6B4C6B000173
:10401000ABD798EF20F0F29CF29EF2BEFDD70F01D5
:10402000426B416BC290436B446B456B476B466B75
:10403000776A040E786E796E496B486BC150F00B4D
:10404000C16E030E386F000E3C6F010E396F000E0B
:104050003A6F3B6FC068C190C192C194C196040E83
:10406000616EF19EAB9EAB98AC9A740E896E180E81
:104070008A6E450E8B6E760E8C6E8D6A8B0E926EEE
:10408000F70E936E9A0E946E800E956E96909692A1
:1040900096849686D56A8F0ECD6ECC6ACD90CF6A07
:1040A000CE6ABA94BC6AB46AB16EB190B36AB26AAD
:1040B000000E516F000E526F4D6B8F0E4E6F4E9172
:1040C000506B4F6B4A954C6B030ED56E2C0EBA6E2F
:1040D0004A6F630EBB6E4B6FF00EBD1666165D1712
:1040E00057175417F26AF16AF06AD08E9E6AA16A75
:1040F000A46A7B6A7E6A9D6AA06AA36A7A6A7D6AFC
:10410000100E626ECB90CB92CB96060EC86E280E28
:10411000C66EC78EC79C000130EF1CF065DCBAC0CC
:1041200054F5A5DEB5C057F5B4C056F5E6DE46D762
:104130008C867D0E0501646F000164EC1CF010EFAD
:1041400051F005014B6B4B5113080AE3036A4B51C5
:104150006E0FE96E030E0320EA6EEF6A4B2BF3D766
:10416000000112EF51F005014B6B4B51040828E39D
:104170004B51050DF3504D6B4C6F040E4C25016EE9
:10418000000E4D21036E0150830FE96E030E0320D4
:10419000EA6EEF6A4B51050DF3504D6B4C6F830E79
:1041A0004C25E96E030E4D21EA6EEE52EE52EC6A9A
:1041B000ED52EF6AED52EF6AED52EF6A4B2BD5D715
:1041C000000114EF51F07A92040EEA6EA70EE96E28
:1041D000006A026A500E016E3AEC11F07A9216EF04
:1041E00051F0886B876B866B856B800E0F01596F62
:1041F000586B0B0E576FFC0E4817010E48137B923D
:10420000B46A8B0EB16EB36AB26A7B927A82000195
:1042100018EF51F00F014D6B8B0E4E6F546B050E66
:10422000546FF30E4817080E48137B947D927A84DE
:1042300000011AEF51F005016B6B6A6B66CF6DF5EB
:104240006C918AB66C81C280000E016EC250830BE5
:104250000110C26E682D03D0F00E66168A96696B47
:104260006951030809E3C282C2B2FED7C3506A276C
:10427000C4506B23692BF4D78A966CB18A866DC5BE
:1042800066FFC2906AC501F06BC502F00001120022
:1042900005015A6B596B66CF5CF55B918AB65B8101
:1042A000C280300E016EC250830B0110C26E572DBA
:1042B00003D0F00E66168A96586B5851020809E32F
:1042C000C282C2B2FED7C3505927C4505A23582BBA
:1042D000F4D78A965BB18A865CC566FFC2905AC5E0
:1042E000BDF059C5BCF059C501F05AC502F0000136
:1042F00012004FC534F04EC533F04DC532F04CC5F9
:1043000031F004EF22F0016A026A006A036A0501D3
:10431000785102E1775118E0100E796FD890753717
:104320007637003603367851035C02E17751005C42
:1043300007E37751005ED8A003067851035ED8806A
:1043400001360236792FEAD700011200196AF2BE4F
:10435000198EF29E34C090F533C08FF532C08EF5C1
:1043600031C08DF5410E0501946FC60E936F4E0E50
:10437000926F6D0E916F000109EC0DF019BEF28E77
:10438000390E05010024316E300E0120326E000E10
:104390000220336E000E0320346E33C000F034C0B0
:1043A00001F0026A036A34C04DF533C04CF534C0E5
:1043B00076F533C075F57F0E786F77690001A3DF5E
:1043C00000C001F003C002F005EF22F00501686BA8
:1043D000000131DF02C04CF501C04BF5000E036A4D
:1043E000031009E10501576B000152DF0150021073
:1043F00002E1000E01D0010E05014B6F4F6B4E6BB9
:104400004D6B4C6F000175D7A1D702C066F301C098
:1044100065F30CEF22F0DAD7F092F088F1981CEFF8
:1044200051F003019C51040803E1000E016E1ED1FE
:104430009C2B9C51050DF35005015D6B5C6F040EC8
:104440005C25016E000E5D21036E0150830FE96E45
:10445000030E0320EA6E5AC5EFFF03019C51050DC0
:10446000F35005015D6B5C6F830E5C25E96E030EF6
:104470005D21EA6E56C5EFFF57C5ECFF58C5ECFF4E
:1044800059C5ECFF9CC35BF55B53D8B4ECD05B51D2
:10449000050DF3505D6B5C6F830E5C25E96E030EBA
:1044A0005D21EA6EEFCF5EF5ECCF5FF5ECCF60F506
:1044B000ECCF61F5010E5B5D050DF350636B626F30
:1044C000830E6225E96E030E6321EA6EEFCF00F0E2
:1044D000ECCF01F0ECCF02F0ECCF03F00350615DC4
:1044E000D8A0BAD00EE10250605DD8A0B5D009E1E5
:1044F00001505F5DD8A0B0D004E15E51005CD8B03F
:10450000ABD05B51050DF3505D6B5C6F040E5C2509
:10451000016E000E5D21036E0150830FE96E030EE4
:104520000320EA6EEFCF5AF55B51050DF3505D6B3A
:104530005C6F040E5C25016E000E5D21036E015060
:10454000830F016E030E032201C05CF503C05DF50D
:10455000010E5B5D050DF3505F6B5E6F040E5E2513
:10456000016E000E5F21036E0150830FE96E030E92
:104570000320EA6EEFCF5EF55DC5EAFF5CC5E9FF9B
:104580005EC5EFFF010E5B5D050DF3505D6B5C6F6B
:10459000040E5C25016E000E5D21036E0150830F39
:1045A000E96E030E0320EA6E5AC5EFFF5B51050D5D
:1045B000F3505D6B5C6F830E5C25E96E030E5D212D
:1045C000EA6EEFCF56F5ECCF57F5ECCF58F5ECCFC0
:1045D00059F55B51050DF3505D6B5C6F830E5C25E7
:1045E000016E030E5D21036E01C05EF55F6F010E6B
:1045F0005B5D050DF350616B606F830E6025E96EA6
:10460000030E6121EA6EEFCF00F0ECCF01F0ECCFAA
:1046100002F0ECCF03F05FC5EAFF5EC5E9FF00C022
:10462000EFFF01C0ECFF02C0ECFF03C0ECFF010E86
:104630005B5D050DF3505D6B5C6F830E5C25E96E71
:10464000030E5D21EA6E56C5EFFF57C5ECFF58C556
:10465000ECFF59C5ECFF05D0010E016E030106D039
:1046600005015B0711D7010E016E03010001120065
:104670008C98FC0E0501696F300E686F000122EC0A
:104680001CF0F2A4FED78C887A92060E85250501CF
:104690004B6F000E0001862105014C6F000E0001DA
:1046A000872105014D6F000E0001882105014E6F25
:1046B000596F4DC558F54CC557F54BC556F5100EFD
:1046C0005A6F0001AEDE7A82120003018251130894
:1046D00003E1000E016E5AD0822B036A82516E0FE5
:1046E000E96E030E0320EA6E52C5EFFF82C353F555
:1046F0000501535348E0036A53516E0FE96E030EF0
:104700000320EA6EEFCF54F5010E535D036A6E0F7E
:10471000E96E030E0320EA6EEF50545D2DE02CE3AA
:10472000036A53516E0FE96E030E0320EA6EEFCF5A
:1047300052F5036A53516E0F016E030E032203C03C
:1047400055F5010E535D036A6E0FE96E030E0320EB
:10475000EA6EEFCF56F555C5EAFF01C0E9FF56C531
:10476000EFFF010E535D036A6E0FE96E030E032027
:10477000EA6E52C5EFFF05D0010E016E030106D0AF
:1047800005015307B6D7010E016E030100011200A7
:10479000F290F286628860EF51F08E0E006E69C56D
:1047A00001F068C502F0036A015209E102C001F09C
:1047B000026A080E005E015202E1006A08D0D89039
:1047C00001BE04D0023601360006F9D7019E120060
:1047D00005016851D8B4A5D0746F6C51D8B4A1D07C
:1047E000745F05E37F0E7427D8B09BD006D0810E8E
:1047F000745FD8A096D0D8B494D074C500F0016A84
:10480000026A036A736B69C572F5728F6AC571F5C6
:104810006BC570F5190E746F6F51705F0DE2010E6C
:10482000715F0AE2725F08E2735F06E2732B722B1C
:10483000712B6F51702728D06E51715F12E2010EFB
:10484000725F0FE2735F0DE2732B722B6E51712753
:104850006F51702719E3712B17E1722B15E1732B40
:1048600013D06D518009725F0EE2010E735F0BE28F
:10487000732B6D51800972276E517127E9E3722BFA
:10488000E7E1732BE5D70380742F01D00BD0D890CC
:104890007037713772377337D89003360236013666
:1048A0007537BAD775A106D0D890013202320332DB
:1048B000753302D0000635E075BF1ED0D890703732
:1048C0007137723773376F51705F07E2010E715F96
:1048D00004E2725F02E2735F1AE36E51715F05E2F8
:1048E000010E725F02E2735F12E36D518009725F25
:1048F00003E2010E735F0BE3032A09E1022A07E1D9
:10490000012A05E1002A0DE001320232033269C5B5
:1049100074F56D51741B74AF02D0018E06D0019EE8
:1049200004D0006A016A026A036A000112000501EC
:104930006851B608686F036A69C56CF5698FD890CD
:1049400069336A336B330332023201320032682F2B
:10495000F6D76CAF0BD0001E011E021E031E002AEC
:10496000D8B4012AD8B4022AD8B4032A000112000C
:1049700005016A516C03F3CF01F0F4CF00F06D0331
:10498000F35000266B516C03F3500020026E0001BF
:10499000120058C569F557C568F5FFDE9A0E050186
:1049A0006B6F990E6A6F190E696F950E686F03C071
:1049B0006FF502C06EF501C06DF500C06CF5000129
:1049C00007DF03C06BF502C06AF501C069F500C0DE
:1049D00068F5ADDF03C060F502C05FF501C05EF5AC
:1049E00000C05DF5196AF2BE198EF29E60C590F5A1
:1049F0005FC58FF55EC58EF55DC58DF50501946BC0
:104A0000936B030E926F9169000109EC0DF019BED2
:104A1000F28E03C060F502C05FF501C05EF500C014
:104A20005DF55FC566F55EC565F505016639026E23
:104A30000F0E021602C059F566510F0B65C561F5E0
:104A4000626F636B646B196AF2BE198EF29E64C565
:104A500090F563C58FF562C58EF561C58DF5946BD4
:104A6000936B030E926FE80E916F000109EC0DF04D
:104A700019BEF28E03C060F502C05FF501C05EF59D
:104A800000C05DF505015EC55DF55FC55EF560C5FD
:104A90005FF5606B60335F335E335D3360335F338C
:104AA0005E335D3360335F335E335D3360335F337A
:104AB0005E335D330F0E60175EC566F55DC565F547
:104AC00066C576F565C575F5786B640E776F000180
:104AD0001ADC01C05AF50501686B5AC567F568C54F
:104AE0006BF55AC56AF56D6B640E6C6F000140DFA3
:104AF00001500501655F0250665B66C576F565C5C8
:104B000075F5786B0A0E776F000183EC21F001C018
:104B10005BF566C576F565C575F50501786B0A0E1A
:104B2000776F000183EC21F000C05CF50501686B34
:104B30005939686F676BF00E68176A6B5AC503F0D6
:104B4000000E67275A5168236A6B5B35026E6A351F
:104B5000036E023603360236033602360336F00E93
:104B600002160250672703506823036A5C516725C9
:104B7000016E6851032203C002F0000126EF26F007
:104B8000A7A116D0C580C5B0FED77C0E05017C6FED
:104B9000000172EC1CF0400E05017C6F000172EC0C
:104BA0001CF05AC57CF572EC1CF0C584C5B4FED768
:104BB000F3EF25F0A7A117D0050159510F0814E311
:104BC000585307E159C57AF5000180EC1CF008D074
:104BD0000501400E59255A6F7A6F000180EC1CF0D8
:104BE00057C55AF5CDD7050100011200A7A1C8D0BD
:104BF00005014D510F0803E20001C2D005014E51DD
:104C0000030802E2030E4E6F4E51030804E14D51BA
:104C10000B0801E24E074E51020804E14D510C0809
:104C200001E24E074E2D04D04D510D0801E24E0712
:104C3000010E686F00011BEC21F002C056F501C0A7
:104C400055F502C058F501C057F5A3D602C050F57E
:104C500001C04FF505015039026E036A0F0E0216AE
:104C60000250300F516F556B50510F0B566F036A46
:104C7000300F526F4F51F00B556F566B5631036E1C
:104C80005531026E033202320332023203320232F3
:104C90000F0E03160250300F536F4F510F0B006E63
:104CA0000050300F546F4E51000A000105E0010A18
:104CB0000AE0030A15E026D005015251350801E249
:104CC000512B00011FD005015351350801E2522B31
:104CD0005251390803E2512B300E526F000112D0AD
:104CE00005015451350801E2532B5351390803E2B1
:104CF000522B300E536F5251390803E2512B300EB4
:104D0000526F000105014D514D2B556F51C557F59F
:104D10004CC558F5596F00014DDF05014E5331E088
:104D20004D514D2B556F2E0E576F4CC558F555C52F
:104D300059F500013FDF05014D514D2B556F52C50F
:104D400057F54CC558F5596F000134DF05014E5138
:104D500001080BE24D514D2B556F53C557F54CC50E
:104D600058F5596F000126DF05014E51020809E28E
:104D700054C557F54CC558F54DC559F500011ADF16
:104D8000050100011200A7A126D0EA6A700EE96EA3
:104D9000000E76EC02F00A000900F550EE6E0009F4
:104DA000FBE105014B5308E1646B700E636F00017A
:104DB00099EC1CF007D00501646B700E636F000165
:104DC000C6EC1CF04BC54CF5080E05014D6F020EEC
:104DD0004E6F00010BDF65EF51F0A7A129D0EA6A01
:104DE000700EE96E000E87EC02F00A000900F55023
:104DF000EE6E0009FBE14EC064F53BEC19F001C01A
:104E00007EF04EC064F54BEC19F001C07FF0050157
:104E10004B5308E1646B700E636F000199EC1CF05A
:104E200007D00501646B700E636F0001C6EC1CF0C7
:104E30006BEF51F00501636B6351030820E3629847
:104E4000E70E936E8A98FC0E696F300E686F000152
:104E500022EC1CF0F2A4FED7F70E936EF286628865
:104E60008994FC0E0501696F300E686F000122EC19
:104E70001CF0F2A4FED789840501632BDDD7000165
:104E80001200BA94BC6A4BC5BBFF9E92BA84120052
:104E90000501576B000148EC21F002C057F501C035
:104EA00056F5640E0501565F000E575B57C56BF54E
:104EB00056C56AF56D6B140E6C6F000159DD02C0AA
:104EC00057F501C056F502C076F501C075F505012C
:104ED000786B640E776F000183EC21F002C055F50A
:104EE000050101C054F555BF05D0555307E1545194
:104EF000060804E3556B070E546F07D055BF05D065
:104F00005551000802E2556B546954C501F0000187
:104F1000F0EF29F07A94B1C059F5B0C058F5AFC0A0
:104F200057F5AEC056F57A84050156510001855DEE
:104F300005015A6F57510001865905015B6F5851A1
:104F40000001875905015C6F59510001885905011D
:104F50005D6F5D5309E15C5307E122515B5D09E33D
:104F600003E15A51215D05E2000E016E026E3FD051
:104F70003BD07A94A9C05AF5A8C05BF55F6B5E6B15
:104F8000A9C05DF5A8C05CF5D892196AF2BE198E69
:104F9000F29E990EA46FA36FA26F9A0EA16F5FC5C8
:104FA000A8F55EC5A7F5A9C0A6F5A8C0A5F500019E
:104FB00093EC12F019BEF28E03C059F502C058F5F9
:104FC00001C057F500C056F57A8459C555F558C546
:104FD00054F5050157AF03D0542BD8B4552B54C505
:104FE00001F055C502F003D0000E016E026E000103
:104FF00000EF2AF00401F751090801E183D105010E
:105000005451A008D8A498D00401FC51F85D36E1B1
:10501000FD51F95D33E1FE51FA5D30E1FF51FB5D79
:105020002DE1050100510001855D05015E6F015113
:105030000001865905015F6F025100018759050182
:10504000606F0351000188590501616F6153D8B445
:1050500002D0040113D06053D8B402D004010ED0A2
:105060005F53D8B402D0040109D05E513B08D8B0D8
:1050700002D0040103D0040145D110D0FBC4FFF4D9
:10508000FAC4FEF4F9C4FDF4F8C4FCF488C003F5D6
:1050900087C002F586C001F585C000F5F7C455F557
:1050A0000501555349E0553D01D046D05551080DF5
:1050B000F3505F6B5E6F040E5E25016E000E5F2184
:1050C000036E0150A70FE96E040E0320EA6EEF5045
:1050D000A00830E15551080DF3505F6B5E6F050E6F
:1050E0005E25016E000E5F21036E0150A70FE96E71
:1050F000040E0320EA6E0301652BD8B4662B66C349
:10510000ECFFED5265C3EFFF05015551080DF3505B
:105110005F6B5E6F070E5E25016E000E5F21036EF2
:105120000150A70FE96E040E0320EA6EEF6A040136
:10513000E9D005015507B5D70401F72B0301652B0D
:10514000D8B4662B0401F751080DF35005015F6BCD
:105150005E6FA70E5E25E96E040E5F21EA6E85C0C4
:10516000EFFF86C0ECFF87C0ECFF88C0ECFF0401B6
:10517000F751080DF35005015F6B5E6F040E5E255D
:10518000016E000E5F21036E0150A70FE96E040E41
:105190000320EA6E54C5EFFF0401F751080DF350E8
:1051A00005015F6B5E6F050E5E25016E000E5F21CF
:1051B000036E0150A70FE96E040E0320EA6E66C36A
:1051C000ECFFED5265C3EFFF0401F751080DF350FA
:1051D00005015F6B5E6F070E5E25016E000E5F219D
:1051E000036E0150A70FE96E040E0320EA6EEF6A0A
:1051F000F7C455F55553D8B484D05551080DF35024
:105200005F6B5E6FA70E5E25E96E040E5F21EA6E8E
:10521000EFCF60F5ECCF61F5ECCF62F5ECCF63F545
:10522000010E555D080DF350656B646FA70E642584
:10523000E96E040E6521EA6EEFCF00F0ECCF01F0CD
:10524000ECCF02F0ECCF03F00350635D55E30BE1CC
:105250000250625D51E307E10150615D4DE303E1FE
:105260006051005C49E25551080DF350036AA70FE5
:10527000016E040E032203C0E2FF01C0E1FFE6CF8E
:1052800056F5E6CF57F55551080DF350036AA70FB1
:10529000016E040E032201C05EF503C05FF5010E2E
:1052A000555D080DF350036AA70F016E040E03222B
:1052B00001C060F503C061F55FC5EAFF5EC5E9FFA7
:1052C00003C0E2FF01C0E1FF020E016EE6CFEEFF78
:1052D000012EFCD7010E555D080DF350036AA70F90
:1052E000016E040E032203C0EAFF01C0E9FF56C5A8
:1052F000EEFF57C5EEFF03D0040104D005015507AA
:1053000079D70401000112000501565306E15753F5
:1053100004E1F00EBD168B8428D05651900806E1AA
:10532000572D04D0F00EBD168B941FD08B940F0E0A
:10533000BD6EB76AB66A010EB96EFC0E0F01491751
:10534000020E491305015651030B006E003AF00E90
:1053500000160050BD125731596F5631586F5933EE
:1053600058333F0E591758C5BEFF57C5B3F056C541
:10537000B2F000011200006801680268036803C00F
:105380002DF402C02CF401C02BF400C02AF4196AD9
:10539000F2BE198EF29E3E0E0501B76F000115ECAC
:1053A00004F019BEF28EAD6BAC6B050EC06F12002F
:1053B0007A92030EEA6E9D0EE96E006A026A8C0E06
:1053C000016E3AEC11F0040129690001AD6BAC6B80
:1053D000050EC06F7A821200C051050803E058D54F
:1053E00001C0BBF0BBC054F537EC1FF005013F070F
:1053F00003E0D3EF2DF002D0010E3F6F00018AD5FC
:1054000002C0ABF001C0AAF0C051F60FD8B0D2EF85
:105410002DF00A0FD6EF2DF0AC51AA5D0501546FA7
:105420000001AD51AB590501556F036E545155AF95
:1054300008D0000ED8805455006E000E5555036EEE
:1054400000504B6F03C04CF54C5303E14B513108F6
:1054500005E20A0E516F050E3F6F22D04C5303E157
:105460004B51180805E2050E516F060E3F6F18D01C
:105470004C5303E14B51090805E2040E516F070E2E
:105480003F6F0ED04C5303E14B51040805E2020E6E
:10549000516F080E3F6F04D0010E516F0A0E3F6F1F
:1054A0000001AD51AB5DD8A079D004E1AA51AC5D4B
:1054B000D8B074D0B451900845E1B52D43D0B25165
:1054C000900807E1B32D05D0AA3D03D0AB3D01D034
:1054D00038D0B25190080CE1B32D0AD00401F88BFA
:1054E0007A92A00E0501546F000184DD7A8229D0E2
:1054F000050151510001B2250501546F000E000154
:10550000B3210501556F00080DE2FF0A03E1545174
:10551000900808E2010E576F900E566F0001F4DEFE
:1055200010D0050151510001B2250501546F000E44
:105530000001B3210501556F576F54C556F50001A1
:10554000E3DE2BD0050151510001B4250501546F54
:10555000000E0001B5210501556F00080EE2FF0A9B
:1055600003E15451900809E2010E576F900E566FF7
:1055700000017DEC1FF011D0050151510001B4254F
:105580000501546F000E0001B5210501556F576FDD
:1055900054C556F500017DEC1FF075D0AB51AD5DE3
:1055A000D8A071D004E1AC51AA5DD8B06CD0B25390
:1055B00043E1B35341E1B45307E1B55305E1AA53C5
:1055C00003E1AB5301E137D0B4530CE1B5530AE129
:1055D0000401F8897A92A00E0501546F00010ADDDA
:1055E0007A8229D0050151510001B45D0501546F43
:1055F000000E0001B5590501556F00080CE2FF0AC5
:1056000003E15451900807E2576B566B00017DECA3
:105610001FF011D0050151510001B45D0501546F17
:10562000000E0001B5590501556F576F54C556F569
:1056300000017DEC1FF027D0050151510001B25D42
:105640000501546F000E0001B3590501556F0008A4
:105650000BE2FF0A03E15451900806E2576B566BC8
:10566000000152DE10D0050151510001B25D05016B
:10567000546F000E0001B3590501556F576F54C5A3
:1056800056F5000141DE8ED2AC51AA5D0501546F82
:105690000001AD51AB590501556F036E545155AF23
:1056A00008D0000ED8805455006E000E5555036E7C
:1056B00000504B6F03C04CF54C5303E14B51310884
:1056C00005E20F0E516F050E3F6F22D04C5303E1E0
:1056D0004B51180805E20A0E516F050E3F6F18D0A6
:1056E0004C5303E14B51090805E2050E516F070EBB
:1056F0003F6F0ED04C5303E14B51040805E2020EFC
:10570000516F080E3F6F04D0010E516F080E3F6FAE
:105710000001AD51AB5D3EE303E1AA51AC5D3AE25D
:10572000B251900807E1B32D05D0AA3D03D0AB3D9F
:1057300001D02FD0B251900803E1B32D01D029D070
:10574000050151510001B2250501546F000E000101
:10575000B3210501556F00080DE2FF0A03E1545122
:10576000900808E2010E576F900E566F0001CCDDD5
:1057700010D0050151510001B2250501546F000EF2
:105780000001B3210501556F576F54C556F500014F
:10579000BBDD45D0AB51AD5D42E303E1AC51AA5D49
:1057A0003EE2B25307E1B35305E1AA5303E1AB5321
:1057B00001E135D0B2530CE1B3530AE10401F88999
:1057C0007A92A00E0501546F000114DC7A8227D072
:1057D000050151510001B25D0501546F000E000139
:1057E000B3590501556F00080BE2FF0A03E154515C
:1057F000900806E2576B566B000186DD10D005015C
:1058000051510001B25D0501546F000E0001B35902
:105810000501556F576F54C556F5000175DDC05130
:10582000020825E1B45302E1B55320E0040EB45D53
:105830000501546F000E0001B5590501556F0008B0
:105840000AE2FF0A03E15451900805E20001B56B3A
:10585000B46B06D00501040E0001B45F000EB55B09
:10586000B5C057F5B4C056F57DEC1FF02CD0C05331
:105870002AE1040EB4250501546F000E0001B52184
:105880000501556F00080DE2FF0A03E154518F082E
:1058900008E2010E0001B56F900EB46F010EC06FEB
:1058A0000CD00001B25305E1B35303E1010EC06F08
:1058B00004D0040EB427000EB523B5C057F5B4C00C
:1058C00056F57DEC1FF06ED1B651B25D0501546FF7
:1058D0000001B751B3590501556F036E545155AFCF
:1058E00008D0000ED8805455006E000E5555036E3A
:1058F00000504D6F03C04EF50001B851B45D050175
:10590000546F0001B951B5590501556F036E5451DB
:1059100055AF08D0000ED8805455006E000E555576
:10592000036E00504F6F03C050F54E5303E14D51CD
:10593000C70803E2140E526F1ED04E5303E14D51BF
:10594000630803E20A0E526F16D04E5303E14D5125
:10595000310803E2050E526F0ED04E5303E14D5154
:10596000090803E2020E526F06D04D5302E14E5376
:1059700002E0010E526F0001B751B35D10E303E185
:10598000B251B65D0CE2050152510001B25F000E4A
:10599000B35BB3C057F5B2C056F5B6DC12D0B35105
:1059A000B75D0FE303E1B651B25D0BE20501525161
:1059B0000001B227000EB323B3C057F5B2C056F5AD
:1059C000A3DC0501505303E14F51C70803E2140E55
:1059D000536F1ED0505303E14F51630803E20A0E88
:1059E000536F16D0505303E14F51310803E2050EB7
:1059F000536F0ED0505303E14F51090803E2020EDA
:105A0000536F06D04F5302E1505302E0010E536F23
:105A10000001B951B55D11E303E1B451B85D0DE288
:105A2000050153510001B45F000EB55BB5C057F5D9
:105A3000B4C056F57DEC1FF013D0B551B95D10E33D
:105A400003E1B851B45D0CE2050153510001B427E4
:105A5000000EB523B5C057F5B4C056F57DEC1FF068
:105A6000010E05013F6F00019DD0AB5305E1AA5126
:105A700005011C5D1EE20001AA3D05D0AB3D03D02F
:105A8000050117D000018D52D8A402D0050111D014
:105A90007A90C2C0C4F0C1C0C3F07A80C06B7A9261
:105AA000920E0501546F0001FAEC27F07A8228D09B
:105AB00005018D520FE00001C151C35D0501546F16
:105AC0000001C251C4590501556F030803E3640E78
:105AD0003F6F17D08D5215E10401F98B7A92A00E19
