:020000040000FA
:1000000084EF17F0FFFFFFFF77EF00F00000000024
:100010000000000000000000046ED8CF05F0E0CF23
:1000200006F00001E9CF0CF0EACF07F0E1CF08F0CD
:10003000E2CF09F0D9CF0AF0DACF0BF0F3CF12F00C
:10004000F4CF13F0FACF14F0F5CF15F0F6CF16F089
:10005000F7CF17F000C00EF001C00FF002C010F093
:1000600003C011F0F2AA38EF00F0F2B483EF03F00E
:10007000A0A23EEF00F0A1B2FFEF03F0F0A844EF22
:1000800000F0F0B250EF0BF0F2A64AEF00F0F2B041
:100090000CEF03F07AA050EF00F07BB0BAEF03F062
:1000A0000EC000F00FC001F010C002F011C003F04C
:1000B0000CC0E9FF07C0EAFF078E08C0E1FF09C0D6
:1000C000E2FF0AC0D9FF0BC0DAFF12C0F3FF13C072
:1000D000F4FF14C0FAFF15C0F5FF16C0F6FF17C0F5
:1000E000F7FF045006C0E0FF05C0D8FF10001A6EED
:1000F000D8CF1BF0E0CF1CF00001E9CF22F0EACF0F
:100100001DF0E1CF1EF0E2CF1FF0D9CF20F0DACF03
:1001100021F0F3CF28F0F4CF29F0FACF2AF0F5CF71
:100120002BF0F6CF2CF0F7CF2DF000C024F001C05B
:1001300025F002C026F003C027F09DA2A3EF00F037
:100140009EB22BEF03F07AA4A9EF00F07BB414EF7A
:1001500003F024C000F025C001F026C002F027C043
:1001600003F022C0E9FF1DC0EAFF1D8E1EC0E1FFA3
:100170001FC0E2FF20C0D9FF21C0DAFF28C0F3FF73
:1001800029C0F4FF2AC0FAFF2BC0F5FF2CC0F6FFF0
:100190002DC0F7FF1A501CC0E0FF1BC0D8FF100095
:1001A000F76AB00FF66E010EF7220900F550120043
:1001B0000027E250805AC352008EA45480C1855655
:1001C00080466858007A495A80AD2A5C00E10B5E8F
:1001D0000066EE5F8099CF6100CDB06380009265CC
:1001E0008085746700B9556980EC366B0020186D06
:1001F00000A5FA6E80D8DB70000CBD72803F9E7443
:1002000080C4807600F86178802B437A005F247C7C
:1002100000E4067E8017E87F004BC981807EAA83B8
:1002200080038D8500376E87806A4F89009E308BF2
:100230000023138D8056F48E008AD59080BDB6922F
:100240008042999400767A9680A95B9800DD3C9A6A
:1002500000621F9C8095009E00C9E19F80FCC2A1A6
:100260008081A5A300B586A580E867A7001C49A9E1
:1002700000A12BAB80D40CADF76A880FF66E020E8E
:10028000F7220900F5501200303030303030303075
:10029000303031313131313131313131323232324C
:1002A0003232323232323333333333333333333324
:1002B00034343434343434343434353535353535F8
:1002C00035353535363636363636363636363737D0
:1002D00037373737373737373838383838383838A6
:1002E000383839393939393939393939F76AFC0FF8
:1002F000F66E020EF7220900F5501200303132334B
:100300003435363738393031323334353637383999
:1003100030313233343536373839303132333435A1
:100320003637383930313233343536373839303181
:100330003233343536373839303132333435363775
:100340003839303132333435363738393031323369
:100350003435363738393031323334353637383949
:100360006E0FF66E030EF7220900F5501200000022
:10037000891112239B322446AD573665BF74488CD1
:10038000C19D5AAFD3BE6CCAE5DB7EE9F7F8811098
:10039000080193331A22A5562C47B7753E64C99CB1
:1003A000408DDBBF52AEEDDA64CBFFF976E8022177
:1003B0008B30100299132667AF763444BD554AAD91
:1003C000C3BC588ED19F6EEBE7FA7CC8F5D9833158
:1003D0000A2091121803A7772E66B5543C45CBBD71
:1003E00042ACD99E508FEFFB66EAFDD874C9044237
:1003F0008D5316619F702004A9153227BB364CCE51
:10040000C5DF5EEDD7FC6888E1997AABF3BA855217
:100410000C4397711E60A1142805B3373A26CDDE30
:1004200044CFDFFD56ECE9986089FBBB72AA0663F6
:100430008F7214409D512225AB343006B9174EEF10
:10044000C7FE5CCCD5DD6AA9E3B8788AF19B8773D7
:100450000E6295501C41A3352A24B1163807CFFFF0
:1004600046EEDDDC54CDEBB962A8F99A708B0884B6
:1004700081951AA793B62CC2A5D33EE1B7F04008E8
:10048000C919522BDB3A644EED5F766DFF7C89947F
:1004900000859BB712A6ADD224C3BFF136E0C118C8
:1004A0004809D33B5A2AE55E6C4FF77D7E6C0AA55E
:1004B00083B4188691972EE3A7F23CC0B5D14229A8
:1004C000CB38500AD91B666FEF7E744CFD5D8BB53F
:1004D00002A499961087AFF326E2BDD034C1C33988
:1004E0004A28D11A580BE77F6E6EF55C7C4D0CC61E
:1004F00085D71EE597F42880A1913AA3B3B2444A68
:10050000CD5B5669DF78600CE91D722FFB3E8DD6FE
:1005100004C79FF516E4A9902081BBB332A2C55A47
:100520004C4BD7795E68E11C680DF33F7A2E0EE7DD
:1005300087F61CC495D52AA1A3B03882B193466B27
:10054000CF7A5448DD59622DEB3C700EF91F8FF7BE
:1005500006E69DD414C5ABB122A0B9923083C77B07
:100560004E6AD5585C49E33D6A2CF11E780FF76A54
:100570007E0FF66E050EF7220900F55012002020BE
:10058000202020204A61696E2020202020200000A9
:10059000F76AA00FF66E050EF7220900F55012005B
:1005A000736E202020202020206E657420202020C3
:1005B0000000F76AC20FF66E050EF7220900F5502B
:1005C00012005265762E202020202020202020207E
:1005D00020200000F76AE40FF66E050EF7220900EE
:1005E000F55012002020207A7A7A7A7A7A7A7A7A0A
:1005F0007A2020200000F76A060FF66E060EF7221A
:100600000900F55012002020536561726368696E1D
:1006100067202E2E2E20000081BC03D00301A4876A
:100620000001F29050EF00F020C322F31FC321F32A
:1006300056CF20F355CF1FF385C324F384C323F390
:10064000030121511F5D846F22512059856F7B94D6
:100650000001A9EF00F00301262BA585A4A94FD026
:10066000C280040E016EC250830B0110C26EC282A2
:10067000C2B2FED7C3CFC7F3C4CFC8F3C290C8512C
:10068000B25D3DE303E1B151C75D39E28D808D82FA
:10069000A499CD90F00E0F015D170301A48BA4ADBA
:1006A0000AD006C30EF305C30DF3CE500B6FCFCFA8
:1006B0000CF3A49D1DD00551095D0D6F06510A591B
:1006C0000E6F0551061110E10851045D0DE303E1C1
:1006D0000351075D09E20AC30EF309C30DF308C312
:1006E0000CF307C30BF304D004C30EF303C30DF3E1
:1006F00004015CAB02D0568D01D0568F03019E924F
:100700000001A9EF00F003017A5140082FE18C8627
:10071000C280100E006E002EFED70000000E016E8B
:10072000C250830B0110C26E916B906B0401996BE8
:10073000995103080DE3C282C2B2FED7C4CF03F0C1
:10074000C35003019027C45091230401992BF0D783
:10075000C2908C9603019151080808E2FF0A03E158
:1007600090511C0803E2040160830301F29400012C
:1007700050EF00F00301A4A93ED0A4AD10D0052B8A
:10078000D8B4062B065303E10551280807E2A49DBF
:10079000A48F0E6B280E0D6F0C6B0B6B2CD00551BC
:1007A000061110E1F00E0F015D178D808D8203019F
:1007B000A4990AC30EF309C30DF308C30CF307C3CE
:1007C0000BF319D00551D8B40607050705510611DA
:1007D00012E1B36AB26A0A0E0F015D6F5C6B5B6B6C
:1007E000010E5A6F3F0E4917000E491304C35FFFF5
:1007F00003C35EFF03017B90000150EF00F0B25095
:100800000401996FB3CF9AF49A518009B36E99C4D9
:10081000B2FF010E03012E27D8B02F2BD8B4302BF6
:10082000D8B4312B010E2A27D8B02B2BD8B42C2BBF
:10083000D8B42D2BA4857A2D03D0472BD8B4482BC0
:1008400003015CC3E9FF5DC3EAFF010EEF2404016D
:100850005DC3EAFF5CC3E9FFEF6E5DC303F0030114
:100860005CC3E9FF5DC3EAFFEF503C081BE10301F5
:100870005EC3E9FF5FC3EAFF010EEF2404015FC31B
:10088000EAFF5EC3E9FFEF6E03015CC3E9FF5DC3EE
:10089000EAFF3C0EEF5C04015DC3EAFF5CC3E9FFC5
:1008A000EF6E03015FC303F05EC3E9FF5FC3EAFFBE
:1008B000EF50640813E1030160C3E9FF61C3EAFF7D
:1008C000010EEF24040161C3EAFF60C3E9FFEF6E8C
:1008D00003015EC3E9FF5FC3EAFFEF6AA192000173
:1008E00050EF00F00401AB6BAE91AB8EAB88AC8ADD
:1008F0000201506B210E006E002EFED7506B0301DB
:10090000AC6B010E0401AD6F7C0EAC6F899A9EAA90
:10091000FED7898AACC4E9FFADC4EAFFAECFEFFFD2
:10092000AC2BD8B4AD2B010EAB6FAB511F0827E336
:10093000899A9EAAFED7898AACC4E9FFADC4EAFFB2
:10094000AECFEFFFADC403F0ACC4E9FFADC4EAFF26
:10095000EF507E0804E1AEB102D011D00BD0AE91C1
:10096000ADC403F0ACC4E9FFADC4EAFFEF507D08AD
:1009700001E1AE81AC2BD8B4AD2BAB2BD6D7898A95
:10098000010EAB250201506FAB9EAB98AC9A0101F2
:100990007C517E080CE1036A0401AB517C0FE96EC7
:1009A000010E0320EA6EEF507E0804E0010103010E
:1009B000AC81040102015051050803E30301AC8D31
:1009C0000201010E0401AB25036A7C0FE96E010EE2
:1009D0000320EA6EEF6A0001A4EF07F0BCC4BEF486
:1009E0000401BF6BBB51BD19C06FC16BD890C0353E
:1009F000026EC135036E025003C0F7FF0001B0DC88
:100A00000900F5CF03F00401BE19006E0350BF19B1
:100A1000036E00C001F0026E000112000401B96B08
:100A2000B86BB969B869B651B7111BE0B5C403F02A
:100A3000B451B42BD8B4B52BE96E03C0EAFFEFCFA5
:100A4000BDF4B9C4BCF4B8C4BBF40001C7DF02C034
:100A5000B9F401C0B8F40401B651D8B4B707B60769
:100A6000E2D7B9C403F0031EB851FF0A016E03C0F8
:100A700002F00001CFEF05F00401AD6BAC6B020199
:100A8000506B0301AC97AC9901017C517E080DE1DC
:100A9000010E0401AB5D036A7C0FE96E010E0320B9
:100AA000EA6EEF507E0805E001010301AC8784D0B7
:100AB0000401B36B450EB26F010EAB5D036A7C0F90
:100AC000016E010E032201C0B0F403C0B1F4010EA7
:100AD000AF6F7D0EAE6FAF51B15D38E303E1B05142
:100AE000AE5D34E2AFC403F0AEC4E9FFAFC4EAFFC9
:100AF000EF507D0816E1AE2BD8B4AF2BB3C4B5F4DC
:100B0000B251B22BD8B4B32BB46FAEC4E9FFAFC4AB
:100B1000EAFFEF50200AB5C4EAFFB4C4E9FFEF6E64
:100B200011D0B3C4B5F4B251B22BD8B4B32BAEC408
:100B3000E9FFAFC4EAFFEFCFB6F4B5C4EAFFE96E50
:100B4000B6C4EFFFAE2BD8B4AF2BC5D7B251D8B4D3
:100B5000B307B207B3C403F0B251D8B4B307B207B6
:100B6000E96E03C0EAFFEFCFADF4AC6BB2C4E9FFAE
:100B7000B3C4EAFFEF50AC27000EAD23450EB25DC3
:100B8000006E000EB35900C050F202010401B56BB3
:100B9000450EB46FB76B50C2B6F400013FD702C028
:100BA000B5F401C0B4F40401AC51015C03E1AD51F2
:100BB000B55D03E00301AC8904010001A7EF07F074
:100BC000D8B204D0040EEA6EC00EE96E006A016A63
:100BD000026A036A0401C06BC16BC26BC36BBF5175
:100BE000BE11BD11BC112CE0200EC46FD890B837D7
:100BF000B937BA37BB37C037C137C237C337BF5130
:100C0000C35D08E1BE51C25D05E1BD51C15D02E1B8
:100C1000BC51C05D0FE3BC51C05FBD51D8A0BD3D0C
:100C2000C15FBE51D8A0BE3DC25FBF51D8A0BF3D7D
:100C3000C35FD8800036013602360336C42FD6D7BC
:100C4000C0C4EFFFC1C4ECFFC2C4ECFFC3C4ECFFDF
:100C5000000112000401C46BC56B010EC66FDA6A95
:100C6000D96A040EC96FBC0EC86F040EEA6EC00EBE
:100C7000E96EC9C4E2FFC8C4E1FFC6C4C7F4D89096
:100C8000E550EE02F350C423F450C523C72FF7D725
:100C9000C4C4DEFFC5C4C4F4C56BD8B0C52BC82B13
:100CA000D8B4C92BC62BC6510508DFE100011200DC
:100CB0000401AE51500811E307E1AD51E2080DE324
:100CC00003E1AC51260809E30301686B6A6B696BA9
:100CD0006B6B6C6B6D6BF6D00401AF6BAF51310871
:100CE000D8A0EFD0AF51040DF350036A0001D0EC4F
:100CF00000F0006E0900F5CF01F00900F5CF02F019
:100D00000900F5CF03F003500401AE5D0EE30BE1E3
:100D10000250AD5D0AE307E10150AC5D06E303E17B
:100D20000050AB5D02E3CBD0CAD00C0EAF2503015F
:100D3000686F010E0401AF5D040DF350036A0001FA
:100D4000D0EC00F0006E0900F5CF01F00900F5CFFE
:100D500002F00900F5CF03F000500401AB5DB06F65
:100D60000150AC59B16F0250AD59B26F0350AE593A
:100D7000B36FD892B3C4BBF4B2C4BAF4B1C4B9F47B
:100D8000B0C4B8F4BF6B010EBE6F510EBD6F800EC4
:100D9000BC6F000115DF01C06AF300C069F369C3CD
:100DA00000F06AC301F0026A036A03C0BBF402C028
:100DB000BAF46AC3B9F469C3B8F40401BF6B010E95
:100DC000BE6F510EBD6F800EBC6F03C0C3F402C076
:100DD000C2F46AC3C1F469C3C0F400013BDF005030
:100DE0000401B05DB46F0150B159B56F0250B259F2
:100DF000B66F0350B359B76FD892B7C4BBF4B6C43B
:100E0000BAF4B5C4B9F4B4C4B8F4BF6BBE6B0E0E7B
:100E1000BD6F100EBC6F0001D3DE00C06BF3040188
:100E2000BF6BBE6B0E0EBD6F100EBC6FC36BC26B83
:100E3000C16B6BC3C0F400010DDF00500401B45F4F
:100E40000150B55B0250B65B0350B75BD892B7C494
:100E5000BBF4B6C4BAF4B5C4B9F4B4C4B8F4BF6B47
:100E6000BE6BBD6B3C0EBC6F0001AADE00C06CF314
:100E70006CC300F0016A026A036A03C0BBF402C0DB
:100E8000BAF401C0B9F46CC3B8F40401BF6BBE6B13
:100E9000BD6B3C0EBC6F03C0C3F402C0C2F401C002
:100EA000C1F46CC3C0F40001D5DE00500401B45D90
:100EB00003016D6F692BD8B46A2B040102D0AF2BEC
:100EC0000DD703010001E9EF08F09EA8FED7AD6E33
:100ED000120081A001D029D0AB8EAB88AC8AADC006
:100EE00066F3A60E006E002EFED700000401AB6B69
:100EF00002014F510401AB5D0FE2036AAB51AC0F2D
:100F0000E96E000E0320EA6EEFCFB1F4B15100019B
:100F1000DCDF0401AB2BECD7A60E006E002EFED753
:100F20000000AB9EAB98AC9A000112000401A66BC6
:100F3000A56BA76BA86BA96B02014F6B04015693BD
:100F40005695569B0001CED450C2ABF495D545C002
:100F500055F246C056F247C057F20401AA6B010E83
:100F6000020157250401A26BA16F0201552D01D08A
:100F700024D05551020821E0555103081EE0555177
:100F800004081BE05551050818E05551060815E006
:100F90005551070812E0555108080FE0555109084E
:100FA0000CE055510B0809E055510C0806E055516D
:100FB000100803E05551110802E148C058F2552DC0
:100FC00001D009D05551020806E05551030803E04D
:100FD0005551040802E149C059F25551010A000176
:100FE00033E0030A44E0010AD8B4F3D0070AD8B4C6
:100FF00006D1010AD8B43CD1020AD8B439D10F0ABB
:10100000D8B436D1010AD8B433D1020AD8B430D119
:10101000070AD8B42DD11C0AD8B42AD1010AD8B4F1
:1010200028D1170AD8B42DD10B0AD8B432D1030A6B
:10103000D8B43BD1010AD8B44CD11D0AD8B462D17E
:10104000930AD8B470D1ACD102015951060A0001FB
:1010500003E00E0A08E00BD00201585303E104013B
:101060005081020103D04AC05AF20201000102017C
:101070005951080A00010BE0040A18E0010A44E093
:10108000030AD8B47BD0010AD8B48AD0A2D04AC00F
:101090005BF24FC099F24EC098F253C0A7F252C013
:1010A000A6F251C0A5F250C0A4F293D004019E6BE9
:1010B0009E5107081BE3036A9E51B00F016E020E9A
:1010C000032201C0ABF403C0ACF4036A9E514B0F82
:1010D000E96E000E0320EA6EEFCFADF4ACC4EAFF78
:1010E00001C0E9FFADC4EFFF9E2BE2D7B5C2B8F255
:1010F000B6C2B9F2B7C2BAF20201585303E1040111
:1011000050830201000165D004019E6B9E510708C7
:101110001BE3036A9E51BB0F016E020E032201C046
:10112000ABF403C0ACF4036A9E514A0FE96E000EA3
:101130000320EA6EEFCFADF4ACC4EAFF01C0E9FFD3
:10114000ADC4EFFF9E2BE2D753C09DF252C09CF27C
:1011500055C0A4F454C0A3F4A3C49FF2A4C49EF247
:10116000C0C2B8F2C1C2B9F2C2C2BAF20201585347
:1011700003E10301A58B020100012BD04AC094F2C8
:1011800052C0ABF251C0AAF250C0A9F24FC0A8F2AF
:101190000201585303E10301A5890201000119D09E
:1011A0004DC0A3F24CC0A2F24BC0A1F24AC0A0F2C3
:1011B000A0C22DF3A1C22CF3A2C22BF3A3C22AF327
:1011C0002DC3AEF42CC3ADF42BC3ACF42AC3ABF4E3
:1011D0006FD502015951020A000103E0010A08E03B
:1011E0000ED00201585303E10301A58D020106D080
:1011F0000201585303E1040150870201000102017A
:101200005951010A000103E0020A22E031D0040131
:101210009E6B9E5107081BE3036A9E51BB0F016E34
:10122000020E032201C0ABF403C0ACF4036A9E516A
:101230004A0FE96E000E0320EA6EEFCFADF4ACC4A6
:10124000EAFF01C0E9FFADC4EFFF9E2BE2D70FD04C
:101250004BC0A4F44AC0A3F4A3C49FF2A4C49EF25A
:101260000201585303E10401508502010401000109
:1012700097D00201585303E10401508B0201000191
:101280008FD00201585303E104015089020100018B
:1012900087D04BC0A3F24AC0A2F249C0A1F248C015
:1012A000A0F20401568300017BD048C095F24AC0E9
:1012B0005BF24FC099F24EC098F253C0A7F252C0F1
:1012C000A6F251C0A5F250C0A4F204015683000159
:1012D00067D04BC0AFF24AC0AEF249C0ADF248C0D1
:1012E000ACF24CC094F250C0ABF24FC0AAF24EC068
:1012F000A9F24DC0A8F20201AF5104015B1356835D
:1013000000014ED049C0A4F448C0A3F4A3C49FF286
:10131000A4C49EF24BC09DF24AC09CF20401508DC1
:10132000568300013DD049C09BF248C09AF24AC0A2
:1013300097F24BC096F2020196515E0824E3040135
:101340009E6B0201965104019E5D1BE2036A9E5151
:10135000AC0F016E010E032201C0ABF403C0ACF46C
:10136000036A9E514C0FE96E000E0320EA6EEFCF28
:10137000ADF4ACC4EAFF01C0E9FFADC4EFFF9E2BA2
:10138000E0D709D00201010E57250401AB6F040E0E
:10139000A26FABC4A1F4040EAA6F56835685000158
:1013A000040156A37AD1A669A569A6C4BCF4A5C454
:1013B000BBF455C2BDF40001EEEC04F002C0A6F48B
:1013C00001C0A5F4A6C4BCF4A5C4BBF40401BD6B64
:1013D0000001EEEC04F002C0A6F401C0A5F4010E79
:1013E000020157250401AB6FA6C4BCF4A5C4BBF42D
:1013F000BD6F0001EEEC04F002C0A6F401C0A5F43C
:10140000A6C4BCF4A5C4BBF4AAC4BDF4EEEC04F0BD
:1014100002C0A6F401C0A5F40401A51FA61FA96B74
:10142000A951A92B036AAC0FE96E000E0320EA6EE6
:101430007E0EEF6E020155517D0803E055517E0886
:1014400018E10401A951A92B036AAC0FE96E000E43
:101450000320EA6E7D0EEF6EA951A92B036AAC0F33
:10146000E96E000E0320EA6E02015551200AEF6E6C
:101470000CD00401A951A92B036AAC0FE96E000E30
:101480000320EA6E55C2EFFF02010401A951A92B06
:10149000036AAC0FE96E000E0320EA6EEF6A010EDC
:1014A000020157257D0804E0010E57257E0819E149
:1014B0000401A951A92B036AAC0FE96E000E0320A9
:1014C000EA6E7D0EEF6EA951A92B036AAC0FE96E8F
:1014D000000E0320EA6E010E02015725200AEF6E6E
:1014E0000DD00401A951A92B036AAC0FE96E000EBF
:1014F0000320EA6E010E02015725EF6E0401AA5186
:101500007D0803E0AA517E0816E1A951A92B036AC0
:10151000AC0FE96E000E0320EA6E7D0EEF6EA9514E
:10152000A92B036AAC0FE96E000E0320EA6EAA51E4
:10153000200AEF6E0AD0A951A92B036AAC0FE96EFD
:10154000000E0320EA6EAAC4EFFFA5C4A7F4A751BA
:101550007D0803E0A7517E0816E1A951A92B036A73
:10156000AC0FE96E000E0320EA6E7D0EEF6EA951FE
:10157000A92B036AAC0FE96E000E0320EA6EA75197
:10158000200AEF6E0AD0A951A92B036AAC0FE96EAD
:10159000000E0320EA6EA7C4EFFFF250006EF29E29
:1015A000020EAA6E700EA96EA7C4A8FFA69CA69EE6
:1015B000A6840F01550EA76EAA0EA76EA682A6B22C
:1015C000FED7A6940050F2120401A6C4A7F4A751B6
:1015D0007D0803E0A7517E0816E1A951A92B036AF3
:1015E000AC0FE96E000E0320EA6E7D0EEF6EA9517E
:1015F000A92B036AAC0FE96E000E0320EA6EA75117
:10160000200AEF6E0AD0A951A92B036AAC0FE96E2C
:10161000000E0320EA6EA7C4EFFFF250006EF29EA8
:10162000020EAA6E710EA96EA7C4A8FFA69CA69E64
:10163000A6840F01550EA76EAA0EA76EA682A6B2AB
:10164000FED7A6940050F2120401A951A92B036AF7
:10165000AC0FE96E000E0320EA6E7E0EEF6EA9C499
:101660004FF2000136DC0301AC5316E004019E6B1F
:101670009E3D01D007D0420E006E002EFED7000026
:101680009E2BF6D70301AC6B000123DC0301AC53A6
:1016900003E00401568B03010401000151EF0BF03C
:1016A00045D40301A587F092000150EF00F0F29CB1
:1016B000F29EF2BEFDD7D59E87C4D7FF86C4D6FF63
:1016C000F294D58EC00EF2121200C69E9E968CC465
:1016D000C9FF020EC6BE05D09EA6FED7000EC5BC31
:1016E000010E016E1200040EEA6E860EE96EEF50D6
:1016F0000EE0010E016E006A002EFED7012EFBD710
:10170000300E006E002EFED700D0EF2EF2D7120062
:101710008A9804018769FD0E866F0001C8DFF2A474
:10172000FED78A88FE0E0401876F7A0E866F00014D
:10173000BEDFF2A4FED7C580C5B0FED70301A699CF
:101740007C0E04018C6F0001C0DF015003E1030136
:10175000A68900010301A6B904D0C584C5B4FED78B
:10176000D7D004018C6B0001B0DF380E04018C6F00
:101770000001ABDFC584C5B4FED7C580C5B0FED7B8
:101780007C0E04018C6F0001A0DF04018C6B000152
:101790009CDF400E04018C6F000197DFC584C5B447
:1017A000FED7C580C5B0FED77C0E04018C6F00014A
:1017B0008CDF400E04018C6F000187DF04018C6B0D
:1017C000000183DF0D0E04018C6F00017EDF120E1D
:1017D00004018C6F000179DF04018C6B000175DF5F
:1017E0000D0E04018C6F000170DF120E04018C6F6E
:1017F00000016BDF04018C6B000167DF04018C6B5F
:10180000000163DFC584C5B4FED7C580C5B0FED76F
:101810007C0E04018C6F000158DF04018C6B000109
:1018200054DF380E04018C6F00014FDF280E0401D5
:10183000866F000158DF390E04018C6F000145DF0F
:10184000280E0401866F00014EDF140E04018C6F18
:1018500000013BDF740E04018C6F000136DF5E0E69
:1018600004018C6F000131DF6D0E04018C6F0001EB
:101870002CDFC80E0401866F000135DF0C0E040159
:101880008C6F000122DF010E04018C6F00011DDF4F
:10189000280E0401866F000126DF060E04018C6FFE
:1018A000000113DF280E0401866F00011CDF380ED3
:1018B00004018C6F000109DF280E0401866F00010E
:1018C00012DFC584C5B4FED7C580C5B0FED77C0E77
:1018D00004018C6F0001F9DE04018C6B0001F5DE60
:1018E000380E04018C6F0001F0DE180E04018C6FBD
:1018F0000001EBDE200E04018C6F0001E6DE380EE5
:1019000004018C6F0001E1DEC584C5B4FED703017C
:10191000000112EF0DF0050E616EF19EF29CF29E39
:10192000F2BEFDD70F01426B416BC290496B486B11
:10193000436B446B456B476B466BC150F00BC16EFC
:10194000030E386F000E3C6F020E396F000E3A6FB7
:101950003B6FC068C190C192C194C196776A040E72
:10196000786E796EAB9EAB98AC9A7C0E896EF80E51
:101970008A6E450E8B6E760E8C6E030E8D6E830E08
:10198000926E470E936E9A0E946E800E956E9690A0
:10199000969296849686D56A8F0ECD6ECC6ACD903F
:1019A000CF6ACE6ABA94BC6AB46AB16EF00EB36EF6
:1019B000B26A000E516F000E526F4D6B8F0E4E6F5C
:1019C0004E91506B4F6B000E4A6F000E4B6FF00E36
:1019D000BD1666165D1757175417F26AF16AF06A5A
:1019E000D08E9E6AA16AA46A7B6A7E6A9D6AA06A9A
:1019F000A36A7A6A7D6A9F6AA26AA56A7C6A7F6A1C
:101A0000626AA1A2FED7A192B190C00EF212CB9051
:101A1000CB92CB96090EC86E280EC66EC78EC79C99
:101A2000000176D623EF18F0040152970301429388
:101A300042974299429B429D04015191519355977F
:101A4000559B559F56955C955C9357975799030105
:101A5000A6970401609B519D519F519B549F5793A2
:101A6000559355955599559D6099569756995B6B29
:101A70005C8D579B579D579F609D619153955397E0
:101A800053995495569B5C91529B5299529F5391F6
:101A90005393539B539D539F0301429504015491CB
:101AA00054975493549D0301429FA599A59BA59DCE
:101AB000000125EF18F0030E03015D6F530E5C6FFC
:101AC000030E5F6F560E5E6F030E616F590E606FEF
:101AD0005CC3E9FF5DC3EAFFEF6A5EC3E9FF5FC372
:101AE000EAFFEF6A60C3E9FF61C3EAFFEF6A316BA7
:101AF000306B2F6B2E6B2D6B2C6B2B6B2A6B176B3C
:101B0000196B186B166B156B146B136B1A6BAB6B35
:101B1000AC6B85698469736B746B766B786B796B6E
:101B20000201F66BF56BF86BF76B03011269116933
:101B300010690F6904015E6B03019E6B9D6B9C6BCA
:101B4000030E0201EC6F200EEB6F0301956B946B9B
:101B5000B06BAF6B4C6B4B6B526B780E516F506B25
:101B60004F6B4E6B4D6BAD6B0201AF6BAE6BAD6BE4
:101B7000AC6B9F6B9E6B556B596B586B050E436F2F
:101B8000040E456FF90E466F810E476F020E496FC6
:101B90004A6F4B6B4C6B4D69C66BC56B0301396B60
:101BA000386B376B366B3D693C693B693A69416913
:101BB00040693F693E69676BA26BA16BA06B9F6B2D
:101BC0000201DD6BDC6BDF6BDE6B03018D6B0201F1
:101BD000FE6BFD6B03019B6B9A6B000127EF18F006
:101BE000F29CF29EF2BEFDD7D36A2E0EBA6E630E41
:101BF000BB6E070ED56E030E0201926FC00EF2127D
:101C0000000129EF18F00401846B8451070814E3E4
:101C100089948769B20E866F000149DDF2A4FED770
:101C2000898404018769B20E866F000140DDF2A449
:101C3000FED70401842BE9D700011200C280000EF8
:101C4000016EC250830B0110C26E0301936B926B45
:101C5000916B906B0401756B755103080DE3C282A3
:101C6000C2B2FED7C4CF03F0C35003019227C450C1
:101C700093230401752BF0D766CF76F474918AB65E
:101C80007481280E016EC250830B0110C26EC28295
:101C9000C2B2FED7C4CF8FF30301C3CF8EF3C2828B
:101CA000C2B2FED7C3508E27C4508F23C282C2B2A5
:101CB000FED7C3508E27C4508F23F00E66168A9627
:101CC000000E016EC250830B0110C26E0401756BD1
:101CD000755103080DE3C282C2B2FED7C4CF03F030
:101CE000C35003019027C45091230401752BF0D7F2
:101CF0008A9674B18A8676C466FFC29000012EEF80
:101D000018F00301A6A917D0C580C5B0FED77C0E78
:101D100004018C6F0001D9DC04018C6B0001D5DC5F
:101D2000800E04018A258B6F8C6F0001CEDCC58488
:101D3000C5B4FED70301000112000301A6A914D007
:101D4000C580C5B0FED77C0E04018C6F0001BDDCE0
:101D5000400E04018C6F0001B8DC75C48CF4B5DC56
:101D6000C584C5B4FED703010001120074C43EF25D
:101D70003EC218F20E0E04018A6F0001C2DF74C465
:101D800075F4DBDF12000301A7510C0801E1AED0AE
:101D900004016091609360976095609D6099609F79
:101DA000609B61910301915105080BE303E19051A0
:101DB0002F0807E30401608B74690001D7DF95D019
:101DC0000301915105080CE303E19051A40808E3D5
:101DD0000401608F460E746F0001C8DF86D00301D6
:101DE000915105080CE303E19051D00808E3040188
:101DF000608F660E746F0001B9DF77D003019151D7
:101E000005080CE303E19051E70808E30401608F43
:101E10002B0E746F0001AADF68D0030191510808EE
:101E20000EE2FF0A03E19051970809E20401608184
:101E30006085DB0E746F000199DF57D0030191516B
:101E400008080EE2FF0A03E190511C0809E20401B0
:101E500060836085440E746F000188DF46D0030103
:101E6000915106080EE2FF0A03E190511B0809E2B6
:101E7000040160856087740E746F000177DF35D0D0
:101E80000301915105080FE2FF0A03E19051660832
:101E90000AE204016085608D6181640E746F000147
:101EA00065DF23D00301915104080FE2FF0A03E12B
:101EB0009051FE080AE204016089608D61812D0E57
:101EC000746F000153DF11D00301915104080EE239
:101ED000FF0A03E19051E70809E204016089608D7F
:101EE0006181210E746F000141DF0301000130EFB9
:101EF00018F00401873B0F0E87178751090803E389
:101F0000300E872702D0370E872787C401F00001E3
:101F100012000F0E040187178751090803E3300EE2
:101F2000872702D0370E872787C401F000011200EF
:101F30000301A6A92ED0400E04018A6F0001E1DE44
:101F4000C580C5B0FED77C0E04018C6F000165EC26
:101F50000BF0400E04018C6F000165EC0BF00401E6
:101F6000896B89510F0811E388C403F087C4E9FF26
:101F700088C4EAFFEFCF8CF4000165EC0BF004019C
:101F8000872BD8B4882B892BECD7C584C5B4FED752
:101F90000301000112008A98050E0401866F0001FA
:101FA00073EC0BF08A88C580C5B0FED77C0E0401A7
:101FB0008C6F000165EC0BF004018C6B000165EC8B
:101FC0000BF0390E04018C6F000165EC0BF0520E22
:101FD00004018C6F000165EC0BF0600E04018C6F46
:101FE000000165EC0BF0080E04018C6F000165EC3C
:101FF0000BF0C584C5B4FED78A98050E0401866F20
:10200000000173EC0BF08A8818EF12F0040187517D
:10201000036E8651862BD8B4872B8A6F03C08BF44E
:1020200088C48CF4F250006EF29E8BC4AAFF8AC45E
:10203000A9FF8CC4A8FFA69CA69EA6840F01550EDE
:10204000A76EAA0EA76EA682A6B2FED7A6940050CF
:10205000F21204018751036E8651862BD8B4872B68
:102060008A6F03C08BF489C48CF4F250006EF29E28
:102070008BC4AAFF8AC4A9FF8CC4A8FFA69CA69EF5
:10208000A6840F01550EA76EAA0EA76EA682A6B251
:10209000FED7A6940050F2120001120093C495F4EA
:1020A0000401966B92519419976F986BD89097355D
:1020B000026E9835036E025003C0F7FF0001B0ECCA
:1020C00001F00900F5CF03F004019519006E0350EB
:1020D0009619036E00C001F0026E000112000401A7
:1020E0008D6B8C6B8E6B8F6B906B02014F6B040151
:1020F0008D698C698F6B88518F5D15E28F518625B4
:10210000E96E000E8721EA6EEFCF94F48DC493F44C
:102110008CC492F40001C2DF02C08DF401C08CF4C3
:1021200004018F2BE8D78F6B8B518F5D15E28F5198
:102130008925E96E000E8A21EA6EEFCF94F48DC4F2
:1021400093F48CC492F40001A9DF02C08DF401C0A5
:102150008CF404018F2BE8D78C1F8D1F906B90514E
:10216000902B036AAC0FE96E000E0320EA6E7E0E20
:10217000EF6E8F6B88518F5D4DE28F518625E96E32
:10218000000E8721EA6EEF507D0809E08F51862509
:10219000E96E000E8721EA6EEF507E0824E190512F
:1021A000902B036AAC0FE96E000E0320EA6E7D0EE1
:1021B000EF6E9051902B036AAC0F016E000E03225C
:1021C00001C091F403C092F48F518625E96E000E90
:1021D0008721EA6EEF50200A936F03C0EAFF01C027
:1021E000E9FFEF6E15D09051902B036AAC0F016E92
:1021F000000E03228F518625E96E000E8721EA6EBC
:10220000EFCF93F403C0EAFF01C0E9FF93C4EFFFEF
:102210008F2BB0D78F6B8B518F5D4DE28F518925FE
:10222000E96E000E8A21EA6EEF507D0809E08F51B9
:102230008925E96E000E8A21EA6EEF507E0824E1BE
:102240009051902B036AAC0FE96E000E0320EA6EEA
:102250007D0EEF6E9051902B036AAC0F016E000E55
:10226000032201C091F403C092F48F518925E96ED5
:10227000000E8A21EA6EEF50200A936F03C0EAFF36
:1022800001C0E9FFEF6E15D09051902B036AAC0F9F
:10229000016E000E03228F518925E96E000E8A21FE
:1022A000EA6EEFCF93F403C0EAFF01C0E9FF93C4E5
:1022B000EFFF8F2BB0D78CC48EF48E517D0803E0D6
:1022C0008E517E0816E19051902B036AAC0FE96E97
:1022D000000E0320EA6E7D0EEF6E9051902B036A84
:1022E000AC0FE96E000E0320EA6E8E51200AEF6EED
:1022F0000AD09051902B036AAC0FE96E000E0320B8
:10230000EA6E8EC4EFFF8DC48EF48E517D0803E01B
:102310008E517E0816E19051902B036AAC0FE96E46
:10232000000E0320EA6E7D0EEF6E9051902B036A33
:10233000AC0FE96E000E0320EA6E8E51200AEF6E9C
:102340000AD09051902B036AAC0FE96E000E032067
:10235000EA6E8EC4EFFF9051902B036AAC0FE96ECA
:10236000000E0320EA6E7E0EEF6E90C44FF2000165
:10237000120081A001D02AD0AB8EAB88AC8AADC050
:1023800066F3A60E006E002EFED700000401866BD9
:1023900002014F510401865D10E2036A8651AC0FC1
:1023A000E96E000E0320EA6EEFCF8CF48C51000131
:1023B00065EC07F00401862BEBD7A60E006E002E0D
:1023C000FED70000AB9EAB98AC9A00011200F29CC5
:1023D000F29EF2BEFDD7020EEA6E1B0EE96E000EF3
:1023E000EAEC02F00A000900F550EE6E0009FBE18C
:1023F00062C487F47EDD01C01BF262C487F489DD0C
:1024000001C01CF21BC229F21CC22AF2020E0401F6
:10241000886F1B0E876F00018BDDA40E0401876F90
:10242000730E866F000157EC0BF0F2A4FED7B3D504
:102430007C0E896EF00E8A6E450E8B6E760E8C6E5B
:102440008D6A830E926E470E936E9A0E946E800E76
:10245000956E96909692968496860F01426B416B8C
:10246000C290F00EBD1666165D1757175417776A9F
:10247000040E786E796EF294CD6ACC6A000EBA6E54
:10248000000EBB6EB46AB16A516F000E526F4D6B95
:102490004E6B4A6F000E4B6FACC382F462C481F482
:1024A000040160B10AD0876B800E866F82C489F404
:1024B00081C488F40001AADD04010301A597090E77
:1024C0000401836F846B040E856F876B866B886B4A
:1024D000040E8A6F830E896F030E8B6F0001FFDD80
:1024E00048DFFC0E0401876F300E866F000157EC49
:1024F0000BF0F088F2B406D00301A5B702D00001BA
:10250000F9D70001AB9EAB98AC9AF26AF16AF06A17
:10251000D08E9E6AA16AA46A7B6A7E6A9D6AA06A5E
:10252000A36A7A6A7D6A9F6AA26AA56A7C6A7F6AE0
:10253000626AF086F18AD3CF00F0D39E030000C018
:10254000D3FF81A205D0100E0301A36FFF0000018D
:102550003ED712008C98540E006E002EFED700D08D
:102560008C88A40E0401876F730E866F000157ECF0
:102570000BF0F2B406D004015BB102D00001F9D730
:102580000001F2A405D0020E0401626F00011FDFFA
:102590000401509B110E746F756B040E766F876B80
:1025A000866B886B040E8A6F740E896F030E8B6FB7
:1025B000000195DDDEDEFC0E0401876F300E866FB4
:1025C000000157EC0BF0F2B40AD0040150AB02D07A
:1025D000000105D056BB02D00001F5D70001F2B4CE
:1025E00004D0040156AB05D00001090E016EFDD0E8
:1025F0000401020EEA6E1B0EE96E000E0001FBECF8
:1026000002F00A000900F550EE6E0009FBE1020E2F
:102610000401886F1B0E876F00018ADC0401876B41
:10262000866B000157EC0BF0800E02016E6F6F6B32
:10263000F2B480D0040150AD7AD09FC281F49FC221
:1026400087F4000156DC01C01BF29FC281F49FC2D7
:1026500087F45FDC01C01CF29EC281F49EC287F445
:1026600048DC01C01DF29EC281F49EC287F451DC99
:1026700001C01EF2200E02011F6F9CC281F49CC299
:1026800087F4000136DC01C020F29CC281F49CC2B8
:1026900087F43FDC01C021F29DC281F49DC287F422
:1026A00028DC01C022F29DC281F49DC287F431DC96
:1026B00001C023F2200E0201246F5DC281F45DC2CD
:1026C00087F4000116DC01C025F25DC281F45DC211
:1026D00087F41FDC01C026F2200E0201276F5CC2C6
:1026E00081F45CC287F4000104DC01C028F25CC202
:1026F00081F45CC287F40DDC01C029F2200E0201D6
:102700002A6F020E0401886F1B0E876F000110DC18
:1027100002019C2D0BD09D5309E16E51800A006E81
:102720005D51800A005C02E29EC26FF20401509D7E
:1027300002017ED76F5305E10A0E016E000155D0EC
:10274000020104016FC282F4816B846B8451036ABD
:1027500081110201C36F0350040182110201C46F91
:1027600004015097030E776F070E786F040E796F90
:102770007A6B7B6B7C6B7D6B030E7E6FC4C280F4C7
:10278000C3C27FF4040E826F7F0E816F040E876FC9
:10279000770E866F080E886F82C48AF481C489F42C
:1027A000020E8B6F00019BDCE4DDFC0E0401876FE1
:1027B000300E866F000157EC0BF0F2B40AD0040122
:1027C00050A702D0000105D056BB02D00001F5D7BA
:1027D0000001F2B404D0040156AB05D00001070E8D
:1027E000016E03D00401000E016E00014BEF18F0E2
:1027F0000401746B745107081EE3070E936E8A9CE4
:10280000FC0E876F300E866F000157EC0BF0F2A4C0
:10281000FED7470E936E8994FC0E0401876F300E2D
:10282000866F000157EC0BF0F2A4FED789848984EF
:102830000401742BDFD7000153EF18F00301A6A9A0
:102840002ED004018A6B000181EC0EF0C580C5B06A
:10285000FED77C0E04018C6F000165EC0BF0400E7E
:1028600004018C6F000165EC0BF00401766B76516E
:102870000F0811E375C403F074C4E9FF75C4EAFFDF
:10288000EFCF8CF4000165EC0BF00401742BD8B48D
:10289000752B762BECD7C584C5B4FED70301000198
:1028A00012008E0E006E88C401F087C402F0036A25
:1028B000015209E102C001F0026A080E005E0152F5
:1028C00002E1006A08D0D89001BE04D00236013679
:1028D0000006F9D7019EADEF15F004018751D8B479
:1028E000A5D0936F8B51D8B4A1D0935F05E37F0E31
:1028F0009327D8B09BD006D0810E935FD8A096D0F6
:10290000D8B494D093C400F0016A026A036A926B4F
:1029100088C491F4918F89C490F48AC48FF4190EFD
:10292000936F8E518F5F0DE2010E905F0AE2915F0F
:1029300008E2925F06E2922B912B902B8E518F270B
:1029400028D08D51905F12E2010E915F0FE2925FED
:102950000DE2922B912B8D5190278E518F2719E3E9
:10296000902B17E1912B15E1922B13D08C518009FC
:10297000915F0EE2010E925F0BE2922B8C51800967
:1029800091278D519027E9E3912BE7E1922BE5D731
:102990000380932F01D00BD0D8908F379037913789
:1029A0009237D8900336023601369437BAD794A1BD
:1029B00006D0D890013202320332943302D000069E
:1029C00035E094BF1ED0D8908F379037913792372B
:1029D0008E518F5F07E2010E905F04E2915F02E289
:1029E000925F1AE38D51905F05E2010E915F02E262
:1029F000925F12E38C518009915F03E2010E925FB6
:102A00000BE3032A09E1022A07E1012A05E1002A72
:102A10000DE001320232033288C493F48C51931BCF
:102A200093AF02D0018E06D0019E04D0006A016AE5
:102A3000026A036A0001C0EF15F004018751B6086D
:102A4000876F036A88C48BF4888FD8908833893362
:102A50008A330332023201320032872FF6D78BAF2E
:102A60000BD0001E011E021E031E002AD8B4012A2C
:102A7000D8B4022AD8B4032A0001C9EF15F0016ABC
:102A8000026A006A036A04018A5102E1895118E06E
:102A9000100E8B6FD89087378837003603368A51EF
:102AA000035C02E18951005C07E38951005ED8A014
:102AB00003068A51035ED880013602368B2FEAD78F
:102AC00000011200040187518903F3CF01F0F4CF14
:102AD00000F08A03F350002688518903F350002048
:102AE000026E000112000301A6A930D1020EEA6EA7
:102AF0001B0EE96E000E0001D9EC02F00A0009007D
:102B0000F550EE6E0009FBE1D00E0401866F86C41D
:102B100087F4000179EC0FF001C01FF2200E0201D2
:102B20001F2786C487F4000189EC0FF001C020F252
:102B3000050E0401866F86C487F4000179EC0FF05E
:102B400001C021F286C487F489EC0FF001C022F2A3
:102B500091C388F490C387F4A4D69A0E04018A6FB7
:102B6000990E896F190E886F950E876F03C08EF4CA
:102B700002C08DF401C08CF400C08BF40001ADD60E
:102B800003C08AF402C089F401C088F400C087F44D
:102B900054D703C077F402C076F401C075F400C0C6
:102BA00074F4196AF2BE198EF29E77C4BFF476C42B
:102BB000BEF475C4BDF474C4BCF40401C36BC26B31
:102BC000030EC16FC06900012AEC06F019BEF28E37
:102BD00003C077F402C076F401C075F400C074F449
:102BE00076C47DF475C47CF404017D397E6F7F6BFF
:102BF0000F0E7E177D510F0B7CC478F4796F7A6BC2
:102C00007B6B196AF2BE198EF29E7BC4BFF47AC444
:102C1000BEF479C4BDF478C4BCF4C36BC26B270E98
:102C2000C16F100EC06F00012AEC06F019BEF28EC3
:102C300003C077F402C076F401C075F400C074F4E8
:102C4000040175C474F476C475F477C476F4776BB4
:102C50007733763375337433773376337533743330
:102C60007733763375337433773376337533743320
:102C70000F0E771775C47DF474C47CF47DC488F49A
:102C80007CC487F4030E8A6FE80E896F0001F7DEBB
:102C900002C081F401C080F481C488F480C487F448
:102CA000030E04018A6FE80E896F00010BDF0150EB
:102CB00004017C5F02507D5B7DC488F47CC487F492
:102CC0008A6B640E896F0001DADE02C083F401C0F2
:102CD00082F483C488F482C487F404018A6B640E8E
:102CE000896F0001EFDE015004017C5F02507D5BC3
:102CF0007DC488F47CC487F48A6B0A0E896F000156
:102D0000BEDE02C085F401C084F4300E04017E25CD
:102D10000201256F2E0E266F300E04018025020160
:102D2000276F300E040182250201286F300E040146
:102D300084250201296F560E2A6F020E0401886F46
:102D40001B0E876F000198EC0FF0030100019BEF51
:102D500018F004015091010E746F020E756F040E8D
:102D6000766F060E776F7869040E876F740E866F24
:102D7000040E886F8A6F780E896F010E8B6F0001C9
:102D80006FEC10F0B9EC11F0FC0E0401876F300EFF
:102D9000866F000157EC0BF0F2B40AD0040150A189
:102DA00002D0000105D056BB02D00001F5D70001CA
:102DB000F2B404D0040156AB05D00001040E016E3C
:102DC00076D004010301A59D030E0401796F150E51
:102DD0007A6F040E7B6F7C6B7D6B7E6B7F6B020E5C
:102DE000806F040E876F790E866F080E886F8A6B6E
:102DF000350E896F100E8B6F00016FEC10F0B9EC7F
:102E000011F0FC0E0401876F300E866F000157EC45
:102E10000BF0F2B40BD00301A5AD02D0000106D037
:102E2000040156BB02D00001F4D70001F2B404D073
:102E3000040156AB05D00001050E016E38D0040127
:102E40005099060E816F826B040E836F876B866BC1
:102E5000886B040E8A6F810E896F030E8B6F0001E1
:102E60006FEC10F0B9EC11F0FC0E0401876F300E1E
:102E7000866F000157EC0BF0F2B40AD0040150A9A0
:102E800002D0000105D056BB02D00001F5D70001E9
:102E9000F2B404D0040156AB05D00001060E016E59
:102EA00006D00401000103EC0EF0000E016EEFEFFE
:102EB00019F0010E04017425766F000E7521776FED
:102EC000F2CF78F4F29E77C4AAFF76C4A9FFA69C3D
:102ED000A69EA680A85078BFF28E766FF2CF77F4C8
:102EE000F29E75C4AAFF74C4A9FFA69CA69EA680E4
:102EF000A85077BFF28E796F76C403F07951016ED6
:102F00000350026E00011200F86AF1949F82A292AF
:102F1000F09EF1907C907C84D08E078E0201556BE0
:102F2000566B576B586B596B5A6B5B6B5C6B5D6B7D
:102F3000956B966B976B996B986B9B6B9A6B9D6B74
:102F40009C6B9F6B9E6BA36BA26BA16BA06BA76B23
:102F5000A66BA56BA46BAB6BAA6BA96BA86BAF6BD5
:102F6000AE6BAD6BAC6BB86BB96BBA6BC46BC36B50
:102F7000F469F3690301296B286B2D6B2C6B2B6BA8
:102F80002A6B536B546B556B566B576B586B596B65
:102F90005A6B5B6B686B6A6B696B6B6B6C6B6D6BA5
:102FA0007A6BA59F0401509150935095509750997A
:102FB000509B509D626BB896010EAF6EA60EAC6E24
:102FC000900EAB6E0F01386B396B3A6B3B6B3C6B01
:102FD0000101886B776A786A796A11D002002F0044
:102FE00000100035445553544E4554574F524B53DF
:102FF000524F434B0842B0000842BB000000000E95
:10300000F86E2F0EF76EDC0EF66E0900F550006EAE
:10301000000A13E00900F550016EE8BE05D00F0B61
:10302000EA6E0900F5CFE9FF01BC090001AC090017
:10303000F5CFEEFF004EE9D7F9D7F86AD286D288ED
:1030400000018BEF0CF014EF0DF05BEF0DF0F0EFE3
:103050000DF003EC0EF08C861EEF0EF0C3EF0EF0B9
:103060000301A493040160A307D0010E626F000165
:10307000E7EC11F00AD0040160A504D00301678FCA
:1030800003D004010301A483000181BC10D081ACF2
:10309000FED7AAEF12F001C0AAF30301AA5304E17C
:1030A0000001F8EF13F003010001E7EC11F0D0503C
:1030B0000F0BD0A8000ED080D082D088D886D888B8
:1030C0000301276F275302E1A3512727020EEA6E5F
:1030D0000A0EE96E000E0001B7EC02F00A000900CA
:1030E000F550EE6E0009FBE127C387F479EC0FF091
:1030F00001C00AF227C387F489EC0FF001C00BF27C
:10310000020E0401756F0A0E746F00011EEC14F0BC
:10311000040E0401746FFA0E866F000173EC0BF05D
:103120000401742FF8D70301A351500801E1428F25
:10313000A36B0001D8D4F250006EF29EAA6AA00ED2
:10314000A96E27C3A8FFA69CA69EA6840F01550EB4
:10315000A76EAA0EA76EA682A6B2FED7A6940050AE
:10316000F212040E0401746FFA0E866F000173EC04
:103170000BF00401742FF8D703017A6B000103EC04
:103180000EF0B46A8F0EB16EB36AB26AF088F1982D
:10319000A192A0829E92C00EF2120301A4A300D0BD
:1031A000020194690301A599020E04016C6F010EDE
:1031B0006D6F040E6E6F0E0E6F6F876B866B886B74
:1031C000040E8A6F6C0E896F040E8B6F00016FEC1A
:1031D00010F0B9EC11F0FC0E0401876F300E866F11
:1031E000000157EC0BF003EC0EF0F2B404D0030135
:1031F000A5A904D000010301428F09D00201945116
:10320000050806E0942D01D003D00301428F02018E
:10321000030142AF23D0000103EC0EF08C98540E52
:10322000006E002EFED700D08C88A40E0401876F9C
:10323000730E866F000157EC0BF0F2B406D0040158
:103240005BB102D00001F9D70001F2A406D0020E52
:103250000401626F0001E7EC11F00301000103ECCF
:103260000EF0020E0401706F010E716F040E726F8A
:103270000D0E736F876B866B886B040E8A6F700EF2
:10328000896F040E8B6F00016FEC10F0B9EC11F038
:10329000FC0E0401876F300E866F000157EC0BF0B7
:1032A000F2B40BD00301A5AB02D0000106D004019B
:1032B00056BB02D00001F4D70001F2B404D00401DF
:1032C00056AB08D00001030E0401626F0001E7EC69
:1032D00011F00401020EEA6E0A0EE96E000E000102
:1032E000C8EC02F00A000900F550EE6E0009FBE19F
:1032F000B8C287F479EC0FF001C00CF2B8C287F4C1
:1033000089EC0FF001C00DF2B9C287F479EC0FF02F
:1033100001C00EF2B9C287F489EC0FF001C00FF2C0
:10332000BAC287F479EC0FF001C010F2BAC287F488
:1033300089EC0FF001C011F29FC274F49FC287F4B0
:1033400079EC0FF001C016F29FC274F49FC287F4AB
:1033500089EC0FF001C017F29EC274F49EC287F48C
:1033600079EC0FF001C018F29EC274F49EC287F48B
:1033700089EC0FF001C019F2020E0401756F0A0EFC
:10338000746F00011EEC14F00201942DB8D04A0EA7
:103390001B6F200E1C6F1D6F1E6F1F6F3A0E206F6C
:1033A000200E216F226F03015A6B576B546B04017F
:1033B0005791030E03015D6F540E5C6F030E5F6F38
:1033C000570E5E6F030E616F5A0E606F020E04019E
:1033D000886F1B0E876F000198EC0FF0BAD401C004
:1033E000AAF303EC0EF00301486B476B010E7A6FF2
:1033F00004015BBB73D0030148510708D8B002D069
:1034000004016CD006E147510708D8B002D004018E
:1034100065D0A4A561D061C303F060C3E9FF61C3B7
:10342000EAFFEF50630806E23F0E02011C6F1D6FBA
:1034300019D0030160C3E9FF61C3EAFF036AEF50DB
:1034400000013CEC01F0E8CF1CF2030160C3E9FF8E
:1034500061C3EAFF036AEF50000176EC01F0E8CFA8
:103460001DF2020103015EC3E9FF5FC3EAFF036AC5
:10347000EF5000013CEC01F0E8CF1EF203015EC307
:10348000E9FF5FC3EAFF036AEF50000176EC01F049
:10349000E8CF1FF203015CC3E9FF5DC3EAFF036AE3
:1034A000EF5000013CEC01F0E8CF21F203015CC3D6
:1034B000E9FF5DC3EAFF036AEF50000176EC01F01B
:1034C000E8CF22F2020E0401886F1B0E876F000105
:1034D00098EC0FF00301A4958BD704010301485128
:1034E00006080CE2FF0A03E14751070807E2080E4D
:1034F0000401626F0001E7EC11F003010201400ECC
:1035000004018A6F000181EC0EF0450E0401756F15
:1035100000019DEC0EF0FFD70401756B140E746F63
:103520000001C7DC02C08BF301C08AF303018B5199
:10353000000812E2FF0A03E18A51F3080DE28B6BE7
:103540008A6B04015387876B140E866F896B886BB7
:10355000000106EC10F00301F2CF74F4F29EAA6AA7
:10356000020EA96EA69CA69EA680A850040174BF58
:10357000F28E686B676F675302E1685305E068532A
:1035800003E167513C080EE2876B020E866F896B80
:10359000040E886F000106EC10F0040E0301626F48
:1035A00004D0040167C462F303010401756B3E0E8D
:1035B000746F00017EDC02C071F301C070F303017F
:1035C0007151020815E2FF0A03E17051E70810E2A9
:1035D000010E716F2C0E706F0401876B3E0E866FAB
:1035E000010E896F2C0E886F000106EC10F00301AC
:1035F0008B940C0EBD6EB76AB66A010EB96EFC0EE6
:103600000F014917000E4913280EBE6E040E030168
:10361000C66FCD0EC56F0300FFFFFFFFFFFFFFFF6B
:10362000FFFFFFFFFFFFFFFFFFFFFFFFFFFFFFFFAA
:10363000FFFFFFFFFFFFFFFFFFFFFFFFFFFFFFFF9A
:10364000FFFFFFFFFFFFFFFFFFFFFFFFFFFFFFFF8A
:10365000FFFFFFFFFFFFFFFFFFFFFFFFFFFFFFFF7A
:0200000400F00A
:020000040030CA
:0E00000000C2183E00A881000FC00FE00F40A4
:00000001FF
